{
  "_format": "hh-sol-artifact-1",
  "contractName": "DPPContract",
  "sourceName": "contracts/DPP.sol",
  "abi": [
    {
      "inputs": [
        {
          "internalType": "address",
          "name": "defaultAdmin",
          "type": "address"
        },
        {
          "internalType": "address",
          "name": "minter",
          "type": "address"
        }
      ],
      "stateMutability": "nonpayable",
      "type": "constructor"
    },
    {
      "inputs": [],
      "name": "AccessControlBadConfirmation",
      "type": "error"
    },
    {
      "inputs": [
        {
          "internalType": "address",
          "name": "account",
          "type": "address"
        },
        {
          "internalType": "bytes32",
          "name": "neededRole",
          "type": "bytes32"
        }
      ],
      "name": "AccessControlUnauthorizedAccount",
      "type": "error"
    },
    {
      "inputs": [
        {
          "internalType": "address",
          "name": "sender",
          "type": "address"
        },
        {
          "internalType": "uint256",
          "name": "balance",
          "type": "uint256"
        },
        {
          "internalType": "uint256",
          "name": "needed",
          "type": "uint256"
        },
        {
          "internalType": "uint256",
          "name": "tokenId",
          "type": "uint256"
        }
      ],
      "name": "ERC1155InsufficientBalance",
      "type": "error"
    },
    {
      "inputs": [
        {
          "internalType": "address",
          "name": "approver",
          "type": "address"
        }
      ],
      "name": "ERC1155InvalidApprover",
      "type": "error"
    },
    {
      "inputs": [
        {
          "internalType": "uint256",
          "name": "idsLength",
          "type": "uint256"
        },
        {
          "internalType": "uint256",
          "name": "valuesLength",
          "type": "uint256"
        }
      ],
      "name": "ERC1155InvalidArrayLength",
      "type": "error"
    },
    {
      "inputs": [
        {
          "internalType": "address",
          "name": "operator",
          "type": "address"
        }
      ],
      "name": "ERC1155InvalidOperator",
      "type": "error"
    },
    {
      "inputs": [
        {
          "internalType": "address",
          "name": "receiver",
          "type": "address"
        }
      ],
      "name": "ERC1155InvalidReceiver",
      "type": "error"
    },
    {
      "inputs": [
        {
          "internalType": "address",
          "name": "sender",
          "type": "address"
        }
      ],
      "name": "ERC1155InvalidSender",
      "type": "error"
    },
    {
      "inputs": [
        {
          "internalType": "address",
          "name": "operator",
          "type": "address"
        },
        {
          "internalType": "address",
          "name": "owner",
          "type": "address"
        }
      ],
      "name": "ERC1155MissingApprovalForAll",
      "type": "error"
    },
    {
      "anonymous": false,
      "inputs": [
        {
          "indexed": true,
          "internalType": "address",
          "name": "account",
          "type": "address"
        },
        {
          "indexed": true,
          "internalType": "address",
          "name": "operator",
          "type": "address"
        },
        {
          "indexed": false,
          "internalType": "bool",
          "name": "approved",
          "type": "bool"
        }
      ],
      "name": "ApprovalForAll",
      "type": "event"
    },
    {
      "anonymous": false,
      "inputs": [
        {
          "indexed": true,
          "internalType": "bytes32",
          "name": "role",
          "type": "bytes32"
        },
        {
          "indexed": true,
          "internalType": "bytes32",
          "name": "previousAdminRole",
          "type": "bytes32"
        },
        {
          "indexed": true,
          "internalType": "bytes32",
          "name": "newAdminRole",
          "type": "bytes32"
        }
      ],
      "name": "RoleAdminChanged",
      "type": "event"
    },
    {
      "anonymous": false,
      "inputs": [
        {
          "indexed": true,
          "internalType": "bytes32",
          "name": "role",
          "type": "bytes32"
        },
        {
          "indexed": true,
          "internalType": "address",
          "name": "account",
          "type": "address"
        },
        {
          "indexed": true,
          "internalType": "address",
          "name": "sender",
          "type": "address"
        }
      ],
      "name": "RoleGranted",
      "type": "event"
    },
    {
      "anonymous": false,
      "inputs": [
        {
          "indexed": true,
          "internalType": "bytes32",
          "name": "role",
          "type": "bytes32"
        },
        {
          "indexed": true,
          "internalType": "address",
          "name": "account",
          "type": "address"
        },
        {
          "indexed": true,
          "internalType": "address",
          "name": "sender",
          "type": "address"
        }
      ],
      "name": "RoleRevoked",
      "type": "event"
    },
    {
      "anonymous": false,
      "inputs": [
        {
          "indexed": true,
          "internalType": "address",
          "name": "operator",
          "type": "address"
        },
        {
          "indexed": true,
          "internalType": "address",
          "name": "from",
          "type": "address"
        },
        {
          "indexed": true,
          "internalType": "address",
          "name": "to",
          "type": "address"
        },
        {
          "indexed": false,
          "internalType": "uint256[]",
          "name": "ids",
          "type": "uint256[]"
        },
        {
          "indexed": false,
          "internalType": "uint256[]",
          "name": "values",
          "type": "uint256[]"
        }
      ],
      "name": "TransferBatch",
      "type": "event"
    },
    {
      "anonymous": false,
      "inputs": [
        {
          "indexed": true,
          "internalType": "address",
          "name": "operator",
          "type": "address"
        },
        {
          "indexed": true,
          "internalType": "address",
          "name": "from",
          "type": "address"
        },
        {
          "indexed": true,
          "internalType": "address",
          "name": "to",
          "type": "address"
        },
        {
          "indexed": false,
          "internalType": "uint256",
          "name": "id",
          "type": "uint256"
        },
        {
          "indexed": false,
          "internalType": "uint256",
          "name": "value",
          "type": "uint256"
        }
      ],
      "name": "TransferSingle",
      "type": "event"
    },
    {
      "anonymous": false,
      "inputs": [
        {
          "indexed": false,
          "internalType": "string",
          "name": "value",
          "type": "string"
        },
        {
          "indexed": true,
          "internalType": "uint256",
          "name": "id",
          "type": "uint256"
        }
      ],
      "name": "URI",
      "type": "event"
    },
    {
      "inputs": [],
      "name": "ADMIN_ROLE",
      "outputs": [
        {
          "internalType": "bytes32",
          "name": "",
          "type": "bytes32"
        }
      ],
      "stateMutability": "view",
      "type": "function"
    },
    {
      "inputs": [
        {
          "internalType": "address",
          "name": "",
          "type": "address"
        }
      ],
      "name": "BikePayment",
      "outputs": [
        {
          "internalType": "bool",
          "name": "",
          "type": "bool"
        }
      ],
      "stateMutability": "view",
      "type": "function"
    },
    {
      "inputs": [],
      "name": "DEFAULT_ADMIN_ROLE",
      "outputs": [
        {
          "internalType": "bytes32",
          "name": "",
          "type": "bytes32"
        }
      ],
      "stateMutability": "view",
      "type": "function"
    },
    {
      "inputs": [],
      "name": "MINTER_ROLE",
      "outputs": [
        {
          "internalType": "bytes32",
          "name": "",
          "type": "bytes32"
        }
      ],
      "stateMutability": "view",
      "type": "function"
    },
    {
      "inputs": [
        {
          "internalType": "address",
          "name": "",
          "type": "address"
        }
      ],
      "name": "PayedDepositFrame",
      "outputs": [
        {
          "internalType": "bool",
          "name": "",
          "type": "bool"
        }
      ],
      "stateMutability": "view",
      "type": "function"
    },
    {
      "inputs": [
        {
          "internalType": "address",
          "name": "",
          "type": "address"
        }
      ],
      "name": "PayedDepositWheel",
      "outputs": [
        {
          "internalType": "bool",
          "name": "",
          "type": "bool"
        }
      ],
      "stateMutability": "view",
      "type": "function"
    },
    {
      "inputs": [],
      "name": "URI_SETTER_ROLE",
      "outputs": [
        {
          "internalType": "bytes32",
          "name": "",
          "type": "bytes32"
        }
      ],
      "stateMutability": "view",
      "type": "function"
    },
    {
      "inputs": [
        {
          "internalType": "address",
          "name": "",
          "type": "address"
        }
      ],
      "name": "adressToDPP_ID",
      "outputs": [
        {
          "internalType": "uint256",
          "name": "",
          "type": "uint256"
        }
      ],
      "stateMutability": "view",
      "type": "function"
    },
    {
      "inputs": [
        {
          "internalType": "address",
          "name": "_user",
          "type": "address"
        },
        {
          "internalType": "string",
          "name": "_dpp_ipfs_link",
          "type": "string"
        }
      ],
      "name": "approvePurchase",
      "outputs": [],
      "stateMutability": "nonpayable",
      "type": "function"
    },
    {
      "inputs": [
        {
          "internalType": "address",
          "name": "account",
          "type": "address"
        },
        {
          "internalType": "uint256",
          "name": "id",
          "type": "uint256"
        }
      ],
      "name": "balanceOf",
      "outputs": [
        {
          "internalType": "uint256",
          "name": "",
          "type": "uint256"
        }
      ],
      "stateMutability": "view",
      "type": "function"
    },
    {
      "inputs": [
        {
          "internalType": "address[]",
          "name": "accounts",
          "type": "address[]"
        },
        {
          "internalType": "uint256[]",
          "name": "ids",
          "type": "uint256[]"
        }
      ],
      "name": "balanceOfBatch",
      "outputs": [
        {
          "internalType": "uint256[]",
          "name": "",
          "type": "uint256[]"
        }
      ],
      "stateMutability": "view",
      "type": "function"
    },
    {
      "inputs": [],
      "name": "bikePrice",
      "outputs": [
        {
          "internalType": "uint256",
          "name": "",
          "type": "uint256"
        }
      ],
      "stateMutability": "view",
      "type": "function"
    },
    {
      "inputs": [
        {
          "internalType": "address",
          "name": "account",
          "type": "address"
        },
        {
          "internalType": "uint256",
          "name": "id",
          "type": "uint256"
        },
        {
          "internalType": "uint256",
          "name": "value",
          "type": "uint256"
        }
      ],
      "name": "burn",
      "outputs": [],
      "stateMutability": "nonpayable",
      "type": "function"
    },
    {
      "inputs": [
        {
          "internalType": "address",
          "name": "account",
          "type": "address"
        },
        {
          "internalType": "uint256[]",
          "name": "ids",
          "type": "uint256[]"
        },
        {
          "internalType": "uint256[]",
          "name": "values",
          "type": "uint256[]"
        }
      ],
      "name": "burnBatch",
      "outputs": [],
      "stateMutability": "nonpayable",
      "type": "function"
    },
    {
      "inputs": [
        {
          "internalType": "address",
          "name": "_user",
          "type": "address"
        }
      ],
      "name": "cancelPurchase_Distributor",
      "outputs": [],
      "stateMutability": "nonpayable",
      "type": "function"
    },
    {
      "inputs": [],
      "name": "cancelPurchase_User",
      "outputs": [],
      "stateMutability": "nonpayable",
      "type": "function"
    },
    {
      "inputs": [],
      "name": "depositFrame",
      "outputs": [
        {
          "internalType": "uint256",
          "name": "",
          "type": "uint256"
        }
      ],
      "stateMutability": "view",
      "type": "function"
    },
    {
      "inputs": [],
      "name": "depositWheel",
      "outputs": [
        {
          "internalType": "uint256",
          "name": "",
          "type": "uint256"
        }
      ],
      "stateMutability": "view",
      "type": "function"
    },
    {
      "inputs": [
        {
          "internalType": "uint256",
          "name": "",
          "type": "uint256"
        },
        {
          "internalType": "address",
          "name": "",
          "type": "address"
        }
      ],
      "name": "dppIdtoUsers",
      "outputs": [
        {
          "internalType": "bool",
          "name": "",
          "type": "bool"
        }
      ],
      "stateMutability": "view",
      "type": "function"
    },
    {
      "inputs": [
        {
          "internalType": "uint256",
          "name": "id",
          "type": "uint256"
        }
      ],
      "name": "exists",
      "outputs": [
        {
          "internalType": "bool",
          "name": "",
          "type": "bool"
        }
      ],
      "stateMutability": "view",
      "type": "function"
    },
    {
      "inputs": [
        {
          "internalType": "bytes32",
          "name": "role",
          "type": "bytes32"
        }
      ],
      "name": "getRoleAdmin",
      "outputs": [
        {
          "internalType": "bytes32",
          "name": "",
          "type": "bytes32"
        }
      ],
      "stateMutability": "view",
      "type": "function"
    },
    {
      "inputs": [
        {
          "internalType": "bytes32",
          "name": "role",
          "type": "bytes32"
        },
        {
          "internalType": "address",
          "name": "account",
          "type": "address"
        }
      ],
      "name": "grantRole",
      "outputs": [],
      "stateMutability": "nonpayable",
      "type": "function"
    },
    {
      "inputs": [
        {
          "internalType": "bytes32",
          "name": "role",
          "type": "bytes32"
        },
        {
          "internalType": "address",
          "name": "account",
          "type": "address"
        }
      ],
      "name": "hasRole",
      "outputs": [
        {
          "internalType": "bool",
          "name": "",
          "type": "bool"
        }
      ],
      "stateMutability": "view",
      "type": "function"
    },
    {
      "inputs": [
        {
          "internalType": "address",
          "name": "account",
          "type": "address"
        },
        {
          "internalType": "address",
          "name": "operator",
          "type": "address"
        }
      ],
      "name": "isApprovedForAll",
      "outputs": [
        {
          "internalType": "bool",
          "name": "",
          "type": "bool"
        }
      ],
      "stateMutability": "view",
      "type": "function"
    },
    {
      "inputs": [
        {
          "internalType": "string",
          "name": "_ipfsLink",
          "type": "string"
        }
      ],
      "name": "makePurchase",
      "outputs": [],
      "stateMutability": "payable",
      "type": "function"
    },
    {
      "inputs": [
        {
          "internalType": "string",
          "name": "_ipfsLink",
          "type": "string"
        }
      ],
      "name": "makePurchaseDel",
      "outputs": [],
      "stateMutability": "nonpayable",
      "type": "function"
    },
    {
      "inputs": [
        {
          "internalType": "address",
          "name": "account",
          "type": "address"
        },
        {
          "internalType": "uint256",
          "name": "id",
          "type": "uint256"
        },
        {
          "internalType": "uint256",
          "name": "amount",
          "type": "uint256"
        },
        {
          "internalType": "bytes",
          "name": "data",
          "type": "bytes"
        }
      ],
      "name": "mint",
      "outputs": [],
      "stateMutability": "nonpayable",
      "type": "function"
    },
    {
      "inputs": [
        {
          "internalType": "address",
          "name": "to",
          "type": "address"
        },
        {
          "internalType": "uint256[]",
          "name": "ids",
          "type": "uint256[]"
        },
        {
          "internalType": "uint256[]",
          "name": "amounts",
          "type": "uint256[]"
        },
        {
          "internalType": "bytes",
          "name": "data",
          "type": "bytes"
        }
      ],
      "name": "mintBatch",
      "outputs": [],
      "stateMutability": "nonpayable",
      "type": "function"
    },
    {
      "inputs": [
        {
          "internalType": "address",
          "name": "",
          "type": "address"
        }
      ],
      "name": "orderMade",
      "outputs": [
        {
          "internalType": "bool",
          "name": "",
          "type": "bool"
        }
      ],
      "stateMutability": "view",
      "type": "function"
    },
    {
      "inputs": [
        {
          "internalType": "bytes32",
          "name": "role",
          "type": "bytes32"
        },
        {
          "internalType": "address",
          "name": "callerConfirmation",
          "type": "address"
        }
      ],
      "name": "renounceRole",
      "outputs": [],
      "stateMutability": "nonpayable",
      "type": "function"
    },
    {
      "inputs": [
        {
          "internalType": "bytes32",
          "name": "role",
          "type": "bytes32"
        },
        {
          "internalType": "address",
          "name": "account",
          "type": "address"
        }
      ],
      "name": "revokeRole",
      "outputs": [],
      "stateMutability": "nonpayable",
      "type": "function"
    },
    {
      "inputs": [
        {
          "internalType": "address",
          "name": "from",
          "type": "address"
        },
        {
          "internalType": "address",
          "name": "to",
          "type": "address"
        },
        {
          "internalType": "uint256[]",
          "name": "ids",
          "type": "uint256[]"
        },
        {
          "internalType": "uint256[]",
          "name": "values",
          "type": "uint256[]"
        },
        {
          "internalType": "bytes",
          "name": "data",
          "type": "bytes"
        }
      ],
      "name": "safeBatchTransferFrom",
      "outputs": [],
      "stateMutability": "nonpayable",
      "type": "function"
    },
    {
      "inputs": [
        {
          "internalType": "address",
          "name": "from",
          "type": "address"
        },
        {
          "internalType": "address",
          "name": "to",
          "type": "address"
        },
        {
          "internalType": "uint256",
          "name": "id",
          "type": "uint256"
        },
        {
          "internalType": "uint256",
          "name": "value",
          "type": "uint256"
        },
        {
          "internalType": "bytes",
          "name": "data",
          "type": "bytes"
        }
      ],
      "name": "safeTransferFrom",
      "outputs": [],
      "stateMutability": "nonpayable",
      "type": "function"
    },
    {
      "inputs": [
        {
          "internalType": "address",
          "name": "operator",
          "type": "address"
        },
        {
          "internalType": "bool",
          "name": "approved",
          "type": "bool"
        }
      ],
      "name": "setApprovalForAll",
      "outputs": [],
      "stateMutability": "nonpayable",
      "type": "function"
    },
    {
      "inputs": [
        {
          "internalType": "string",
          "name": "newuri",
          "type": "string"
        }
      ],
      "name": "setURI",
      "outputs": [],
      "stateMutability": "nonpayable",
      "type": "function"
    },
    {
      "inputs": [
        {
          "internalType": "bytes4",
          "name": "interfaceId",
          "type": "bytes4"
        }
      ],
      "name": "supportsInterface",
      "outputs": [
        {
          "internalType": "bool",
          "name": "",
          "type": "bool"
        }
      ],
      "stateMutability": "view",
      "type": "function"
    },
    {
      "inputs": [],
      "name": "token_id",
      "outputs": [
        {
          "internalType": "uint256",
          "name": "",
          "type": "uint256"
        }
      ],
      "stateMutability": "view",
      "type": "function"
    },
    {
      "inputs": [],
      "name": "totalPrice",
      "outputs": [
        {
          "internalType": "uint256",
          "name": "",
          "type": "uint256"
        }
      ],
      "stateMutability": "view",
      "type": "function"
    },
    {
      "inputs": [],
      "name": "totalSupply",
      "outputs": [
        {
          "internalType": "uint256",
          "name": "",
          "type": "uint256"
        }
      ],
      "stateMutability": "view",
      "type": "function"
    },
    {
      "inputs": [
        {
          "internalType": "uint256",
          "name": "id",
          "type": "uint256"
        }
      ],
      "name": "totalSupply",
      "outputs": [
        {
          "internalType": "uint256",
          "name": "",
          "type": "uint256"
        }
      ],
      "stateMutability": "view",
      "type": "function"
    },
    {
      "inputs": [
        {
          "internalType": "uint256",
          "name": "tokenId",
          "type": "uint256"
        }
      ],
      "name": "uri",
      "outputs": [
        {
          "internalType": "string",
          "name": "",
          "type": "string"
        }
      ],
      "stateMutability": "view",
      "type": "function"
    },
    {
      "inputs": [
        {
          "internalType": "string",
          "name": "tokenURI",
          "type": "string"
        },
        {
          "internalType": "address",
          "name": "_to",
          "type": "address"
        }
      ],
      "name": "uri_set_mint",
      "outputs": [],
      "stateMutability": "nonpayable",
      "type": "function"
    },
    {
      "inputs": [
        {
          "internalType": "address",
          "name": "",
          "type": "address"
        }
      ],
      "name": "userOrderIPFS",
      "outputs": [
        {
          "internalType": "string",
          "name": "",
          "type": "string"
        }
      ],
      "stateMutability": "view",
      "type": "function"
    }
  ],
  "bytecode": "0x60806040526040518060200160405280600081525060069081620000249190620004ed565b5060016008556103e860095560c8600a55610190600b55610708600c553480156200004e57600080fd5b50604051620052643803806200526483398181016040528101906200007491906200063e565b604051806020016040528060008152506200009581620000e760201b60201c565b50620000ab6000801b83620000fc60201b60201c565b50620000de7f9f2df0fed2c77648de5860a4cc508cd0818c85b8b8a1ab4ceeef8d981c8956a682620000fc60201b60201c565b50505062000685565b8060029081620000f89190620004ed565b5050565b60006200011083836200020060201b60201c565b620001f55760016005600085815260200190815260200160002060000160008473ffffffffffffffffffffffffffffffffffffffff1673ffffffffffffffffffffffffffffffffffffffff16815260200190815260200160002060006101000a81548160ff021916908315150217905550620001916200026b60201b60201c565b73ffffffffffffffffffffffffffffffffffffffff168273ffffffffffffffffffffffffffffffffffffffff16847f2f8788117e7eff1d82e926ec794901d17c78024a50270940304540a733656f0d60405160405180910390a460019050620001fa565b600090505b92915050565b60006005600084815260200190815260200160002060000160008373ffffffffffffffffffffffffffffffffffffffff1673ffffffffffffffffffffffffffffffffffffffff16815260200190815260200160002060009054906101000a900460ff16905092915050565b600033905090565b600081519050919050565b7f4e487b7100000000000000000000000000000000000000000000000000000000600052604160045260246000fd5b7f4e487b7100000000000000000000000000000000000000000000000000000000600052602260045260246000fd5b60006002820490506001821680620002f557607f821691505b6020821081036200030b576200030a620002ad565b5b50919050565b60008190508160005260206000209050919050565b60006020601f8301049050919050565b600082821b905092915050565b600060088302620003757fffffffffffffffffffffffffffffffffffffffffffffffffffffffffffffffff8262000336565b62000381868362000336565b95508019841693508086168417925050509392505050565b6000819050919050565b6000819050919050565b6000620003ce620003c8620003c28462000399565b620003a3565b62000399565b9050919050565b6000819050919050565b620003ea83620003ad565b62000402620003f982620003d5565b84845462000343565b825550505050565b600090565b620004196200040a565b62000426818484620003df565b505050565b5b818110156200044e57620004426000826200040f565b6001810190506200042c565b5050565b601f8211156200049d57620004678162000311565b620004728462000326565b8101602085101562000482578190505b6200049a620004918562000326565b8301826200042b565b50505b505050565b600082821c905092915050565b6000620004c260001984600802620004a2565b1980831691505092915050565b6000620004dd8383620004af565b9150826002028217905092915050565b620004f88262000273565b67ffffffffffffffff8111156200051457620005136200027e565b5b620005208254620002dc565b6200052d82828562000452565b600060209050601f83116001811462000565576000841562000550578287015190505b6200055c8582620004cf565b865550620005cc565b601f198416620005758662000311565b60005b828110156200059f5784890151825560018201915060208501945060208101905062000578565b86831015620005bf5784890151620005bb601f891682620004af565b8355505b6001600288020188555050505b505050505050565b600080fd5b600073ffffffffffffffffffffffffffffffffffffffff82169050919050565b60006200060682620005d9565b9050919050565b6200061881620005f9565b81146200062457600080fd5b50565b60008151905062000638816200060d565b92915050565b60008060408385031215620006585762000657620005d4565b5b6000620006688582860162000627565b92505060206200067b8582860162000627565b9150509250929050565b614bcf80620006956000396000f3fe60806040526004361061025b5760003560e01c806375b238fc11610144578063bd85b039116100b6578063e8b5a99f1161007a578063e8b5a99f14610946578063e985e9c514610983578063f092d672146109c0578063f242432a146109fd578063f4f68bfd14610a26578063f5298aca14610a4f5761025b565b8063bd85b03914610861578063d53913931461089e578063d547741f146108c9578063d5668131146108f2578063e1e6743b1461091d5761025b565b806391d148541161010857806391d148541461073d578063a217fddf1461077a578063a22cb465146107a5578063a371139f146107ce578063a86a58af1461080b578063ab0d92dd146108365761025b565b806375b238fc146106425780637aced3fe1461066d5780637cd0b454146106985780637f345710146106d55780638caa1fda146107005761025b565b806328e81978116101dd5780634e1273f4116101a15780634e1273f4146105225780634f558e791461055f57806353f0e8461461059c57806366edd1ee146105c75780636b20c454146105f0578063731133e9146106195761025b565b806328e819781461044e5780632b9c305b1461048b5780632eb2c2d6146104a75780632f2ff15d146104d057806336568abe146104f95761025b565b806311ecc8b51161022457806311ecc8b51461036957806318160ddd146103a65780631f7fdffa146103d157806323ca74aa146103fa578063248a9ca3146104115761025b565b8062fdd58e1461026057806301c705e01461029d57806301ffc9a7146102c657806302fe5305146103035780630e89341c1461032c575b600080fd5b34801561026c57600080fd5b506102876004803603810190610282919061346a565b610a78565b60405161029491906134b9565b60405180910390f35b3480156102a957600080fd5b506102c460048036038101906102bf919061361a565b610ad2565b005b3480156102d257600080fd5b506102ed60048036038101906102e891906136bb565b610b2d565b6040516102fa9190613703565b60405180910390f35b34801561030f57600080fd5b5061032a6004803603810190610325919061361a565b610b3f565b005b34801561033857600080fd5b50610353600480360381019061034e919061371e565b610b76565b60405161036091906137ca565b60405180910390f35b34801561037557600080fd5b50610390600480360381019061038b91906137ec565b610b88565b60405161039d9190613703565b60405180910390f35b3480156103b257600080fd5b506103bb610ba8565b6040516103c891906134b9565b60405180910390f35b3480156103dd57600080fd5b506103f860048036038101906103f39190613982565b610bb2565b005b34801561040657600080fd5b5061040f610bef565b005b34801561041d57600080fd5b5061043860048036038101906104339190613a73565b610e11565b6040516104459190613aaf565b60405180910390f35b34801561045a57600080fd5b5061047560048036038101906104709190613aca565b610e31565b6040516104829190613703565b60405180910390f35b6104a560048036038101906104a0919061361a565b610e60565b005b3480156104b357600080fd5b506104ce60048036038101906104c99190613b0a565b61116e565b005b3480156104dc57600080fd5b506104f760048036038101906104f29190613bd9565b611216565b005b34801561050557600080fd5b50610520600480360381019061051b9190613bd9565b611238565b005b34801561052e57600080fd5b5061054960048036038101906105449190613cdc565b6112b3565b6040516105569190613e12565b60405180910390f35b34801561056b57600080fd5b506105866004803603810190610581919061371e565b6113c2565b6040516105939190613703565b60405180910390f35b3480156105a857600080fd5b506105b16113d6565b6040516105be91906134b9565b60405180910390f35b3480156105d357600080fd5b506105ee60048036038101906105e99190613e34565b6113dc565b005b3480156105fc57600080fd5b5061061760048036038101906106129190613e90565b61144d565b005b34801561062557600080fd5b50610640600480360381019061063b9190613f1b565b6114f9565b005b34801561064e57600080fd5b50610657611536565b6040516106649190613aaf565b60405180910390f35b34801561067957600080fd5b5061068261155a565b60405161068f91906134b9565b60405180910390f35b3480156106a457600080fd5b506106bf60048036038101906106ba91906137ec565b611560565b6040516106cc91906134b9565b60405180910390f35b3480156106e157600080fd5b506106ea611578565b6040516106f79190613aaf565b60405180910390f35b34801561070c57600080fd5b50610727600480360381019061072291906137ec565b61159c565b60405161073491906137ca565b60405180910390f35b34801561074957600080fd5b50610764600480360381019061075f9190613bd9565b61163c565b6040516107719190613703565b60405180910390f35b34801561078657600080fd5b5061078f6116a7565b60405161079c9190613aaf565b60405180910390f35b3480156107b157600080fd5b506107cc60048036038101906107c79190613fca565b6116ae565b005b3480156107da57600080fd5b506107f560048036038101906107f091906137ec565b6116c4565b6040516108029190613703565b60405180910390f35b34801561081757600080fd5b506108206116e4565b60405161082d91906134b9565b60405180910390f35b34801561084257600080fd5b5061084b6116ea565b60405161085891906134b9565b60405180910390f35b34801561086d57600080fd5b506108886004803603810190610883919061371e565b6116f0565b60405161089591906134b9565b60405180910390f35b3480156108aa57600080fd5b506108b361170d565b6040516108c09190613aaf565b60405180910390f35b3480156108d557600080fd5b506108f060048036038101906108eb9190613bd9565b611731565b005b3480156108fe57600080fd5b50610907611753565b60405161091491906134b9565b60405180910390f35b34801561092957600080fd5b50610944600480360381019061093f91906137ec565b611759565b005b34801561095257600080fd5b5061096d600480360381019061096891906137ec565b61192d565b60405161097a9190613703565b60405180910390f35b34801561098f57600080fd5b506109aa60048036038101906109a5919061400a565b61194d565b6040516109b79190613703565b60405180910390f35b3480156109cc57600080fd5b506109e760048036038101906109e291906137ec565b6119e1565b6040516109f49190613703565b60405180910390f35b348015610a0957600080fd5b50610a246004803603810190610a1f919061404a565b611a01565b005b348015610a3257600080fd5b50610a4d6004803603810190610a4891906140e1565b611aa9565b005b348015610a5b57600080fd5b50610a766004803603810190610a71919061413d565b611c42565b005b600080600083815260200190815260200160002060008473ffffffffffffffffffffffffffffffffffffffff1673ffffffffffffffffffffffffffffffffffffffff16815260200190815260200160002054905092915050565b6000601260003373ffffffffffffffffffffffffffffffffffffffff1673ffffffffffffffffffffffffffffffffffffffff16815260200190815260200160002060006101000a81548160ff02191690831515021790555050565b6000610b3882611cee565b9050919050565b7f7804d923f43a17d325d77e781528e0793b2edd9890ab45fc64efd7b4b427744c610b6981611d68565b610b7282611d7c565b5050565b6060610b8182611d8f565b9050919050565b60126020528060005260406000206000915054906101000a900460ff1681565b6000600454905090565b7f9f2df0fed2c77648de5860a4cc508cd0818c85b8b8a1ab4ceeef8d981c8956a6610bdc81611d68565b610be885858585611e74565b5050505050565b600d60003373ffffffffffffffffffffffffffffffffffffffff1673ffffffffffffffffffffffffffffffffffffffff16815260200190815260200160002060009054906101000a900460ff16610c7b576040517f08c379a0000000000000000000000000000000000000000000000000000000008152600401610c7290614202565b60405180910390fd5b610c8733600c54611efa565b50600d60003373ffffffffffffffffffffffffffffffffffffffff1673ffffffffffffffffffffffffffffffffffffffff16815260200190815260200160002060006101000a81549060ff0219169055601260003373ffffffffffffffffffffffffffffffffffffffff1673ffffffffffffffffffffffffffffffffffffffff16815260200190815260200160002060006101000a81549060ff0219169055600e60003373ffffffffffffffffffffffffffffffffffffffff1673ffffffffffffffffffffffffffffffffffffffff16815260200190815260200160002060006101000a81549060ff0219169055600f60003373ffffffffffffffffffffffffffffffffffffffff1673ffffffffffffffffffffffffffffffffffffffff16815260200190815260200160002060006101000a81549060ff0219169055601360003373ffffffffffffffffffffffffffffffffffffffff1673ffffffffffffffffffffffffffffffffffffffff1681526020019081526020016000206000610e0f9190613365565b565b600060056000838152602001908152602001600020600101549050919050565b60116020528160005260406000206020528060005260406000206000915091509054906101000a900460ff1681565b601260003373ffffffffffffffffffffffffffffffffffffffff1673ffffffffffffffffffffffffffffffffffffffff16815260200190815260200160002060009054906101000a900460ff1615610eed576040517f08c379a0000000000000000000000000000000000000000000000000000000008152600401610ee49061426e565b60405180910390fd5b600c543414610f31576040517f08c379a0000000000000000000000000000000000000000000000000000000008152600401610f28906142da565b60405180910390fd5b601260003373ffffffffffffffffffffffffffffffffffffffff1673ffffffffffffffffffffffffffffffffffffffff16815260200190815260200160002060009054906101000a900460ff1615610fbe576040517f08c379a0000000000000000000000000000000000000000000000000000000008152600401610fb590614346565b60405180910390fd5b6001601260003373ffffffffffffffffffffffffffffffffffffffff1673ffffffffffffffffffffffffffffffffffffffff16815260200190815260200160002060006101000a81548160ff02191690831515021790555080601360003373ffffffffffffffffffffffffffffffffffffffff1673ffffffffffffffffffffffffffffffffffffffff16815260200190815260200160002090816110629190614572565b506001600d60003373ffffffffffffffffffffffffffffffffffffffff1673ffffffffffffffffffffffffffffffffffffffff16815260200190815260200160002060006101000a81548160ff0219169083151502179055506001600e60003373ffffffffffffffffffffffffffffffffffffffff1673ffffffffffffffffffffffffffffffffffffffff16815260200190815260200160002060006101000a81548160ff0219169083151502179055506001600f60003373ffffffffffffffffffffffffffffffffffffffff1673ffffffffffffffffffffffffffffffffffffffff16815260200190815260200160002060006101000a81548160ff02191690831515021790555050565b6000611178611fb2565b90508073ffffffffffffffffffffffffffffffffffffffff168673ffffffffffffffffffffffffffffffffffffffff16141580156111bd57506111bb868261194d565b155b156112015780866040517fe237d9220000000000000000000000000000000000000000000000000000000081526004016111f8929190614653565b60405180910390fd5b61120e8686868686611fba565b505050505050565b61121f82610e11565b61122881611d68565b61123283836120b2565b50505050565b611240611fb2565b73ffffffffffffffffffffffffffffffffffffffff168173ffffffffffffffffffffffffffffffffffffffff16146112a4576040517f6697b23200000000000000000000000000000000000000000000000000000000815260040160405180910390fd5b6112ae82826121a4565b505050565b606081518351146112ff57815183516040517f5b0599910000000000000000000000000000000000000000000000000000000081526004016112f692919061467c565b60405180910390fd5b6000835167ffffffffffffffff81111561131c5761131b6134ef565b5b60405190808252806020026020018201604052801561134a5781602001602082028036833780820191505090505b50905060005b84518110156113b75761138761136f828761229790919063ffffffff16565b61138283876122ab90919063ffffffff16565b610a78565b82828151811061139a576113996146a5565b5b602002602001018181525050806113b090614703565b9050611350565b508091505092915050565b6000806113ce836116f0565b119050919050565b60095481565b7f9f2df0fed2c77648de5860a4cc508cd0818c85b8b8a1ab4ceeef8d981c8956a661140681611d68565b611412600854846122bf565b61143082600854600160405180602001604052806000815250612324565b6008600081548092919061144390614703565b9190505550505050565b611455611fb2565b73ffffffffffffffffffffffffffffffffffffffff168373ffffffffffffffffffffffffffffffffffffffff161415801561149e575061149c83611497611fb2565b61194d565b155b156114e9576114ab611fb2565b836040517fe237d9220000000000000000000000000000000000000000000000000000000081526004016114e0929190614653565b60405180910390fd5b6114f48383836123bd565b505050565b7f9f2df0fed2c77648de5860a4cc508cd0818c85b8b8a1ab4ceeef8d981c8956a661152381611d68565b61152f85858585612324565b5050505050565b7fa49807205ce4d355092ef5a8a18f56e8913cf4a201fbe287825b095693c2177581565b600b5481565b60106020528060005260406000206000915090505481565b7f7804d923f43a17d325d77e781528e0793b2edd9890ab45fc64efd7b4b427744c81565b601360205280600052604060002060009150905080546115bb90614395565b80601f01602080910402602001604051908101604052809291908181526020018280546115e790614395565b80156116345780601f1061160957610100808354040283529160200191611634565b820191906000526020600020905b81548152906001019060200180831161161757829003601f168201915b505050505081565b60006005600084815260200190815260200160002060000160008373ffffffffffffffffffffffffffffffffffffffff1673ffffffffffffffffffffffffffffffffffffffff16815260200190815260200160002060009054906101000a900460ff16905092915050565b6000801b81565b6116c06116b9611fb2565b8383612451565b5050565b600d6020528060005260406000206000915054906101000a900460ff1681565b600a5481565b600c5481565b600060036000838152602001908152602001600020549050919050565b7f9f2df0fed2c77648de5860a4cc508cd0818c85b8b8a1ab4ceeef8d981c8956a681565b61173a82610e11565b61174381611d68565b61174d83836121a4565b50505050565b60085481565b600d60008273ffffffffffffffffffffffffffffffffffffffff1673ffffffffffffffffffffffffffffffffffffffff16815260200190815260200160002060009054906101000a900460ff166117e5576040517f08c379a00000000000000000000000000000000000000000000000000000000081526004016117dc90614202565b60405180910390fd5b6117f181600c54611efa565b50600d60008273ffffffffffffffffffffffffffffffffffffffff1673ffffffffffffffffffffffffffffffffffffffff16815260200190815260200160002060006101000a81549060ff0219169055600e60008273ffffffffffffffffffffffffffffffffffffffff1673ffffffffffffffffffffffffffffffffffffffff16815260200190815260200160002060006101000a81549060ff0219169055600f60008273ffffffffffffffffffffffffffffffffffffffff1673ffffffffffffffffffffffffffffffffffffffff16815260200190815260200160002060006101000a81549060ff0219169055601360008273ffffffffffffffffffffffffffffffffffffffff1673ffffffffffffffffffffffffffffffffffffffff168152602001908152602001600020600061192a9190613365565b50565b600f6020528060005260406000206000915054906101000a900460ff1681565b6000600160008473ffffffffffffffffffffffffffffffffffffffff1673ffffffffffffffffffffffffffffffffffffffff16815260200190815260200160002060008373ffffffffffffffffffffffffffffffffffffffff1673ffffffffffffffffffffffffffffffffffffffff16815260200190815260200160002060009054906101000a900460ff16905092915050565b600e6020528060005260406000206000915054906101000a900460ff1681565b6000611a0b611fb2565b90508073ffffffffffffffffffffffffffffffffffffffff168673ffffffffffffffffffffffffffffffffffffffff1614158015611a505750611a4e868261194d565b155b15611a945780866040517fe237d922000000000000000000000000000000000000000000000000000000008152600401611a8b929190614653565b60405180910390fd5b611aa186868686866125c1565b505050505050565b600d60008373ffffffffffffffffffffffffffffffffffffffff1673ffffffffffffffffffffffffffffffffffffffff16815260200190815260200160002060009054906101000a900460ff16611b35576040517f08c379a0000000000000000000000000000000000000000000000000000000008152600401611b2c90614797565b60405180910390fd5b611b4182600954611efa565b506000600d60008473ffffffffffffffffffffffffffffffffffffffff1673ffffffffffffffffffffffffffffffffffffffff16815260200190815260200160002060006101000a81548160ff021916908315150217905550601260008373ffffffffffffffffffffffffffffffffffffffff1673ffffffffffffffffffffffffffffffffffffffff16815260200190815260200160002060006101000a81549060ff0219169055601360008373ffffffffffffffffffffffffffffffffffffffff1673ffffffffffffffffffffffffffffffffffffffff1681526020019081526020016000206000611c349190613365565b611c3e81836113dc565b5050565b611c4a611fb2565b73ffffffffffffffffffffffffffffffffffffffff168373ffffffffffffffffffffffffffffffffffffffff1614158015611c935750611c9183611c8c611fb2565b61194d565b155b15611cde57611ca0611fb2565b836040517fe237d922000000000000000000000000000000000000000000000000000000008152600401611cd5929190614653565b60405180910390fd5b611ce98383836126cc565b505050565b60007f7965db0b000000000000000000000000000000000000000000000000000000007bffffffffffffffffffffffffffffffffffffffffffffffffffffffff1916827bffffffffffffffffffffffffffffffffffffffffffffffffffffffff19161480611d615750611d6082612773565b5b9050919050565b611d7981611d74611fb2565b612855565b50565b8060029081611d8b9190614572565b5050565b60606000600760008481526020019081526020016000208054611db190614395565b80601f0160208091040260200160405190810160405280929190818152602001828054611ddd90614395565b8015611e2a5780601f10611dff57610100808354040283529160200191611e2a565b820191906000526020600020905b815481529060010190602001808311611e0d57829003601f168201915b505050505090506000815111611e4857611e43836128a6565b611e6c565b600681604051602001611e5c929190614876565b6040516020818303038152906040525b915050919050565b600073ffffffffffffffffffffffffffffffffffffffff168473ffffffffffffffffffffffffffffffffffffffff1603611ee65760006040517f57f447ce000000000000000000000000000000000000000000000000000000008152600401611edd919061489a565b60405180910390fd5b611ef460008585858561293a565b50505050565b6000808373ffffffffffffffffffffffffffffffffffffffff1683604051611f21906148e6565b60006040518083038185875af1925050503d8060008114611f5e576040519150601f19603f3d011682016040523d82523d6000602084013e611f63565b606091505b5050905080611fa7576040517f08c379a0000000000000000000000000000000000000000000000000000000008152600401611f9e90614947565b60405180910390fd5b600191505092915050565b600033905090565b600073ffffffffffffffffffffffffffffffffffffffff168473ffffffffffffffffffffffffffffffffffffffff160361202c5760006040517f57f447ce000000000000000000000000000000000000000000000000000000008152600401612023919061489a565b60405180910390fd5b600073ffffffffffffffffffffffffffffffffffffffff168573ffffffffffffffffffffffffffffffffffffffff160361209e5760006040517f01a83514000000000000000000000000000000000000000000000000000000008152600401612095919061489a565b60405180910390fd5b6120ab858585858561293a565b5050505050565b60006120be838361163c565b6121995760016005600085815260200190815260200160002060000160008473ffffffffffffffffffffffffffffffffffffffff1673ffffffffffffffffffffffffffffffffffffffff16815260200190815260200160002060006101000a81548160ff021916908315150217905550612136611fb2565b73ffffffffffffffffffffffffffffffffffffffff168273ffffffffffffffffffffffffffffffffffffffff16847f2f8788117e7eff1d82e926ec794901d17c78024a50270940304540a733656f0d60405160405180910390a46001905061219e565b600090505b92915050565b60006121b0838361163c565b1561228c5760006005600085815260200190815260200160002060000160008473ffffffffffffffffffffffffffffffffffffffff1673ffffffffffffffffffffffffffffffffffffffff16815260200190815260200160002060006101000a81548160ff021916908315150217905550612229611fb2565b73ffffffffffffffffffffffffffffffffffffffff168273ffffffffffffffffffffffffffffffffffffffff16847ff6391f5c32d9c69d2a47ea670b442974b53935d1edc7fd64eb21e047a839171b60405160405180910390a460019050612291565b600090505b92915050565b600060208202602084010151905092915050565b600060208202602084010151905092915050565b806007600084815260200190815260200160002090816122df9190614572565b50817f6bb7ff708619ba0610cba295a58592e0451dee2622938c8755667688daf3529b61230b84610b76565b60405161231891906137ca565b60405180910390a25050565b600073ffffffffffffffffffffffffffffffffffffffff168473ffffffffffffffffffffffffffffffffffffffff16036123965760006040517f57f447ce00000000000000000000000000000000000000000000000000000000815260040161238d919061489a565b60405180910390fd5b6000806123a385856129ec565b915091506123b560008784848761293a565b505050505050565b600073ffffffffffffffffffffffffffffffffffffffff168373ffffffffffffffffffffffffffffffffffffffff160361242f5760006040517f01a83514000000000000000000000000000000000000000000000000000000008152600401612426919061489a565b60405180910390fd5b61244c83600084846040518060200160405280600081525061293a565b505050565b600073ffffffffffffffffffffffffffffffffffffffff168273ffffffffffffffffffffffffffffffffffffffff16036124c35760006040517fced3e1000000000000000000000000000000000000000000000000000000000081526004016124ba919061489a565b60405180910390fd5b80600160008573ffffffffffffffffffffffffffffffffffffffff1673ffffffffffffffffffffffffffffffffffffffff16815260200190815260200160002060008473ffffffffffffffffffffffffffffffffffffffff1673ffffffffffffffffffffffffffffffffffffffff16815260200190815260200160002060006101000a81548160ff0219169083151502179055508173ffffffffffffffffffffffffffffffffffffffff168373ffffffffffffffffffffffffffffffffffffffff167f17307eab39ab6107e8899845ad3d59bd9653f200f220920489ca2b5937696c31836040516125b49190613703565b60405180910390a3505050565b600073ffffffffffffffffffffffffffffffffffffffff168473ffffffffffffffffffffffffffffffffffffffff16036126335760006040517f57f447ce00000000000000000000000000000000000000000000000000000000815260040161262a919061489a565b60405180910390fd5b600073ffffffffffffffffffffffffffffffffffffffff168573ffffffffffffffffffffffffffffffffffffffff16036126a55760006040517f01a8351400000000000000000000000000000000000000000000000000000000815260040161269c919061489a565b60405180910390fd5b6000806126b285856129ec565b915091506126c3878784848761293a565b50505050505050565b600073ffffffffffffffffffffffffffffffffffffffff168373ffffffffffffffffffffffffffffffffffffffff160361273e5760006040517f01a83514000000000000000000000000000000000000000000000000000000008152600401612735919061489a565b60405180910390fd5b60008061274b84846129ec565b9150915061276c85600084846040518060200160405280600081525061293a565b5050505050565b60007fd9b67a26000000000000000000000000000000000000000000000000000000007bffffffffffffffffffffffffffffffffffffffffffffffffffffffff1916827bffffffffffffffffffffffffffffffffffffffffffffffffffffffff1916148061283e57507f0e89341c000000000000000000000000000000000000000000000000000000007bffffffffffffffffffffffffffffffffffffffffffffffffffffffff1916827bffffffffffffffffffffffffffffffffffffffffffffffffffffffff1916145b8061284e575061284d82612a1c565b5b9050919050565b61285f828261163c565b6128a25780826040517fe2517d3f000000000000000000000000000000000000000000000000000000008152600401612899929190614967565b60405180910390fd5b5050565b6060600280546128b590614395565b80601f01602080910402602001604051908101604052809291908181526020018280546128e190614395565b801561292e5780601f106129035761010080835404028352916020019161292e565b820191906000526020600020905b81548152906001019060200180831161291157829003601f168201915b50505050509050919050565b61294685858585612a86565b600073ffffffffffffffffffffffffffffffffffffffff168473ffffffffffffffffffffffffffffffffffffffff16146129e5576000612984611fb2565b905060018451036129d45760006129a56000866122ab90919063ffffffff16565b905060006129bd6000866122ab90919063ffffffff16565b90506129cd838989858589612a98565b50506129e3565b6129e2818787878787612c4c565b5b505b5050505050565b60608060405191506001825283602083015260408201905060018152826020820152604081016040529250929050565b60007f01ffc9a7000000000000000000000000000000000000000000000000000000007bffffffffffffffffffffffffffffffffffffffffffffffffffffffff1916827bffffffffffffffffffffffffffffffffffffffffffffffffffffffff1916149050919050565b612a9284848484612e00565b50505050565b60008473ffffffffffffffffffffffffffffffffffffffff163b1115612c44578373ffffffffffffffffffffffffffffffffffffffff1663f23a6e6187878686866040518663ffffffff1660e01b8152600401612af99594939291906149e5565b6020604051808303816000875af1925050508015612b3557506040513d601f19601f82011682018060405250810190612b329190614a54565b60015b612bb9573d8060008114612b65576040519150601f19603f3d011682016040523d82523d6000602084013e612b6a565b606091505b506000815103612bb157846040517f57f447ce000000000000000000000000000000000000000000000000000000008152600401612ba8919061489a565b60405180910390fd5b805181602001fd5b63f23a6e6160e01b7bffffffffffffffffffffffffffffffffffffffffffffffffffffffff1916817bffffffffffffffffffffffffffffffffffffffffffffffffffffffff191614612c4257846040517f57f447ce000000000000000000000000000000000000000000000000000000008152600401612c39919061489a565b60405180910390fd5b505b505050505050565b60008473ffffffffffffffffffffffffffffffffffffffff163b1115612df8578373ffffffffffffffffffffffffffffffffffffffff1663bc197c8187878686866040518663ffffffff1660e01b8152600401612cad959493929190614a81565b6020604051808303816000875af1925050508015612ce957506040513d601f19601f82011682018060405250810190612ce69190614a54565b60015b612d6d573d8060008114612d19576040519150601f19603f3d011682016040523d82523d6000602084013e612d1e565b606091505b506000815103612d6557846040517f57f447ce000000000000000000000000000000000000000000000000000000008152600401612d5c919061489a565b60405180910390fd5b805181602001fd5b63bc197c8160e01b7bffffffffffffffffffffffffffffffffffffffffffffffffffffffff1916817bffffffffffffffffffffffffffffffffffffffffffffffffffffffff191614612df657846040517f57f447ce000000000000000000000000000000000000000000000000000000008152600401612ded919061489a565b60405180910390fd5b505b505050505050565b612e0c84848484612fb7565b600073ffffffffffffffffffffffffffffffffffffffff168473ffffffffffffffffffffffffffffffffffffffff1603612eec576000805b8351811015612ed0576000838281518110612e6257612e616146a5565b5b602002602001015190508060036000878581518110612e8457612e836146a5565b5b602002602001015181526020019081526020016000206000828254612ea99190614ae9565b925050819055508083612ebc9190614ae9565b92505080612ec990614703565b9050612e44565b508060046000828254612ee39190614ae9565b92505081905550505b600073ffffffffffffffffffffffffffffffffffffffff168373ffffffffffffffffffffffffffffffffffffffff1603612fb1576000805b8351811015612f9e576000838281518110612f4257612f416146a5565b5b602002602001015190508060036000878581518110612f6457612f636146a5565b5b602002602001015181526020019081526020016000206000828254039250508190555080830192505080612f9790614703565b9050612f24565b5080600460008282540392505081905550505b50505050565b805182511461300157815181516040517f5b059991000000000000000000000000000000000000000000000000000000008152600401612ff892919061467c565b60405180910390fd5b600061300b611fb2565b905060005b835181101561322057600061302e82866122ab90919063ffffffff16565b9050600061304583866122ab90919063ffffffff16565b9050600073ffffffffffffffffffffffffffffffffffffffff168873ffffffffffffffffffffffffffffffffffffffff161461317257600080600084815260200190815260200160002060008a73ffffffffffffffffffffffffffffffffffffffff1673ffffffffffffffffffffffffffffffffffffffff1681526020019081526020016000205490508181101561311a57888183856040517f03dee4c50000000000000000000000000000000000000000000000000000000081526004016131119493929190614b1d565b60405180910390fd5b81810360008085815260200190815260200160002060008b73ffffffffffffffffffffffffffffffffffffffff1673ffffffffffffffffffffffffffffffffffffffff16815260200190815260200160002081905550505b600073ffffffffffffffffffffffffffffffffffffffff168773ffffffffffffffffffffffffffffffffffffffff161461320d578060008084815260200190815260200160002060008973ffffffffffffffffffffffffffffffffffffffff1673ffffffffffffffffffffffffffffffffffffffff16815260200190815260200160002060008282546132059190614ae9565b925050819055505b50508061321990614703565b9050613010565b5060018351036132df5760006132406000856122ab90919063ffffffff16565b905060006132586000856122ab90919063ffffffff16565b90508573ffffffffffffffffffffffffffffffffffffffff168773ffffffffffffffffffffffffffffffffffffffff168473ffffffffffffffffffffffffffffffffffffffff167fc3d58168c5ae7397731d063d5bbf3d657854427343f4c083240f7aacaa2d0f6285856040516132d092919061467c565b60405180910390a4505061335e565b8373ffffffffffffffffffffffffffffffffffffffff168573ffffffffffffffffffffffffffffffffffffffff168273ffffffffffffffffffffffffffffffffffffffff167f4a39dc06d4c0dbc64b70af90fd698a233a518aa5d07e595d983b8c0526c8f7fb8686604051613355929190614b62565b60405180910390a45b5050505050565b50805461337190614395565b6000825580601f1061338357506133a2565b601f0160209004906000526020600020908101906133a191906133a5565b5b50565b5b808211156133be5760008160009055506001016133a6565b5090565b6000604051905090565b600080fd5b600080fd5b600073ffffffffffffffffffffffffffffffffffffffff82169050919050565b6000613401826133d6565b9050919050565b613411816133f6565b811461341c57600080fd5b50565b60008135905061342e81613408565b92915050565b6000819050919050565b61344781613434565b811461345257600080fd5b50565b6000813590506134648161343e565b92915050565b60008060408385031215613481576134806133cc565b5b600061348f8582860161341f565b92505060206134a085828601613455565b9150509250929050565b6134b381613434565b82525050565b60006020820190506134ce60008301846134aa565b92915050565b600080fd5b600080fd5b6000601f19601f8301169050919050565b7f4e487b7100000000000000000000000000000000000000000000000000000000600052604160045260246000fd5b613527826134de565b810181811067ffffffffffffffff82111715613546576135456134ef565b5b80604052505050565b60006135596133c2565b9050613565828261351e565b919050565b600067ffffffffffffffff821115613585576135846134ef565b5b61358e826134de565b9050602081019050919050565b82818337600083830152505050565b60006135bd6135b88461356a565b61354f565b9050828152602081018484840111156135d9576135d86134d9565b5b6135e484828561359b565b509392505050565b600082601f830112613601576136006134d4565b5b81356136118482602086016135aa565b91505092915050565b6000602082840312156136305761362f6133cc565b5b600082013567ffffffffffffffff81111561364e5761364d6133d1565b5b61365a848285016135ec565b91505092915050565b60007fffffffff0000000000000000000000000000000000000000000000000000000082169050919050565b61369881613663565b81146136a357600080fd5b50565b6000813590506136b58161368f565b92915050565b6000602082840312156136d1576136d06133cc565b5b60006136df848285016136a6565b91505092915050565b60008115159050919050565b6136fd816136e8565b82525050565b600060208201905061371860008301846136f4565b92915050565b600060208284031215613734576137336133cc565b5b600061374284828501613455565b91505092915050565b600081519050919050565b600082825260208201905092915050565b60005b8381101561378557808201518184015260208101905061376a565b60008484015250505050565b600061379c8261374b565b6137a68185613756565b93506137b6818560208601613767565b6137bf816134de565b840191505092915050565b600060208201905081810360008301526137e48184613791565b905092915050565b600060208284031215613802576138016133cc565b5b60006138108482850161341f565b91505092915050565b600067ffffffffffffffff821115613834576138336134ef565b5b602082029050602081019050919050565b600080fd5b600061385d61385884613819565b61354f565b905080838252602082019050602084028301858111156138805761387f613845565b5b835b818110156138a957806138958882613455565b845260208401935050602081019050613882565b5050509392505050565b600082601f8301126138c8576138c76134d4565b5b81356138d884826020860161384a565b91505092915050565b600067ffffffffffffffff8211156138fc576138fb6134ef565b5b613905826134de565b9050602081019050919050565b6000613925613920846138e1565b61354f565b905082815260208101848484011115613941576139406134d9565b5b61394c84828561359b565b509392505050565b600082601f830112613969576139686134d4565b5b8135613979848260208601613912565b91505092915050565b6000806000806080858703121561399c5761399b6133cc565b5b60006139aa8782880161341f565b945050602085013567ffffffffffffffff8111156139cb576139ca6133d1565b5b6139d7878288016138b3565b935050604085013567ffffffffffffffff8111156139f8576139f76133d1565b5b613a04878288016138b3565b925050606085013567ffffffffffffffff811115613a2557613a246133d1565b5b613a3187828801613954565b91505092959194509250565b6000819050919050565b613a5081613a3d565b8114613a5b57600080fd5b50565b600081359050613a6d81613a47565b92915050565b600060208284031215613a8957613a886133cc565b5b6000613a9784828501613a5e565b91505092915050565b613aa981613a3d565b82525050565b6000602082019050613ac46000830184613aa0565b92915050565b60008060408385031215613ae157613ae06133cc565b5b6000613aef85828601613455565b9250506020613b008582860161341f565b9150509250929050565b600080600080600060a08688031215613b2657613b256133cc565b5b6000613b348882890161341f565b9550506020613b458882890161341f565b945050604086013567ffffffffffffffff811115613b6657613b656133d1565b5b613b72888289016138b3565b935050606086013567ffffffffffffffff811115613b9357613b926133d1565b5b613b9f888289016138b3565b925050608086013567ffffffffffffffff811115613bc057613bbf6133d1565b5b613bcc88828901613954565b9150509295509295909350565b60008060408385031215613bf057613bef6133cc565b5b6000613bfe85828601613a5e565b9250506020613c0f8582860161341f565b9150509250929050565b600067ffffffffffffffff821115613c3457613c336134ef565b5b602082029050602081019050919050565b6000613c58613c5384613c19565b61354f565b90508083825260208201905060208402830185811115613c7b57613c7a613845565b5b835b81811015613ca45780613c90888261341f565b845260208401935050602081019050613c7d565b5050509392505050565b600082601f830112613cc357613cc26134d4565b5b8135613cd3848260208601613c45565b91505092915050565b60008060408385031215613cf357613cf26133cc565b5b600083013567ffffffffffffffff811115613d1157613d106133d1565b5b613d1d85828601613cae565b925050602083013567ffffffffffffffff811115613d3e57613d3d6133d1565b5b613d4a858286016138b3565b9150509250929050565b600081519050919050565b600082825260208201905092915050565b6000819050602082019050919050565b613d8981613434565b82525050565b6000613d9b8383613d80565b60208301905092915050565b6000602082019050919050565b6000613dbf82613d54565b613dc98185613d5f565b9350613dd483613d70565b8060005b83811015613e05578151613dec8882613d8f565b9750613df783613da7565b925050600181019050613dd8565b5085935050505092915050565b60006020820190508181036000830152613e2c8184613db4565b905092915050565b60008060408385031215613e4b57613e4a6133cc565b5b600083013567ffffffffffffffff811115613e6957613e686133d1565b5b613e75858286016135ec565b9250506020613e868582860161341f565b9150509250929050565b600080600060608486031215613ea957613ea86133cc565b5b6000613eb78682870161341f565b935050602084013567ffffffffffffffff811115613ed857613ed76133d1565b5b613ee4868287016138b3565b925050604084013567ffffffffffffffff811115613f0557613f046133d1565b5b613f11868287016138b3565b9150509250925092565b60008060008060808587031215613f3557613f346133cc565b5b6000613f438782880161341f565b9450506020613f5487828801613455565b9350506040613f6587828801613455565b925050606085013567ffffffffffffffff811115613f8657613f856133d1565b5b613f9287828801613954565b91505092959194509250565b613fa7816136e8565b8114613fb257600080fd5b50565b600081359050613fc481613f9e565b92915050565b60008060408385031215613fe157613fe06133cc565b5b6000613fef8582860161341f565b925050602061400085828601613fb5565b9150509250929050565b60008060408385031215614021576140206133cc565b5b600061402f8582860161341f565b92505060206140408582860161341f565b9150509250929050565b600080600080600060a08688031215614066576140656133cc565b5b60006140748882890161341f565b95505060206140858882890161341f565b945050604061409688828901613455565b93505060606140a788828901613455565b925050608086013567ffffffffffffffff8111156140c8576140c76133d1565b5b6140d488828901613954565b9150509295509295909350565b600080604083850312156140f8576140f76133cc565b5b60006141068582860161341f565b925050602083013567ffffffffffffffff811115614127576141266133d1565b5b614133858286016135ec565b9150509250929050565b600080600060608486031215614156576141556133cc565b5b60006141648682870161341f565b935050602061417586828701613455565b925050604061418686828701613455565b9150509250925092565b7f4e6f20707572636861736520686173206265656e206d61646520746f2063616e60008201527f63656c0000000000000000000000000000000000000000000000000000000000602082015250565b60006141ec602383613756565b91506141f782614190565b604082019050919050565b6000602082019050818103600083015261421b816141df565b9050919050565b7f596f7520616c726561647920706179656420666f7220612062696b652e000000600082015250565b6000614258601d83613756565b915061426382614222565b602082019050919050565b600060208201905081810360008301526142878161424b565b9050919050565b7f54686520707269636520726563656976656420697320696e76616c6964000000600082015250565b60006142c4601d83613756565b91506142cf8261428e565b602082019050919050565b600060208201905081810360008301526142f3816142b7565b9050919050565b7f416c7265616479206d61646520616e206f726465720000000000000000000000600082015250565b6000614330601583613756565b915061433b826142fa565b602082019050919050565b6000602082019050818103600083015261435f81614323565b9050919050565b7f4e487b7100000000000000000000000000000000000000000000000000000000600052602260045260246000fd5b600060028204905060018216806143ad57607f821691505b6020821081036143c0576143bf614366565b5b50919050565b60008190508160005260206000209050919050565b60006020601f8301049050919050565b600082821b905092915050565b6000600883026144287fffffffffffffffffffffffffffffffffffffffffffffffffffffffffffffffff826143eb565b61443286836143eb565b95508019841693508086168417925050509392505050565b6000819050919050565b600061446f61446a61446584613434565b61444a565b613434565b9050919050565b6000819050919050565b61448983614454565b61449d61449582614476565b8484546143f8565b825550505050565b600090565b6144b26144a5565b6144bd818484614480565b505050565b5b818110156144e1576144d66000826144aa565b6001810190506144c3565b5050565b601f821115614526576144f7816143c6565b614500846143db565b8101602085101561450f578190505b61452361451b856143db565b8301826144c2565b50505b505050565b600082821c905092915050565b60006145496000198460080261452b565b1980831691505092915050565b60006145628383614538565b9150826002028217905092915050565b61457b8261374b565b67ffffffffffffffff811115614594576145936134ef565b5b61459e8254614395565b6145a98282856144e5565b600060209050601f8311600181146145dc57600084156145ca578287015190505b6145d48582614556565b86555061463c565b601f1984166145ea866143c6565b60005b82811015614612578489015182556001820191506020850194506020810190506145ed565b8683101561462f578489015161462b601f891682614538565b8355505b6001600288020188555050505b505050505050565b61464d816133f6565b82525050565b60006040820190506146686000830185614644565b6146756020830184614644565b9392505050565b600060408201905061469160008301856134aa565b61469e60208301846134aa565b9392505050565b7f4e487b7100000000000000000000000000000000000000000000000000000000600052603260045260246000fd5b7f4e487b7100000000000000000000000000000000000000000000000000000000600052601160045260246000fd5b600061470e82613434565b91507fffffffffffffffffffffffffffffffffffffffffffffffffffffffffffffffff82036147405761473f6146d4565b5b600182019050919050565b7f4e6f2076616c6964205061796d656e7400000000000000000000000000000000600082015250565b6000614781601083613756565b915061478c8261474b565b602082019050919050565b600060208201905081810360008301526147b081614774565b9050919050565b600081905092915050565b600081546147cf81614395565b6147d981866147b7565b945060018216600081146147f457600181146148095761483c565b60ff198316865281151582028601935061483c565b614812856143c6565b60005b8381101561483457815481890152600182019150602081019050614815565b838801955050505b50505092915050565b60006148508261374b565b61485a81856147b7565b935061486a818560208601613767565b80840191505092915050565b600061488282856147c2565b915061488e8284614845565b91508190509392505050565b60006020820190506148af6000830184614644565b92915050565b600081905092915050565b50565b60006148d06000836148b5565b91506148db826148c0565b600082019050919050565b60006148f1826148c3565b9150819050919050565b7f5061796d656e74206661696c6564000000000000000000000000000000000000600082015250565b6000614931600e83613756565b915061493c826148fb565b602082019050919050565b6000602082019050818103600083015261496081614924565b9050919050565b600060408201905061497c6000830185614644565b6149896020830184613aa0565b9392505050565b600081519050919050565b600082825260208201905092915050565b60006149b782614990565b6149c1818561499b565b93506149d1818560208601613767565b6149da816134de565b840191505092915050565b600060a0820190506149fa6000830188614644565b614a076020830187614644565b614a1460408301866134aa565b614a2160608301856134aa565b8181036080830152614a3381846149ac565b90509695505050505050565b600081519050614a4e8161368f565b92915050565b600060208284031215614a6a57614a696133cc565b5b6000614a7884828501614a3f565b91505092915050565b600060a082019050614a966000830188614644565b614aa36020830187614644565b8181036040830152614ab58186613db4565b90508181036060830152614ac98185613db4565b90508181036080830152614add81846149ac565b90509695505050505050565b6000614af482613434565b9150614aff83613434565b9250828201905080821115614b1757614b166146d4565b5b92915050565b6000608082019050614b326000830187614644565b614b3f60208301866134aa565b614b4c60408301856134aa565b614b5960608301846134aa565b95945050505050565b60006040820190508181036000830152614b7c8185613db4565b90508181036020830152614b908184613db4565b9050939250505056fea2646970667358221220fa96e8e4b535478234511b8a3ca7dafe2864c3df7741b4c51bd24f9cf3574b2464736f6c63430008140033",
  "linkReferences": {},
  "deployedLinkReferences": {}
}