{
  "_format": "hh-sol-artifact-1",
  "contractName": "DPPContract",
  "sourceName": "contracts/DPP.sol",
  "abi": [
    {
      "inputs": [
        {
          "internalType": "address",
          "name": "defaultAdmin",
          "type": "address"
        },
        {
          "internalType": "address",
          "name": "minter",
          "type": "address"
        }
      ],
      "stateMutability": "nonpayable",
      "type": "constructor"
    },
    {
      "inputs": [],
      "name": "AccessControlBadConfirmation",
      "type": "error"
    },
    {
      "inputs": [
        {
          "internalType": "address",
          "name": "account",
          "type": "address"
        },
        {
          "internalType": "bytes32",
          "name": "neededRole",
          "type": "bytes32"
        }
      ],
      "name": "AccessControlUnauthorizedAccount",
      "type": "error"
    },
    {
      "inputs": [
        {
          "internalType": "address",
          "name": "sender",
          "type": "address"
        },
        {
          "internalType": "uint256",
          "name": "balance",
          "type": "uint256"
        },
        {
          "internalType": "uint256",
          "name": "needed",
          "type": "uint256"
        },
        {
          "internalType": "uint256",
          "name": "tokenId",
          "type": "uint256"
        }
      ],
      "name": "ERC1155InsufficientBalance",
      "type": "error"
    },
    {
      "inputs": [
        {
          "internalType": "address",
          "name": "approver",
          "type": "address"
        }
      ],
      "name": "ERC1155InvalidApprover",
      "type": "error"
    },
    {
      "inputs": [
        {
          "internalType": "uint256",
          "name": "idsLength",
          "type": "uint256"
        },
        {
          "internalType": "uint256",
          "name": "valuesLength",
          "type": "uint256"
        }
      ],
      "name": "ERC1155InvalidArrayLength",
      "type": "error"
    },
    {
      "inputs": [
        {
          "internalType": "address",
          "name": "operator",
          "type": "address"
        }
      ],
      "name": "ERC1155InvalidOperator",
      "type": "error"
    },
    {
      "inputs": [
        {
          "internalType": "address",
          "name": "receiver",
          "type": "address"
        }
      ],
      "name": "ERC1155InvalidReceiver",
      "type": "error"
    },
    {
      "inputs": [
        {
          "internalType": "address",
          "name": "sender",
          "type": "address"
        }
      ],
      "name": "ERC1155InvalidSender",
      "type": "error"
    },
    {
      "inputs": [
        {
          "internalType": "address",
          "name": "operator",
          "type": "address"
        },
        {
          "internalType": "address",
          "name": "owner",
          "type": "address"
        }
      ],
      "name": "ERC1155MissingApprovalForAll",
      "type": "error"
    },
    {
      "anonymous": false,
      "inputs": [
        {
          "indexed": true,
          "internalType": "address",
          "name": "account",
          "type": "address"
        },
        {
          "indexed": true,
          "internalType": "address",
          "name": "operator",
          "type": "address"
        },
        {
          "indexed": false,
          "internalType": "bool",
          "name": "approved",
          "type": "bool"
        }
      ],
      "name": "ApprovalForAll",
      "type": "event"
    },
    {
      "anonymous": false,
      "inputs": [
        {
          "indexed": true,
          "internalType": "bytes32",
          "name": "role",
          "type": "bytes32"
        },
        {
          "indexed": true,
          "internalType": "bytes32",
          "name": "previousAdminRole",
          "type": "bytes32"
        },
        {
          "indexed": true,
          "internalType": "bytes32",
          "name": "newAdminRole",
          "type": "bytes32"
        }
      ],
      "name": "RoleAdminChanged",
      "type": "event"
    },
    {
      "anonymous": false,
      "inputs": [
        {
          "indexed": true,
          "internalType": "bytes32",
          "name": "role",
          "type": "bytes32"
        },
        {
          "indexed": true,
          "internalType": "address",
          "name": "account",
          "type": "address"
        },
        {
          "indexed": true,
          "internalType": "address",
          "name": "sender",
          "type": "address"
        }
      ],
      "name": "RoleGranted",
      "type": "event"
    },
    {
      "anonymous": false,
      "inputs": [
        {
          "indexed": true,
          "internalType": "bytes32",
          "name": "role",
          "type": "bytes32"
        },
        {
          "indexed": true,
          "internalType": "address",
          "name": "account",
          "type": "address"
        },
        {
          "indexed": true,
          "internalType": "address",
          "name": "sender",
          "type": "address"
        }
      ],
      "name": "RoleRevoked",
      "type": "event"
    },
    {
      "anonymous": false,
      "inputs": [
        {
          "indexed": true,
          "internalType": "address",
          "name": "operator",
          "type": "address"
        },
        {
          "indexed": true,
          "internalType": "address",
          "name": "from",
          "type": "address"
        },
        {
          "indexed": true,
          "internalType": "address",
          "name": "to",
          "type": "address"
        },
        {
          "indexed": false,
          "internalType": "uint256[]",
          "name": "ids",
          "type": "uint256[]"
        },
        {
          "indexed": false,
          "internalType": "uint256[]",
          "name": "values",
          "type": "uint256[]"
        }
      ],
      "name": "TransferBatch",
      "type": "event"
    },
    {
      "anonymous": false,
      "inputs": [
        {
          "indexed": true,
          "internalType": "address",
          "name": "operator",
          "type": "address"
        },
        {
          "indexed": true,
          "internalType": "address",
          "name": "from",
          "type": "address"
        },
        {
          "indexed": true,
          "internalType": "address",
          "name": "to",
          "type": "address"
        },
        {
          "indexed": false,
          "internalType": "uint256",
          "name": "id",
          "type": "uint256"
        },
        {
          "indexed": false,
          "internalType": "uint256",
          "name": "value",
          "type": "uint256"
        }
      ],
      "name": "TransferSingle",
      "type": "event"
    },
    {
      "anonymous": false,
      "inputs": [
        {
          "indexed": false,
          "internalType": "string",
          "name": "value",
          "type": "string"
        },
        {
          "indexed": true,
          "internalType": "uint256",
          "name": "id",
          "type": "uint256"
        }
      ],
      "name": "URI",
      "type": "event"
    },
    {
      "inputs": [],
      "name": "ADMIN_ROLE",
      "outputs": [
        {
          "internalType": "bytes32",
          "name": "",
          "type": "bytes32"
        }
      ],
      "stateMutability": "view",
      "type": "function"
    },
    {
      "inputs": [],
      "name": "DEFAULT_ADMIN_ROLE",
      "outputs": [
        {
          "internalType": "bytes32",
          "name": "",
          "type": "bytes32"
        }
      ],
      "stateMutability": "view",
      "type": "function"
    },
    {
      "inputs": [],
      "name": "MINTER_ROLE",
      "outputs": [
        {
          "internalType": "bytes32",
          "name": "",
          "type": "bytes32"
        }
      ],
      "stateMutability": "view",
      "type": "function"
    },
    {
      "inputs": [],
      "name": "URI_SETTER_ROLE",
      "outputs": [
        {
          "internalType": "bytes32",
          "name": "",
          "type": "bytes32"
        }
      ],
      "stateMutability": "view",
      "type": "function"
    },
    {
      "inputs": [
        {
          "internalType": "address",
          "name": "_user",
          "type": "address"
        },
        {
          "internalType": "string",
          "name": "_dpp_ipfs_link",
          "type": "string"
        }
      ],
      "name": "approvePurchase",
      "outputs": [],
      "stateMutability": "nonpayable",
      "type": "function"
    },
    {
      "inputs": [
        {
          "internalType": "address",
          "name": "account",
          "type": "address"
        },
        {
          "internalType": "uint256",
          "name": "id",
          "type": "uint256"
        }
      ],
      "name": "balanceOf",
      "outputs": [
        {
          "internalType": "uint256",
          "name": "",
          "type": "uint256"
        }
      ],
      "stateMutability": "view",
      "type": "function"
    },
    {
      "inputs": [
        {
          "internalType": "address[]",
          "name": "accounts",
          "type": "address[]"
        },
        {
          "internalType": "uint256[]",
          "name": "ids",
          "type": "uint256[]"
        }
      ],
      "name": "balanceOfBatch",
      "outputs": [
        {
          "internalType": "uint256[]",
          "name": "",
          "type": "uint256[]"
        }
      ],
      "stateMutability": "view",
      "type": "function"
    },
    {
      "inputs": [],
      "name": "bikePrice",
      "outputs": [
        {
          "internalType": "uint256",
          "name": "",
          "type": "uint256"
        }
      ],
      "stateMutability": "view",
      "type": "function"
    },
    {
      "inputs": [
        {
          "internalType": "address",
          "name": "account",
          "type": "address"
        },
        {
          "internalType": "uint256",
          "name": "id",
          "type": "uint256"
        },
        {
          "internalType": "uint256",
          "name": "value",
          "type": "uint256"
        }
      ],
      "name": "burn",
      "outputs": [],
      "stateMutability": "nonpayable",
      "type": "function"
    },
    {
      "inputs": [
        {
          "internalType": "address",
          "name": "account",
          "type": "address"
        },
        {
          "internalType": "uint256[]",
          "name": "ids",
          "type": "uint256[]"
        },
        {
          "internalType": "uint256[]",
          "name": "values",
          "type": "uint256[]"
        }
      ],
      "name": "burnBatch",
      "outputs": [],
      "stateMutability": "nonpayable",
      "type": "function"
    },
    {
      "inputs": [
        {
          "internalType": "address",
          "name": "_user",
          "type": "address"
        }
      ],
      "name": "cancelPurchase_Distributor",
      "outputs": [],
      "stateMutability": "nonpayable",
      "type": "function"
    },
    {
      "inputs": [],
      "name": "cancelPurchase_User",
      "outputs": [],
      "stateMutability": "nonpayable",
      "type": "function"
    },
    {
      "inputs": [],
      "name": "depositFrame",
      "outputs": [
        {
          "internalType": "uint256",
          "name": "",
          "type": "uint256"
        }
      ],
      "stateMutability": "view",
      "type": "function"
    },
    {
      "inputs": [],
      "name": "depositWheel",
      "outputs": [
        {
          "internalType": "uint256",
          "name": "",
          "type": "uint256"
        }
      ],
      "stateMutability": "view",
      "type": "function"
    },
    {
      "inputs": [
        {
          "internalType": "uint256",
          "name": "id",
          "type": "uint256"
        }
      ],
      "name": "exists",
      "outputs": [
        {
          "internalType": "bool",
          "name": "",
          "type": "bool"
        }
      ],
      "stateMutability": "view",
      "type": "function"
    },
    {
      "inputs": [
        {
          "internalType": "bytes32",
          "name": "role",
          "type": "bytes32"
        }
      ],
      "name": "getRoleAdmin",
      "outputs": [
        {
          "internalType": "bytes32",
          "name": "",
          "type": "bytes32"
        }
      ],
      "stateMutability": "view",
      "type": "function"
    },
    {
      "inputs": [
        {
          "internalType": "bytes32",
          "name": "role",
          "type": "bytes32"
        },
        {
          "internalType": "address",
          "name": "account",
          "type": "address"
        }
      ],
      "name": "grantRole",
      "outputs": [],
      "stateMutability": "nonpayable",
      "type": "function"
    },
    {
      "inputs": [
        {
          "internalType": "bytes32",
          "name": "role",
          "type": "bytes32"
        },
        {
          "internalType": "address",
          "name": "account",
          "type": "address"
        }
      ],
      "name": "hasRole",
      "outputs": [
        {
          "internalType": "bool",
          "name": "",
          "type": "bool"
        }
      ],
      "stateMutability": "view",
      "type": "function"
    },
    {
      "inputs": [
        {
          "internalType": "address",
          "name": "account",
          "type": "address"
        },
        {
          "internalType": "address",
          "name": "operator",
          "type": "address"
        }
      ],
      "name": "isApprovedForAll",
      "outputs": [
        {
          "internalType": "bool",
          "name": "",
          "type": "bool"
        }
      ],
      "stateMutability": "view",
      "type": "function"
    },
    {
      "inputs": [
        {
          "internalType": "string",
          "name": "_ipfsLink",
          "type": "string"
        }
      ],
      "name": "makePurchase",
      "outputs": [],
      "stateMutability": "payable",
      "type": "function"
    },
    {
      "inputs": [
        {
          "internalType": "string",
          "name": "_ipfsLink",
          "type": "string"
        }
      ],
      "name": "makePurchaseDel",
      "outputs": [],
      "stateMutability": "nonpayable",
      "type": "function"
    },
    {
      "inputs": [
        {
          "internalType": "address",
          "name": "account",
          "type": "address"
        },
        {
          "internalType": "uint256",
          "name": "id",
          "type": "uint256"
        },
        {
          "internalType": "uint256",
          "name": "amount",
          "type": "uint256"
        },
        {
          "internalType": "bytes",
          "name": "data",
          "type": "bytes"
        }
      ],
      "name": "mint",
      "outputs": [],
      "stateMutability": "nonpayable",
      "type": "function"
    },
    {
      "inputs": [
        {
          "internalType": "address",
          "name": "to",
          "type": "address"
        },
        {
          "internalType": "uint256[]",
          "name": "ids",
          "type": "uint256[]"
        },
        {
          "internalType": "uint256[]",
          "name": "amounts",
          "type": "uint256[]"
        },
        {
          "internalType": "bytes",
          "name": "data",
          "type": "bytes"
        }
      ],
      "name": "mintBatch",
      "outputs": [],
      "stateMutability": "nonpayable",
      "type": "function"
    },
    {
      "inputs": [
        {
          "internalType": "address",
          "name": "",
          "type": "address"
        }
      ],
      "name": "orderMade",
      "outputs": [
        {
          "internalType": "bool",
          "name": "",
          "type": "bool"
        }
      ],
      "stateMutability": "view",
      "type": "function"
    },
    {
      "inputs": [
        {
          "internalType": "bytes32",
          "name": "role",
          "type": "bytes32"
        },
        {
          "internalType": "address",
          "name": "callerConfirmation",
          "type": "address"
        }
      ],
      "name": "renounceRole",
      "outputs": [],
      "stateMutability": "nonpayable",
      "type": "function"
    },
    {
      "inputs": [
        {
          "internalType": "bytes32",
          "name": "role",
          "type": "bytes32"
        },
        {
          "internalType": "address",
          "name": "account",
          "type": "address"
        }
      ],
      "name": "revokeRole",
      "outputs": [],
      "stateMutability": "nonpayable",
      "type": "function"
    },
    {
      "inputs": [
        {
          "internalType": "address",
          "name": "from",
          "type": "address"
        },
        {
          "internalType": "address",
          "name": "to",
          "type": "address"
        },
        {
          "internalType": "uint256[]",
          "name": "ids",
          "type": "uint256[]"
        },
        {
          "internalType": "uint256[]",
          "name": "values",
          "type": "uint256[]"
        },
        {
          "internalType": "bytes",
          "name": "data",
          "type": "bytes"
        }
      ],
      "name": "safeBatchTransferFrom",
      "outputs": [],
      "stateMutability": "nonpayable",
      "type": "function"
    },
    {
      "inputs": [
        {
          "internalType": "address",
          "name": "from",
          "type": "address"
        },
        {
          "internalType": "address",
          "name": "to",
          "type": "address"
        },
        {
          "internalType": "uint256",
          "name": "id",
          "type": "uint256"
        },
        {
          "internalType": "uint256",
          "name": "value",
          "type": "uint256"
        },
        {
          "internalType": "bytes",
          "name": "data",
          "type": "bytes"
        }
      ],
      "name": "safeTransferFrom",
      "outputs": [],
      "stateMutability": "nonpayable",
      "type": "function"
    },
    {
      "inputs": [
        {
          "internalType": "address",
          "name": "operator",
          "type": "address"
        },
        {
          "internalType": "bool",
          "name": "approved",
          "type": "bool"
        }
      ],
      "name": "setApprovalForAll",
      "outputs": [],
      "stateMutability": "nonpayable",
      "type": "function"
    },
    {
      "inputs": [
        {
          "internalType": "string",
          "name": "newuri",
          "type": "string"
        }
      ],
      "name": "setURI",
      "outputs": [],
      "stateMutability": "nonpayable",
      "type": "function"
    },
    {
      "inputs": [
        {
          "internalType": "bytes4",
          "name": "interfaceId",
          "type": "bytes4"
        }
      ],
      "name": "supportsInterface",
      "outputs": [
        {
          "internalType": "bool",
          "name": "",
          "type": "bool"
        }
      ],
      "stateMutability": "view",
      "type": "function"
    },
    {
      "inputs": [],
      "name": "token_id",
      "outputs": [
        {
          "internalType": "uint256",
          "name": "",
          "type": "uint256"
        }
      ],
      "stateMutability": "view",
      "type": "function"
    },
    {
      "inputs": [],
      "name": "totalPrice",
      "outputs": [
        {
          "internalType": "uint256",
          "name": "",
          "type": "uint256"
        }
      ],
      "stateMutability": "view",
      "type": "function"
    },
    {
      "inputs": [],
      "name": "totalSupply",
      "outputs": [
        {
          "internalType": "uint256",
          "name": "",
          "type": "uint256"
        }
      ],
      "stateMutability": "view",
      "type": "function"
    },
    {
      "inputs": [
        {
          "internalType": "uint256",
          "name": "id",
          "type": "uint256"
        }
      ],
      "name": "totalSupply",
      "outputs": [
        {
          "internalType": "uint256",
          "name": "",
          "type": "uint256"
        }
      ],
      "stateMutability": "view",
      "type": "function"
    },
    {
      "inputs": [
        {
          "internalType": "uint256",
          "name": "tokenId",
          "type": "uint256"
        }
      ],
      "name": "uri",
      "outputs": [
        {
          "internalType": "string",
          "name": "",
          "type": "string"
        }
      ],
      "stateMutability": "view",
      "type": "function"
    },
    {
      "inputs": [
        {
          "internalType": "string",
          "name": "tokenURI",
          "type": "string"
        },
        {
          "internalType": "address",
          "name": "_to",
          "type": "address"
        }
      ],
      "name": "uri_set_mint",
      "outputs": [],
      "stateMutability": "nonpayable",
      "type": "function"
    },
    {
      "inputs": [
        {
          "internalType": "address",
          "name": "",
          "type": "address"
        }
      ],
      "name": "userOrderIPFS",
      "outputs": [
        {
          "internalType": "string",
          "name": "",
          "type": "string"
        }
      ],
      "stateMutability": "view",
      "type": "function"
    }
  ],
  "bytecode": "0x60806040526040518060200160405280600081525060069081620000249190620004ed565b5060016008556103e860095560c8600a55610190600b55610708600c553480156200004e57600080fd5b5060405162004d7c38038062004d7c83398181016040528101906200007491906200063e565b604051806020016040528060008152506200009581620000e760201b60201c565b50620000ab6000801b83620000fc60201b60201c565b50620000de7f9f2df0fed2c77648de5860a4cc508cd0818c85b8b8a1ab4ceeef8d981c8956a682620000fc60201b60201c565b50505062000685565b8060029081620000f89190620004ed565b5050565b60006200011083836200020060201b60201c565b620001f55760016005600085815260200190815260200160002060000160008473ffffffffffffffffffffffffffffffffffffffff1673ffffffffffffffffffffffffffffffffffffffff16815260200190815260200160002060006101000a81548160ff021916908315150217905550620001916200026b60201b60201c565b73ffffffffffffffffffffffffffffffffffffffff168273ffffffffffffffffffffffffffffffffffffffff16847f2f8788117e7eff1d82e926ec794901d17c78024a50270940304540a733656f0d60405160405180910390a460019050620001fa565b600090505b92915050565b60006005600084815260200190815260200160002060000160008373ffffffffffffffffffffffffffffffffffffffff1673ffffffffffffffffffffffffffffffffffffffff16815260200190815260200160002060009054906101000a900460ff16905092915050565b600033905090565b600081519050919050565b7f4e487b7100000000000000000000000000000000000000000000000000000000600052604160045260246000fd5b7f4e487b7100000000000000000000000000000000000000000000000000000000600052602260045260246000fd5b60006002820490506001821680620002f557607f821691505b6020821081036200030b576200030a620002ad565b5b50919050565b60008190508160005260206000209050919050565b60006020601f8301049050919050565b600082821b905092915050565b600060088302620003757fffffffffffffffffffffffffffffffffffffffffffffffffffffffffffffffff8262000336565b62000381868362000336565b95508019841693508086168417925050509392505050565b6000819050919050565b6000819050919050565b6000620003ce620003c8620003c28462000399565b620003a3565b62000399565b9050919050565b6000819050919050565b620003ea83620003ad565b62000402620003f982620003d5565b84845462000343565b825550505050565b600090565b620004196200040a565b62000426818484620003df565b505050565b5b818110156200044e57620004426000826200040f565b6001810190506200042c565b5050565b601f8211156200049d57620004678162000311565b620004728462000326565b8101602085101562000482578190505b6200049a620004918562000326565b8301826200042b565b50505b505050565b600082821c905092915050565b6000620004c260001984600802620004a2565b1980831691505092915050565b6000620004dd8383620004af565b9150826002028217905092915050565b620004f88262000273565b67ffffffffffffffff8111156200051457620005136200027e565b5b620005208254620002dc565b6200052d82828562000452565b600060209050601f83116001811462000565576000841562000550578287015190505b6200055c8582620004cf565b865550620005cc565b601f198416620005758662000311565b60005b828110156200059f5784890151825560018201915060208501945060208101905062000578565b86831015620005bf5784890151620005bb601f891682620004af565b8355505b6001600288020188555050505b505050505050565b600080fd5b600073ffffffffffffffffffffffffffffffffffffffff82169050919050565b60006200060682620005d9565b9050919050565b6200061881620005f9565b81146200062457600080fd5b50565b60008151905062000638816200060d565b92915050565b60008060408385031215620006585762000657620005d4565b5b6000620006688582860162000627565b92505060206200067b8582860162000627565b9150509250929050565b6146e780620006956000396000f3fe6080604052600436106102245760003560e01c8063731133e911610123578063ab0d92dd116100ab578063e1e6743b1161006f578063e1e6743b1461082f578063e985e9c514610858578063f242432a14610895578063f4f68bfd146108be578063f5298aca146108e757610224565b8063ab0d92dd14610748578063bd85b03914610773578063d5391393146107b0578063d547741f146107db578063d56681311461080457610224565b80638caa1fda116100f25780638caa1fda1461064f57806391d148541461068c578063a217fddf146106c9578063a22cb465146106f4578063a86a58af1461071d57610224565b8063731133e9146105a557806375b238fc146105ce5780637aced3fe146105f95780637f3457101461062457610224565b8063248a9ca3116101b15780634e1273f4116101755780634e1273f4146104ae5780634f558e79146104eb57806353f0e8461461052857806366edd1ee146105535780636b20c4541461057c57610224565b8063248a9ca3146103da5780632b9c305b146104175780632eb2c2d6146104335780632f2ff15d1461045c57806336568abe1461048557610224565b80630e89341c116101f85780630e89341c146102f557806311ecc8b51461033257806318160ddd1461036f5780631f7fdffa1461039a57806323ca74aa146103c357610224565b8062fdd58e1461022957806301c705e01461026657806301ffc9a71461028f57806302fe5305146102cc575b600080fd5b34801561023557600080fd5b50610250600480360381019061024b91906130c0565b610910565b60405161025d919061310f565b60405180910390f35b34801561027257600080fd5b5061028d60048036038101906102889190613270565b61096a565b005b34801561029b57600080fd5b506102b660048036038101906102b19190613311565b6109c5565b6040516102c39190613359565b60405180910390f35b3480156102d857600080fd5b506102f360048036038101906102ee9190613270565b6109d7565b005b34801561030157600080fd5b5061031c60048036038101906103179190613374565b610a0e565b6040516103299190613420565b60405180910390f35b34801561033e57600080fd5b5061035960048036038101906103549190613442565b610a20565b6040516103669190613359565b60405180910390f35b34801561037b57600080fd5b50610384610a40565b604051610391919061310f565b60405180910390f35b3480156103a657600080fd5b506103c160048036038101906103bc91906135d8565b610a4a565b005b3480156103cf57600080fd5b506103d8610a87565b005b3480156103e657600080fd5b5061040160048036038101906103fc91906136c9565b610c5a565b60405161040e9190613705565b60405180910390f35b610431600480360381019061042c9190613270565b610c7a565b005b34801561043f57600080fd5b5061045a60048036038101906104559190613720565b610ea3565b005b34801561046857600080fd5b50610483600480360381019061047e91906137ef565b610f4b565b005b34801561049157600080fd5b506104ac60048036038101906104a791906137ef565b610f6d565b005b3480156104ba57600080fd5b506104d560048036038101906104d091906138f2565b610fe8565b6040516104e29190613a28565b60405180910390f35b3480156104f757600080fd5b50610512600480360381019061050d9190613374565b6110f1565b60405161051f9190613359565b60405180910390f35b34801561053457600080fd5b5061053d611105565b60405161054a919061310f565b60405180910390f35b34801561055f57600080fd5b5061057a60048036038101906105759190613a4a565b61110b565b005b34801561058857600080fd5b506105a3600480360381019061059e9190613aa6565b61117c565b005b3480156105b157600080fd5b506105cc60048036038101906105c79190613b31565b611228565b005b3480156105da57600080fd5b506105e3611265565b6040516105f09190613705565b60405180910390f35b34801561060557600080fd5b5061060e611289565b60405161061b919061310f565b60405180910390f35b34801561063057600080fd5b5061063961128f565b6040516106469190613705565b60405180910390f35b34801561065b57600080fd5b5061067660048036038101906106719190613442565b6112b3565b6040516106839190613420565b60405180910390f35b34801561069857600080fd5b506106b360048036038101906106ae91906137ef565b611353565b6040516106c09190613359565b60405180910390f35b3480156106d557600080fd5b506106de6113be565b6040516106eb9190613705565b60405180910390f35b34801561070057600080fd5b5061071b60048036038101906107169190613be0565b6113c5565b005b34801561072957600080fd5b506107326113db565b60405161073f919061310f565b60405180910390f35b34801561075457600080fd5b5061075d6113e1565b60405161076a919061310f565b60405180910390f35b34801561077f57600080fd5b5061079a60048036038101906107959190613374565b6113e7565b6040516107a7919061310f565b60405180910390f35b3480156107bc57600080fd5b506107c5611404565b6040516107d29190613705565b60405180910390f35b3480156107e757600080fd5b5061080260048036038101906107fd91906137ef565b611428565b005b34801561081057600080fd5b5061081961144a565b604051610826919061310f565b60405180910390f35b34801561083b57600080fd5b5061085660048036038101906108519190613442565b611450565b005b34801561086457600080fd5b5061087f600480360381019061087a9190613c20565b611624565b60405161088c9190613359565b60405180910390f35b3480156108a157600080fd5b506108bc60048036038101906108b79190613c60565b6116b8565b005b3480156108ca57600080fd5b506108e560048036038101906108e09190613cf7565b611760565b005b3480156108f357600080fd5b5061090e60048036038101906109099190613d53565b6118aa565b005b600080600083815260200190815260200160002060008473ffffffffffffffffffffffffffffffffffffffff1673ffffffffffffffffffffffffffffffffffffffff16815260200190815260200160002054905092915050565b6000601260003373ffffffffffffffffffffffffffffffffffffffff1673ffffffffffffffffffffffffffffffffffffffff16815260200190815260200160002060006101000a81548160ff02191690831515021790555050565b60006109d082611956565b9050919050565b7f7804d923f43a17d325d77e781528e0793b2edd9890ab45fc64efd7b4b427744c610a01816119d0565b610a0a826119e4565b5050565b6060610a19826119f7565b9050919050565b60126020528060005260406000206000915054906101000a900460ff1681565b6000600454905090565b7f9f2df0fed2c77648de5860a4cc508cd0818c85b8b8a1ab4ceeef8d981c8956a6610a74816119d0565b610a8085858585611adc565b5050505050565b600d60003373ffffffffffffffffffffffffffffffffffffffff1673ffffffffffffffffffffffffffffffffffffffff16815260200190815260200160002060009054906101000a900460ff16610b13576040517f08c379a0000000000000000000000000000000000000000000000000000000008152600401610b0a90613df2565b60405180910390fd5b610b1f33600c54611b62565b50600d60003373ffffffffffffffffffffffffffffffffffffffff1673ffffffffffffffffffffffffffffffffffffffff16815260200190815260200160002060006101000a81549060ff0219169055600e60003373ffffffffffffffffffffffffffffffffffffffff1673ffffffffffffffffffffffffffffffffffffffff16815260200190815260200160002060006101000a81549060ff0219169055600f60003373ffffffffffffffffffffffffffffffffffffffff1673ffffffffffffffffffffffffffffffffffffffff16815260200190815260200160002060006101000a81549060ff0219169055601360003373ffffffffffffffffffffffffffffffffffffffff1673ffffffffffffffffffffffffffffffffffffffff1681526020019081526020016000206000610c589190612fbb565b565b600060056000838152602001908152602001600020600101549050919050565b601260003373ffffffffffffffffffffffffffffffffffffffff1673ffffffffffffffffffffffffffffffffffffffff16815260200190815260200160002060009054906101000a900460ff1615610d07576040517f08c379a0000000000000000000000000000000000000000000000000000000008152600401610cfe90613e5e565b60405180910390fd5b600c543414610d4b576040517f08c379a0000000000000000000000000000000000000000000000000000000008152600401610d4290613eca565b60405180910390fd5b80601360003373ffffffffffffffffffffffffffffffffffffffff1673ffffffffffffffffffffffffffffffffffffffff1681526020019081526020016000209081610d9791906140f6565b506001600d60003373ffffffffffffffffffffffffffffffffffffffff1673ffffffffffffffffffffffffffffffffffffffff16815260200190815260200160002060006101000a81548160ff0219169083151502179055506001600e60003373ffffffffffffffffffffffffffffffffffffffff1673ffffffffffffffffffffffffffffffffffffffff16815260200190815260200160002060006101000a81548160ff0219169083151502179055506001600f60003373ffffffffffffffffffffffffffffffffffffffff1673ffffffffffffffffffffffffffffffffffffffff16815260200190815260200160002060006101000a81548160ff02191690831515021790555050565b6000610ead611c1a565b90508073ffffffffffffffffffffffffffffffffffffffff168673ffffffffffffffffffffffffffffffffffffffff1614158015610ef25750610ef08682611624565b155b15610f365780866040517fe237d922000000000000000000000000000000000000000000000000000000008152600401610f2d9291906141d7565b60405180910390fd5b610f438686868686611c22565b505050505050565b610f5482610c5a565b610f5d816119d0565b610f678383611d1a565b50505050565b610f75611c1a565b73ffffffffffffffffffffffffffffffffffffffff168173ffffffffffffffffffffffffffffffffffffffff1614610fd9576040517f6697b23200000000000000000000000000000000000000000000000000000000815260040160405180910390fd5b610fe38282611e0c565b505050565b6060815183511461103457815183516040517f5b05999100000000000000000000000000000000000000000000000000000000815260040161102b929190614200565b60405180910390fd5b6000835167ffffffffffffffff81111561105157611050613145565b5b60405190808252806020026020018201604052801561107f5781602001602082028036833780820191505090505b50905060005b84518110156110e6576110bc6110a48287611eff90919063ffffffff16565b6110b78387611f1390919063ffffffff16565b610910565b8282815181106110cf576110ce614229565b5b602002602001018181525050806001019050611085565b508091505092915050565b6000806110fd836113e7565b119050919050565b60095481565b7f9f2df0fed2c77648de5860a4cc508cd0818c85b8b8a1ab4ceeef8d981c8956a6611135816119d0565b61114160085484611f27565b61115f82600854600160405180602001604052806000815250611f8c565b6008600081548092919061117290614287565b9190505550505050565b611184611c1a565b73ffffffffffffffffffffffffffffffffffffffff168373ffffffffffffffffffffffffffffffffffffffff16141580156111cd57506111cb836111c6611c1a565b611624565b155b15611218576111da611c1a565b836040517fe237d92200000000000000000000000000000000000000000000000000000000815260040161120f9291906141d7565b60405180910390fd5b611223838383612025565b505050565b7f9f2df0fed2c77648de5860a4cc508cd0818c85b8b8a1ab4ceeef8d981c8956a6611252816119d0565b61125e85858585611f8c565b5050505050565b7fa49807205ce4d355092ef5a8a18f56e8913cf4a201fbe287825b095693c2177581565b600b5481565b7f7804d923f43a17d325d77e781528e0793b2edd9890ab45fc64efd7b4b427744c81565b601360205280600052604060002060009150905080546112d290613f19565b80601f01602080910402602001604051908101604052809291908181526020018280546112fe90613f19565b801561134b5780601f106113205761010080835404028352916020019161134b565b820191906000526020600020905b81548152906001019060200180831161132e57829003601f168201915b505050505081565b60006005600084815260200190815260200160002060000160008373ffffffffffffffffffffffffffffffffffffffff1673ffffffffffffffffffffffffffffffffffffffff16815260200190815260200160002060009054906101000a900460ff16905092915050565b6000801b81565b6113d76113d0611c1a565b83836120b9565b5050565b600a5481565b600c5481565b600060036000838152602001908152602001600020549050919050565b7f9f2df0fed2c77648de5860a4cc508cd0818c85b8b8a1ab4ceeef8d981c8956a681565b61143182610c5a565b61143a816119d0565b6114448383611e0c565b50505050565b60085481565b600d60008273ffffffffffffffffffffffffffffffffffffffff1673ffffffffffffffffffffffffffffffffffffffff16815260200190815260200160002060009054906101000a900460ff166114dc576040517f08c379a00000000000000000000000000000000000000000000000000000000081526004016114d390613df2565b60405180910390fd5b6114e881600c54611b62565b50600d60008273ffffffffffffffffffffffffffffffffffffffff1673ffffffffffffffffffffffffffffffffffffffff16815260200190815260200160002060006101000a81549060ff0219169055600e60008273ffffffffffffffffffffffffffffffffffffffff1673ffffffffffffffffffffffffffffffffffffffff16815260200190815260200160002060006101000a81549060ff0219169055600f60008273ffffffffffffffffffffffffffffffffffffffff1673ffffffffffffffffffffffffffffffffffffffff16815260200190815260200160002060006101000a81549060ff0219169055601360008273ffffffffffffffffffffffffffffffffffffffff1673ffffffffffffffffffffffffffffffffffffffff16815260200190815260200160002060006116219190612fbb565b50565b6000600160008473ffffffffffffffffffffffffffffffffffffffff1673ffffffffffffffffffffffffffffffffffffffff16815260200190815260200160002060008373ffffffffffffffffffffffffffffffffffffffff1673ffffffffffffffffffffffffffffffffffffffff16815260200190815260200160002060009054906101000a900460ff16905092915050565b60006116c2611c1a565b90508073ffffffffffffffffffffffffffffffffffffffff168673ffffffffffffffffffffffffffffffffffffffff161415801561170757506117058682611624565b155b1561174b5780866040517fe237d9220000000000000000000000000000000000000000000000000000000081526004016117429291906141d7565b60405180910390fd5b6117588686868686612229565b505050505050565b600d60008373ffffffffffffffffffffffffffffffffffffffff1673ffffffffffffffffffffffffffffffffffffffff16815260200190815260200160002060009054906101000a900460ff166117ec576040517f08c379a00000000000000000000000000000000000000000000000000000000081526004016117e390613df2565b60405180910390fd5b6117f882600954611b62565b506000600d60008473ffffffffffffffffffffffffffffffffffffffff1673ffffffffffffffffffffffffffffffffffffffff16815260200190815260200160002060006101000a81548160ff021916908315150217905550601360008373ffffffffffffffffffffffffffffffffffffffff1673ffffffffffffffffffffffffffffffffffffffff168152602001908152602001600020600061189c9190612fbb565b6118a6818361110b565b5050565b6118b2611c1a565b73ffffffffffffffffffffffffffffffffffffffff168373ffffffffffffffffffffffffffffffffffffffff16141580156118fb57506118f9836118f4611c1a565b611624565b155b1561194657611908611c1a565b836040517fe237d92200000000000000000000000000000000000000000000000000000000815260040161193d9291906141d7565b60405180910390fd5b611951838383612334565b505050565b60007f7965db0b000000000000000000000000000000000000000000000000000000007bffffffffffffffffffffffffffffffffffffffffffffffffffffffff1916827bffffffffffffffffffffffffffffffffffffffffffffffffffffffff191614806119c957506119c8826123db565b5b9050919050565b6119e1816119dc611c1a565b6124bd565b50565b80600290816119f391906140f6565b5050565b60606000600760008481526020019081526020016000208054611a1990613f19565b80601f0160208091040260200160405190810160405280929190818152602001828054611a4590613f19565b8015611a925780601f10611a6757610100808354040283529160200191611a92565b820191906000526020600020905b815481529060010190602001808311611a7557829003601f168201915b505050505090506000815111611ab057611aab8361250e565b611ad4565b600681604051602001611ac492919061438e565b6040516020818303038152906040525b915050919050565b600073ffffffffffffffffffffffffffffffffffffffff168473ffffffffffffffffffffffffffffffffffffffff1603611b4e5760006040517f57f447ce000000000000000000000000000000000000000000000000000000008152600401611b4591906143b2565b60405180910390fd5b611b5c6000858585856125a2565b50505050565b6000808373ffffffffffffffffffffffffffffffffffffffff1683604051611b89906143fe565b60006040518083038185875af1925050503d8060008114611bc6576040519150601f19603f3d011682016040523d82523d6000602084013e611bcb565b606091505b5050905080611c0f576040517f08c379a0000000000000000000000000000000000000000000000000000000008152600401611c069061445f565b60405180910390fd5b600191505092915050565b600033905090565b600073ffffffffffffffffffffffffffffffffffffffff168473ffffffffffffffffffffffffffffffffffffffff1603611c945760006040517f57f447ce000000000000000000000000000000000000000000000000000000008152600401611c8b91906143b2565b60405180910390fd5b600073ffffffffffffffffffffffffffffffffffffffff168573ffffffffffffffffffffffffffffffffffffffff1603611d065760006040517f01a83514000000000000000000000000000000000000000000000000000000008152600401611cfd91906143b2565b60405180910390fd5b611d1385858585856125a2565b5050505050565b6000611d268383611353565b611e015760016005600085815260200190815260200160002060000160008473ffffffffffffffffffffffffffffffffffffffff1673ffffffffffffffffffffffffffffffffffffffff16815260200190815260200160002060006101000a81548160ff021916908315150217905550611d9e611c1a565b73ffffffffffffffffffffffffffffffffffffffff168273ffffffffffffffffffffffffffffffffffffffff16847f2f8788117e7eff1d82e926ec794901d17c78024a50270940304540a733656f0d60405160405180910390a460019050611e06565b600090505b92915050565b6000611e188383611353565b15611ef45760006005600085815260200190815260200160002060000160008473ffffffffffffffffffffffffffffffffffffffff1673ffffffffffffffffffffffffffffffffffffffff16815260200190815260200160002060006101000a81548160ff021916908315150217905550611e91611c1a565b73ffffffffffffffffffffffffffffffffffffffff168273ffffffffffffffffffffffffffffffffffffffff16847ff6391f5c32d9c69d2a47ea670b442974b53935d1edc7fd64eb21e047a839171b60405160405180910390a460019050611ef9565b600090505b92915050565b600060208202602084010151905092915050565b600060208202602084010151905092915050565b80600760008481526020019081526020016000209081611f4791906140f6565b50817f6bb7ff708619ba0610cba295a58592e0451dee2622938c8755667688daf3529b611f7384610a0e565b604051611f809190613420565b60405180910390a25050565b600073ffffffffffffffffffffffffffffffffffffffff168473ffffffffffffffffffffffffffffffffffffffff1603611ffe5760006040517f57f447ce000000000000000000000000000000000000000000000000000000008152600401611ff591906143b2565b60405180910390fd5b60008061200b8585612654565b9150915061201d6000878484876125a2565b505050505050565b600073ffffffffffffffffffffffffffffffffffffffff168373ffffffffffffffffffffffffffffffffffffffff16036120975760006040517f01a8351400000000000000000000000000000000000000000000000000000000815260040161208e91906143b2565b60405180910390fd5b6120b48360008484604051806020016040528060008152506125a2565b505050565b600073ffffffffffffffffffffffffffffffffffffffff168273ffffffffffffffffffffffffffffffffffffffff160361212b5760006040517fced3e10000000000000000000000000000000000000000000000000000000000815260040161212291906143b2565b60405180910390fd5b80600160008573ffffffffffffffffffffffffffffffffffffffff1673ffffffffffffffffffffffffffffffffffffffff16815260200190815260200160002060008473ffffffffffffffffffffffffffffffffffffffff1673ffffffffffffffffffffffffffffffffffffffff16815260200190815260200160002060006101000a81548160ff0219169083151502179055508173ffffffffffffffffffffffffffffffffffffffff168373ffffffffffffffffffffffffffffffffffffffff167f17307eab39ab6107e8899845ad3d59bd9653f200f220920489ca2b5937696c318360405161221c9190613359565b60405180910390a3505050565b600073ffffffffffffffffffffffffffffffffffffffff168473ffffffffffffffffffffffffffffffffffffffff160361229b5760006040517f57f447ce00000000000000000000000000000000000000000000000000000000815260040161229291906143b2565b60405180910390fd5b600073ffffffffffffffffffffffffffffffffffffffff168573ffffffffffffffffffffffffffffffffffffffff160361230d5760006040517f01a8351400000000000000000000000000000000000000000000000000000000815260040161230491906143b2565b60405180910390fd5b60008061231a8585612654565b9150915061232b87878484876125a2565b50505050505050565b600073ffffffffffffffffffffffffffffffffffffffff168373ffffffffffffffffffffffffffffffffffffffff16036123a65760006040517f01a8351400000000000000000000000000000000000000000000000000000000815260040161239d91906143b2565b60405180910390fd5b6000806123b38484612654565b915091506123d48560008484604051806020016040528060008152506125a2565b5050505050565b60007fd9b67a26000000000000000000000000000000000000000000000000000000007bffffffffffffffffffffffffffffffffffffffffffffffffffffffff1916827bffffffffffffffffffffffffffffffffffffffffffffffffffffffff191614806124a657507f0e89341c000000000000000000000000000000000000000000000000000000007bffffffffffffffffffffffffffffffffffffffffffffffffffffffff1916827bffffffffffffffffffffffffffffffffffffffffffffffffffffffff1916145b806124b657506124b582612684565b5b9050919050565b6124c78282611353565b61250a5780826040517fe2517d3f00000000000000000000000000000000000000000000000000000000815260040161250192919061447f565b60405180910390fd5b5050565b60606002805461251d90613f19565b80601f016020809104026020016040519081016040528092919081815260200182805461254990613f19565b80156125965780601f1061256b57610100808354040283529160200191612596565b820191906000526020600020905b81548152906001019060200180831161257957829003601f168201915b50505050509050919050565b6125ae858585856126ee565b600073ffffffffffffffffffffffffffffffffffffffff168473ffffffffffffffffffffffffffffffffffffffff161461264d5760006125ec611c1a565b9050600184510361263c57600061260d600086611f1390919063ffffffff16565b90506000612625600086611f1390919063ffffffff16565b9050612635838989858589612700565b505061264b565b61264a8187878787876128b4565b5b505b5050505050565b60608060405191506001825283602083015260408201905060018152826020820152604081016040529250929050565b60007f01ffc9a7000000000000000000000000000000000000000000000000000000007bffffffffffffffffffffffffffffffffffffffffffffffffffffffff1916827bffffffffffffffffffffffffffffffffffffffffffffffffffffffff1916149050919050565b6126fa84848484612a68565b50505050565b60008473ffffffffffffffffffffffffffffffffffffffff163b11156128ac578373ffffffffffffffffffffffffffffffffffffffff1663f23a6e6187878686866040518663ffffffff1660e01b81526004016127619594939291906144fd565b6020604051808303816000875af192505050801561279d57506040513d601f19601f8201168201806040525081019061279a919061456c565b60015b612821573d80600081146127cd576040519150601f19603f3d011682016040523d82523d6000602084013e6127d2565b606091505b50600081510361281957846040517f57f447ce00000000000000000000000000000000000000000000000000000000815260040161281091906143b2565b60405180910390fd5b805181602001fd5b63f23a6e6160e01b7bffffffffffffffffffffffffffffffffffffffffffffffffffffffff1916817bffffffffffffffffffffffffffffffffffffffffffffffffffffffff1916146128aa57846040517f57f447ce0000000000000000000000000000000000000000000000000000000081526004016128a191906143b2565b60405180910390fd5b505b505050505050565b60008473ffffffffffffffffffffffffffffffffffffffff163b1115612a60578373ffffffffffffffffffffffffffffffffffffffff1663bc197c8187878686866040518663ffffffff1660e01b8152600401612915959493929190614599565b6020604051808303816000875af192505050801561295157506040513d601f19601f8201168201806040525081019061294e919061456c565b60015b6129d5573d8060008114612981576040519150601f19603f3d011682016040523d82523d6000602084013e612986565b606091505b5060008151036129cd57846040517f57f447ce0000000000000000000000000000000000000000000000000000000081526004016129c491906143b2565b60405180910390fd5b805181602001fd5b63bc197c8160e01b7bffffffffffffffffffffffffffffffffffffffffffffffffffffffff1916817bffffffffffffffffffffffffffffffffffffffffffffffffffffffff191614612a5e57846040517f57f447ce000000000000000000000000000000000000000000000000000000008152600401612a5591906143b2565b60405180910390fd5b505b505050505050565b612a7484848484612c13565b600073ffffffffffffffffffffffffffffffffffffffff168473ffffffffffffffffffffffffffffffffffffffff1603612b4e576000805b8351811015612b32576000838281518110612aca57612ac9614229565b5b602002602001015190508060036000878581518110612aec57612aeb614229565b5b602002602001015181526020019081526020016000206000828254612b119190614601565b925050819055508083612b249190614601565b925050806001019050612aac565b508060046000828254612b459190614601565b92505081905550505b600073ffffffffffffffffffffffffffffffffffffffff168373ffffffffffffffffffffffffffffffffffffffff1603612c0d576000805b8351811015612bfa576000838281518110612ba457612ba3614229565b5b602002602001015190508060036000878581518110612bc657612bc5614229565b5b6020026020010151815260200190815260200160002060008282540392505081905550808301925050806001019050612b86565b5080600460008282540392505081905550505b50505050565b8051825114612c5d57815181516040517f5b059991000000000000000000000000000000000000000000000000000000008152600401612c54929190614200565b60405180910390fd5b6000612c67611c1a565b905060005b8351811015612e76576000612c8a8286611f1390919063ffffffff16565b90506000612ca18386611f1390919063ffffffff16565b9050600073ffffffffffffffffffffffffffffffffffffffff168873ffffffffffffffffffffffffffffffffffffffff1614612dce57600080600084815260200190815260200160002060008a73ffffffffffffffffffffffffffffffffffffffff1673ffffffffffffffffffffffffffffffffffffffff16815260200190815260200160002054905081811015612d7657888183856040517f03dee4c5000000000000000000000000000000000000000000000000000000008152600401612d6d9493929190614635565b60405180910390fd5b81810360008085815260200190815260200160002060008b73ffffffffffffffffffffffffffffffffffffffff1673ffffffffffffffffffffffffffffffffffffffff16815260200190815260200160002081905550505b600073ffffffffffffffffffffffffffffffffffffffff168773ffffffffffffffffffffffffffffffffffffffff1614612e69578060008084815260200190815260200160002060008973ffffffffffffffffffffffffffffffffffffffff1673ffffffffffffffffffffffffffffffffffffffff1681526020019081526020016000206000828254612e619190614601565b925050819055505b5050806001019050612c6c565b506001835103612f35576000612e96600085611f1390919063ffffffff16565b90506000612eae600085611f1390919063ffffffff16565b90508573ffffffffffffffffffffffffffffffffffffffff168773ffffffffffffffffffffffffffffffffffffffff168473ffffffffffffffffffffffffffffffffffffffff167fc3d58168c5ae7397731d063d5bbf3d657854427343f4c083240f7aacaa2d0f628585604051612f26929190614200565b60405180910390a45050612fb4565b8373ffffffffffffffffffffffffffffffffffffffff168573ffffffffffffffffffffffffffffffffffffffff168273ffffffffffffffffffffffffffffffffffffffff167f4a39dc06d4c0dbc64b70af90fd698a233a518aa5d07e595d983b8c0526c8f7fb8686604051612fab92919061467a565b60405180910390a45b5050505050565b508054612fc790613f19565b6000825580601f10612fd95750612ff8565b601f016020900490600052602060002090810190612ff79190612ffb565b5b50565b5b80821115613014576000816000905550600101612ffc565b5090565b6000604051905090565b600080fd5b600080fd5b600073ffffffffffffffffffffffffffffffffffffffff82169050919050565b60006130578261302c565b9050919050565b6130678161304c565b811461307257600080fd5b50565b6000813590506130848161305e565b92915050565b6000819050919050565b61309d8161308a565b81146130a857600080fd5b50565b6000813590506130ba81613094565b92915050565b600080604083850312156130d7576130d6613022565b5b60006130e585828601613075565b92505060206130f6858286016130ab565b9150509250929050565b6131098161308a565b82525050565b60006020820190506131246000830184613100565b92915050565b600080fd5b600080fd5b6000601f19601f8301169050919050565b7f4e487b7100000000000000000000000000000000000000000000000000000000600052604160045260246000fd5b61317d82613134565b810181811067ffffffffffffffff8211171561319c5761319b613145565b5b80604052505050565b60006131af613018565b90506131bb8282613174565b919050565b600067ffffffffffffffff8211156131db576131da613145565b5b6131e482613134565b9050602081019050919050565b82818337600083830152505050565b600061321361320e846131c0565b6131a5565b90508281526020810184848401111561322f5761322e61312f565b5b61323a8482856131f1565b509392505050565b600082601f8301126132575761325661312a565b5b8135613267848260208601613200565b91505092915050565b60006020828403121561328657613285613022565b5b600082013567ffffffffffffffff8111156132a4576132a3613027565b5b6132b084828501613242565b91505092915050565b60007fffffffff0000000000000000000000000000000000000000000000000000000082169050919050565b6132ee816132b9565b81146132f957600080fd5b50565b60008135905061330b816132e5565b92915050565b60006020828403121561332757613326613022565b5b6000613335848285016132fc565b91505092915050565b60008115159050919050565b6133538161333e565b82525050565b600060208201905061336e600083018461334a565b92915050565b60006020828403121561338a57613389613022565b5b6000613398848285016130ab565b91505092915050565b600081519050919050565b600082825260208201905092915050565b60005b838110156133db5780820151818401526020810190506133c0565b60008484015250505050565b60006133f2826133a1565b6133fc81856133ac565b935061340c8185602086016133bd565b61341581613134565b840191505092915050565b6000602082019050818103600083015261343a81846133e7565b905092915050565b60006020828403121561345857613457613022565b5b600061346684828501613075565b91505092915050565b600067ffffffffffffffff82111561348a57613489613145565b5b602082029050602081019050919050565b600080fd5b60006134b36134ae8461346f565b6131a5565b905080838252602082019050602084028301858111156134d6576134d561349b565b5b835b818110156134ff57806134eb88826130ab565b8452602084019350506020810190506134d8565b5050509392505050565b600082601f83011261351e5761351d61312a565b5b813561352e8482602086016134a0565b91505092915050565b600067ffffffffffffffff82111561355257613551613145565b5b61355b82613134565b9050602081019050919050565b600061357b61357684613537565b6131a5565b9050828152602081018484840111156135975761359661312f565b5b6135a28482856131f1565b509392505050565b600082601f8301126135bf576135be61312a565b5b81356135cf848260208601613568565b91505092915050565b600080600080608085870312156135f2576135f1613022565b5b600061360087828801613075565b945050602085013567ffffffffffffffff81111561362157613620613027565b5b61362d87828801613509565b935050604085013567ffffffffffffffff81111561364e5761364d613027565b5b61365a87828801613509565b925050606085013567ffffffffffffffff81111561367b5761367a613027565b5b613687878288016135aa565b91505092959194509250565b6000819050919050565b6136a681613693565b81146136b157600080fd5b50565b6000813590506136c38161369d565b92915050565b6000602082840312156136df576136de613022565b5b60006136ed848285016136b4565b91505092915050565b6136ff81613693565b82525050565b600060208201905061371a60008301846136f6565b92915050565b600080600080600060a0868803121561373c5761373b613022565b5b600061374a88828901613075565b955050602061375b88828901613075565b945050604086013567ffffffffffffffff81111561377c5761377b613027565b5b61378888828901613509565b935050606086013567ffffffffffffffff8111156137a9576137a8613027565b5b6137b588828901613509565b925050608086013567ffffffffffffffff8111156137d6576137d5613027565b5b6137e2888289016135aa565b9150509295509295909350565b6000806040838503121561380657613805613022565b5b6000613814858286016136b4565b925050602061382585828601613075565b9150509250929050565b600067ffffffffffffffff82111561384a57613849613145565b5b602082029050602081019050919050565b600061386e6138698461382f565b6131a5565b905080838252602082019050602084028301858111156138915761389061349b565b5b835b818110156138ba57806138a68882613075565b845260208401935050602081019050613893565b5050509392505050565b600082601f8301126138d9576138d861312a565b5b81356138e984826020860161385b565b91505092915050565b6000806040838503121561390957613908613022565b5b600083013567ffffffffffffffff81111561392757613926613027565b5b613933858286016138c4565b925050602083013567ffffffffffffffff81111561395457613953613027565b5b61396085828601613509565b9150509250929050565b600081519050919050565b600082825260208201905092915050565b6000819050602082019050919050565b61399f8161308a565b82525050565b60006139b18383613996565b60208301905092915050565b6000602082019050919050565b60006139d58261396a565b6139df8185613975565b93506139ea83613986565b8060005b83811015613a1b578151613a0288826139a5565b9750613a0d836139bd565b9250506001810190506139ee565b5085935050505092915050565b60006020820190508181036000830152613a4281846139ca565b905092915050565b60008060408385031215613a6157613a60613022565b5b600083013567ffffffffffffffff811115613a7f57613a7e613027565b5b613a8b85828601613242565b9250506020613a9c85828601613075565b9150509250929050565b600080600060608486031215613abf57613abe613022565b5b6000613acd86828701613075565b935050602084013567ffffffffffffffff811115613aee57613aed613027565b5b613afa86828701613509565b925050604084013567ffffffffffffffff811115613b1b57613b1a613027565b5b613b2786828701613509565b9150509250925092565b60008060008060808587031215613b4b57613b4a613022565b5b6000613b5987828801613075565b9450506020613b6a878288016130ab565b9350506040613b7b878288016130ab565b925050606085013567ffffffffffffffff811115613b9c57613b9b613027565b5b613ba8878288016135aa565b91505092959194509250565b613bbd8161333e565b8114613bc857600080fd5b50565b600081359050613bda81613bb4565b92915050565b60008060408385031215613bf757613bf6613022565b5b6000613c0585828601613075565b9250506020613c1685828601613bcb565b9150509250929050565b60008060408385031215613c3757613c36613022565b5b6000613c4585828601613075565b9250506020613c5685828601613075565b9150509250929050565b600080600080600060a08688031215613c7c57613c7b613022565b5b6000613c8a88828901613075565b9550506020613c9b88828901613075565b9450506040613cac888289016130ab565b9350506060613cbd888289016130ab565b925050608086013567ffffffffffffffff811115613cde57613cdd613027565b5b613cea888289016135aa565b9150509295509295909350565b60008060408385031215613d0e57613d0d613022565b5b6000613d1c85828601613075565b925050602083013567ffffffffffffffff811115613d3d57613d3c613027565b5b613d4985828601613242565b9150509250929050565b600080600060608486031215613d6c57613d6b613022565b5b6000613d7a86828701613075565b9350506020613d8b868287016130ab565b9250506040613d9c868287016130ab565b9150509250925092565b7f4e6f2076616c6964205061796d656e7400000000000000000000000000000000600082015250565b6000613ddc6010836133ac565b9150613de782613da6565b602082019050919050565b60006020820190508181036000830152613e0b81613dcf565b9050919050565b7f596f7520616c726561647920706179656420666f7220612062696b652e000000600082015250565b6000613e48601d836133ac565b9150613e5382613e12565b602082019050919050565b60006020820190508181036000830152613e7781613e3b565b9050919050565b7f54686520707269636520726563656976656420697320696e76616c6964000000600082015250565b6000613eb4601d836133ac565b9150613ebf82613e7e565b602082019050919050565b60006020820190508181036000830152613ee381613ea7565b9050919050565b7f4e487b7100000000000000000000000000000000000000000000000000000000600052602260045260246000fd5b60006002820490506001821680613f3157607f821691505b602082108103613f4457613f43613eea565b5b50919050565b60008190508160005260206000209050919050565b60006020601f8301049050919050565b600082821b905092915050565b600060088302613fac7fffffffffffffffffffffffffffffffffffffffffffffffffffffffffffffffff82613f6f565b613fb68683613f6f565b95508019841693508086168417925050509392505050565b6000819050919050565b6000613ff3613fee613fe98461308a565b613fce565b61308a565b9050919050565b6000819050919050565b61400d83613fd8565b61402161401982613ffa565b848454613f7c565b825550505050565b600090565b614036614029565b614041818484614004565b505050565b5b818110156140655761405a60008261402e565b600181019050614047565b5050565b601f8211156140aa5761407b81613f4a565b61408484613f5f565b81016020851015614093578190505b6140a761409f85613f5f565b830182614046565b50505b505050565b600082821c905092915050565b60006140cd600019846008026140af565b1980831691505092915050565b60006140e683836140bc565b9150826002028217905092915050565b6140ff826133a1565b67ffffffffffffffff81111561411857614117613145565b5b6141228254613f19565b61412d828285614069565b600060209050601f831160018114614160576000841561414e578287015190505b61415885826140da565b8655506141c0565b601f19841661416e86613f4a565b60005b8281101561419657848901518255600182019150602085019450602081019050614171565b868310156141b357848901516141af601f8916826140bc565b8355505b6001600288020188555050505b505050505050565b6141d18161304c565b82525050565b60006040820190506141ec60008301856141c8565b6141f960208301846141c8565b9392505050565b60006040820190506142156000830185613100565b6142226020830184613100565b9392505050565b7f4e487b7100000000000000000000000000000000000000000000000000000000600052603260045260246000fd5b7f4e487b7100000000000000000000000000000000000000000000000000000000600052601160045260246000fd5b60006142928261308a565b91507fffffffffffffffffffffffffffffffffffffffffffffffffffffffffffffffff82036142c4576142c3614258565b5b600182019050919050565b600081905092915050565b600081546142e781613f19565b6142f181866142cf565b9450600182166000811461430c576001811461432157614354565b60ff1983168652811515820286019350614354565b61432a85613f4a565b60005b8381101561434c5781548189015260018201915060208101905061432d565b838801955050505b50505092915050565b6000614368826133a1565b61437281856142cf565b93506143828185602086016133bd565b80840191505092915050565b600061439a82856142da565b91506143a6828461435d565b91508190509392505050565b60006020820190506143c760008301846141c8565b92915050565b600081905092915050565b50565b60006143e86000836143cd565b91506143f3826143d8565b600082019050919050565b6000614409826143db565b9150819050919050565b7f5061796d656e74206661696c6564000000000000000000000000000000000000600082015250565b6000614449600e836133ac565b915061445482614413565b602082019050919050565b600060208201905081810360008301526144788161443c565b9050919050565b600060408201905061449460008301856141c8565b6144a160208301846136f6565b9392505050565b600081519050919050565b600082825260208201905092915050565b60006144cf826144a8565b6144d981856144b3565b93506144e98185602086016133bd565b6144f281613134565b840191505092915050565b600060a08201905061451260008301886141c8565b61451f60208301876141c8565b61452c6040830186613100565b6145396060830185613100565b818103608083015261454b81846144c4565b90509695505050505050565b600081519050614566816132e5565b92915050565b60006020828403121561458257614581613022565b5b600061459084828501614557565b91505092915050565b600060a0820190506145ae60008301886141c8565b6145bb60208301876141c8565b81810360408301526145cd81866139ca565b905081810360608301526145e181856139ca565b905081810360808301526145f581846144c4565b90509695505050505050565b600061460c8261308a565b91506146178361308a565b925082820190508082111561462f5761462e614258565b5b92915050565b600060808201905061464a60008301876141c8565b6146576020830186613100565b6146646040830185613100565b6146716060830184613100565b95945050505050565b6000604082019050818103600083015261469481856139ca565b905081810360208301526146a881846139ca565b9050939250505056fea2646970667358221220fe023dc0e6cb1951f0a730506379a349d32f31d8e6d178636a8a615950d063ac64736f6c63430008160033",
  "linkReferences": {},
  "deployedLinkReferences": {}
}