{
  "_format": "hh-sol-artifact-1",
  "contractName": "DPPContract",
  "sourceName": "contracts/DPP.sol",
  "abi": [
    {
      "inputs": [
        {
          "internalType": "address",
          "name": "defaultAdmin",
          "type": "address"
        },
        {
          "internalType": "address",
          "name": "minter",
          "type": "address"
        }
      ],
      "stateMutability": "nonpayable",
      "type": "constructor"
    },
    {
      "inputs": [],
      "name": "AccessControlBadConfirmation",
      "type": "error"
    },
    {
      "inputs": [
        {
          "internalType": "address",
          "name": "account",
          "type": "address"
        },
        {
          "internalType": "bytes32",
          "name": "neededRole",
          "type": "bytes32"
        }
      ],
      "name": "AccessControlUnauthorizedAccount",
      "type": "error"
    },
    {
      "inputs": [
        {
          "internalType": "address",
          "name": "sender",
          "type": "address"
        },
        {
          "internalType": "uint256",
          "name": "balance",
          "type": "uint256"
        },
        {
          "internalType": "uint256",
          "name": "needed",
          "type": "uint256"
        },
        {
          "internalType": "uint256",
          "name": "tokenId",
          "type": "uint256"
        }
      ],
      "name": "ERC1155InsufficientBalance",
      "type": "error"
    },
    {
      "inputs": [
        {
          "internalType": "address",
          "name": "approver",
          "type": "address"
        }
      ],
      "name": "ERC1155InvalidApprover",
      "type": "error"
    },
    {
      "inputs": [
        {
          "internalType": "uint256",
          "name": "idsLength",
          "type": "uint256"
        },
        {
          "internalType": "uint256",
          "name": "valuesLength",
          "type": "uint256"
        }
      ],
      "name": "ERC1155InvalidArrayLength",
      "type": "error"
    },
    {
      "inputs": [
        {
          "internalType": "address",
          "name": "operator",
          "type": "address"
        }
      ],
      "name": "ERC1155InvalidOperator",
      "type": "error"
    },
    {
      "inputs": [
        {
          "internalType": "address",
          "name": "receiver",
          "type": "address"
        }
      ],
      "name": "ERC1155InvalidReceiver",
      "type": "error"
    },
    {
      "inputs": [
        {
          "internalType": "address",
          "name": "sender",
          "type": "address"
        }
      ],
      "name": "ERC1155InvalidSender",
      "type": "error"
    },
    {
      "inputs": [
        {
          "internalType": "address",
          "name": "operator",
          "type": "address"
        },
        {
          "internalType": "address",
          "name": "owner",
          "type": "address"
        }
      ],
      "name": "ERC1155MissingApprovalForAll",
      "type": "error"
    },
    {
      "anonymous": false,
      "inputs": [
        {
          "indexed": true,
          "internalType": "address",
          "name": "account",
          "type": "address"
        },
        {
          "indexed": true,
          "internalType": "address",
          "name": "operator",
          "type": "address"
        },
        {
          "indexed": false,
          "internalType": "bool",
          "name": "approved",
          "type": "bool"
        }
      ],
      "name": "ApprovalForAll",
      "type": "event"
    },
    {
      "anonymous": false,
      "inputs": [
        {
          "indexed": true,
          "internalType": "bytes32",
          "name": "role",
          "type": "bytes32"
        },
        {
          "indexed": true,
          "internalType": "bytes32",
          "name": "previousAdminRole",
          "type": "bytes32"
        },
        {
          "indexed": true,
          "internalType": "bytes32",
          "name": "newAdminRole",
          "type": "bytes32"
        }
      ],
      "name": "RoleAdminChanged",
      "type": "event"
    },
    {
      "anonymous": false,
      "inputs": [
        {
          "indexed": true,
          "internalType": "bytes32",
          "name": "role",
          "type": "bytes32"
        },
        {
          "indexed": true,
          "internalType": "address",
          "name": "account",
          "type": "address"
        },
        {
          "indexed": true,
          "internalType": "address",
          "name": "sender",
          "type": "address"
        }
      ],
      "name": "RoleGranted",
      "type": "event"
    },
    {
      "anonymous": false,
      "inputs": [
        {
          "indexed": true,
          "internalType": "bytes32",
          "name": "role",
          "type": "bytes32"
        },
        {
          "indexed": true,
          "internalType": "address",
          "name": "account",
          "type": "address"
        },
        {
          "indexed": true,
          "internalType": "address",
          "name": "sender",
          "type": "address"
        }
      ],
      "name": "RoleRevoked",
      "type": "event"
    },
    {
      "anonymous": false,
      "inputs": [
        {
          "indexed": true,
          "internalType": "address",
          "name": "operator",
          "type": "address"
        },
        {
          "indexed": true,
          "internalType": "address",
          "name": "from",
          "type": "address"
        },
        {
          "indexed": true,
          "internalType": "address",
          "name": "to",
          "type": "address"
        },
        {
          "indexed": false,
          "internalType": "uint256[]",
          "name": "ids",
          "type": "uint256[]"
        },
        {
          "indexed": false,
          "internalType": "uint256[]",
          "name": "values",
          "type": "uint256[]"
        }
      ],
      "name": "TransferBatch",
      "type": "event"
    },
    {
      "anonymous": false,
      "inputs": [
        {
          "indexed": true,
          "internalType": "address",
          "name": "operator",
          "type": "address"
        },
        {
          "indexed": true,
          "internalType": "address",
          "name": "from",
          "type": "address"
        },
        {
          "indexed": true,
          "internalType": "address",
          "name": "to",
          "type": "address"
        },
        {
          "indexed": false,
          "internalType": "uint256",
          "name": "id",
          "type": "uint256"
        },
        {
          "indexed": false,
          "internalType": "uint256",
          "name": "value",
          "type": "uint256"
        }
      ],
      "name": "TransferSingle",
      "type": "event"
    },
    {
      "anonymous": false,
      "inputs": [
        {
          "indexed": false,
          "internalType": "string",
          "name": "value",
          "type": "string"
        },
        {
          "indexed": true,
          "internalType": "uint256",
          "name": "id",
          "type": "uint256"
        }
      ],
      "name": "URI",
      "type": "event"
    },
    {
      "inputs": [],
      "name": "ADMIN_ROLE",
      "outputs": [
        {
          "internalType": "bytes32",
          "name": "",
          "type": "bytes32"
        }
      ],
      "stateMutability": "view",
      "type": "function"
    },
    {
      "inputs": [],
      "name": "DEFAULT_ADMIN_ROLE",
      "outputs": [
        {
          "internalType": "bytes32",
          "name": "",
          "type": "bytes32"
        }
      ],
      "stateMutability": "view",
      "type": "function"
    },
    {
      "inputs": [],
      "name": "MINTER_ROLE",
      "outputs": [
        {
          "internalType": "bytes32",
          "name": "",
          "type": "bytes32"
        }
      ],
      "stateMutability": "view",
      "type": "function"
    },
    {
      "inputs": [],
      "name": "URI_SETTER_ROLE",
      "outputs": [
        {
          "internalType": "bytes32",
          "name": "",
          "type": "bytes32"
        }
      ],
      "stateMutability": "view",
      "type": "function"
    },
    {
      "inputs": [
        {
          "internalType": "address",
          "name": "_user",
          "type": "address"
        },
        {
          "internalType": "string",
          "name": "_dpp_ipfs_link",
          "type": "string"
        }
      ],
      "name": "approvePurchase",
      "outputs": [],
      "stateMutability": "nonpayable",
      "type": "function"
    },
    {
      "inputs": [
        {
          "internalType": "address",
          "name": "account",
          "type": "address"
        },
        {
          "internalType": "uint256",
          "name": "id",
          "type": "uint256"
        }
      ],
      "name": "balanceOf",
      "outputs": [
        {
          "internalType": "uint256",
          "name": "",
          "type": "uint256"
        }
      ],
      "stateMutability": "view",
      "type": "function"
    },
    {
      "inputs": [
        {
          "internalType": "address[]",
          "name": "accounts",
          "type": "address[]"
        },
        {
          "internalType": "uint256[]",
          "name": "ids",
          "type": "uint256[]"
        }
      ],
      "name": "balanceOfBatch",
      "outputs": [
        {
          "internalType": "uint256[]",
          "name": "",
          "type": "uint256[]"
        }
      ],
      "stateMutability": "view",
      "type": "function"
    },
    {
      "inputs": [],
      "name": "bikePrice",
      "outputs": [
        {
          "internalType": "uint256",
          "name": "",
          "type": "uint256"
        }
      ],
      "stateMutability": "view",
      "type": "function"
    },
    {
      "inputs": [
        {
          "internalType": "address",
          "name": "account",
          "type": "address"
        },
        {
          "internalType": "uint256",
          "name": "id",
          "type": "uint256"
        },
        {
          "internalType": "uint256",
          "name": "value",
          "type": "uint256"
        }
      ],
      "name": "burn",
      "outputs": [],
      "stateMutability": "nonpayable",
      "type": "function"
    },
    {
      "inputs": [
        {
          "internalType": "address",
          "name": "account",
          "type": "address"
        },
        {
          "internalType": "uint256[]",
          "name": "ids",
          "type": "uint256[]"
        },
        {
          "internalType": "uint256[]",
          "name": "values",
          "type": "uint256[]"
        }
      ],
      "name": "burnBatch",
      "outputs": [],
      "stateMutability": "nonpayable",
      "type": "function"
    },
    {
      "inputs": [],
      "name": "depositFrame",
      "outputs": [
        {
          "internalType": "uint256",
          "name": "",
          "type": "uint256"
        }
      ],
      "stateMutability": "view",
      "type": "function"
    },
    {
      "inputs": [],
      "name": "depositWheel",
      "outputs": [
        {
          "internalType": "uint256",
          "name": "",
          "type": "uint256"
        }
      ],
      "stateMutability": "view",
      "type": "function"
    },
    {
      "inputs": [
        {
          "internalType": "uint256",
          "name": "id",
          "type": "uint256"
        }
      ],
      "name": "exists",
      "outputs": [
        {
          "internalType": "bool",
          "name": "",
          "type": "bool"
        }
      ],
      "stateMutability": "view",
      "type": "function"
    },
    {
      "inputs": [
        {
          "internalType": "bytes32",
          "name": "role",
          "type": "bytes32"
        }
      ],
      "name": "getRoleAdmin",
      "outputs": [
        {
          "internalType": "bytes32",
          "name": "",
          "type": "bytes32"
        }
      ],
      "stateMutability": "view",
      "type": "function"
    },
    {
      "inputs": [
        {
          "internalType": "bytes32",
          "name": "role",
          "type": "bytes32"
        },
        {
          "internalType": "address",
          "name": "account",
          "type": "address"
        }
      ],
      "name": "grantRole",
      "outputs": [],
      "stateMutability": "nonpayable",
      "type": "function"
    },
    {
      "inputs": [
        {
          "internalType": "bytes32",
          "name": "role",
          "type": "bytes32"
        },
        {
          "internalType": "address",
          "name": "account",
          "type": "address"
        }
      ],
      "name": "hasRole",
      "outputs": [
        {
          "internalType": "bool",
          "name": "",
          "type": "bool"
        }
      ],
      "stateMutability": "view",
      "type": "function"
    },
    {
      "inputs": [
        {
          "internalType": "address",
          "name": "account",
          "type": "address"
        },
        {
          "internalType": "address",
          "name": "operator",
          "type": "address"
        }
      ],
      "name": "isApprovedForAll",
      "outputs": [
        {
          "internalType": "bool",
          "name": "",
          "type": "bool"
        }
      ],
      "stateMutability": "view",
      "type": "function"
    },
    {
      "inputs": [
        {
          "internalType": "string",
          "name": "_ipfsLink",
          "type": "string"
        }
      ],
      "name": "makePurchase",
      "outputs": [],
      "stateMutability": "payable",
      "type": "function"
    },
    {
      "inputs": [
        {
          "internalType": "string",
          "name": "_ipfsLink",
          "type": "string"
        }
      ],
      "name": "makePurchaseDel",
      "outputs": [],
      "stateMutability": "nonpayable",
      "type": "function"
    },
    {
      "inputs": [
        {
          "internalType": "address",
          "name": "account",
          "type": "address"
        },
        {
          "internalType": "uint256",
          "name": "id",
          "type": "uint256"
        },
        {
          "internalType": "uint256",
          "name": "amount",
          "type": "uint256"
        },
        {
          "internalType": "bytes",
          "name": "data",
          "type": "bytes"
        }
      ],
      "name": "mint",
      "outputs": [],
      "stateMutability": "nonpayable",
      "type": "function"
    },
    {
      "inputs": [
        {
          "internalType": "address",
          "name": "to",
          "type": "address"
        },
        {
          "internalType": "uint256[]",
          "name": "ids",
          "type": "uint256[]"
        },
        {
          "internalType": "uint256[]",
          "name": "amounts",
          "type": "uint256[]"
        },
        {
          "internalType": "bytes",
          "name": "data",
          "type": "bytes"
        }
      ],
      "name": "mintBatch",
      "outputs": [],
      "stateMutability": "nonpayable",
      "type": "function"
    },
    {
      "inputs": [
        {
          "internalType": "address",
          "name": "",
          "type": "address"
        }
      ],
      "name": "orderMade",
      "outputs": [
        {
          "internalType": "bool",
          "name": "",
          "type": "bool"
        }
      ],
      "stateMutability": "view",
      "type": "function"
    },
    {
      "inputs": [
        {
          "internalType": "bytes32",
          "name": "role",
          "type": "bytes32"
        },
        {
          "internalType": "address",
          "name": "callerConfirmation",
          "type": "address"
        }
      ],
      "name": "renounceRole",
      "outputs": [],
      "stateMutability": "nonpayable",
      "type": "function"
    },
    {
      "inputs": [
        {
          "internalType": "bytes32",
          "name": "role",
          "type": "bytes32"
        },
        {
          "internalType": "address",
          "name": "account",
          "type": "address"
        }
      ],
      "name": "revokeRole",
      "outputs": [],
      "stateMutability": "nonpayable",
      "type": "function"
    },
    {
      "inputs": [
        {
          "internalType": "address",
          "name": "from",
          "type": "address"
        },
        {
          "internalType": "address",
          "name": "to",
          "type": "address"
        },
        {
          "internalType": "uint256[]",
          "name": "ids",
          "type": "uint256[]"
        },
        {
          "internalType": "uint256[]",
          "name": "values",
          "type": "uint256[]"
        },
        {
          "internalType": "bytes",
          "name": "data",
          "type": "bytes"
        }
      ],
      "name": "safeBatchTransferFrom",
      "outputs": [],
      "stateMutability": "nonpayable",
      "type": "function"
    },
    {
      "inputs": [
        {
          "internalType": "address",
          "name": "from",
          "type": "address"
        },
        {
          "internalType": "address",
          "name": "to",
          "type": "address"
        },
        {
          "internalType": "uint256",
          "name": "id",
          "type": "uint256"
        },
        {
          "internalType": "uint256",
          "name": "value",
          "type": "uint256"
        },
        {
          "internalType": "bytes",
          "name": "data",
          "type": "bytes"
        }
      ],
      "name": "safeTransferFrom",
      "outputs": [],
      "stateMutability": "nonpayable",
      "type": "function"
    },
    {
      "inputs": [
        {
          "internalType": "address",
          "name": "operator",
          "type": "address"
        },
        {
          "internalType": "bool",
          "name": "approved",
          "type": "bool"
        }
      ],
      "name": "setApprovalForAll",
      "outputs": [],
      "stateMutability": "nonpayable",
      "type": "function"
    },
    {
      "inputs": [
        {
          "internalType": "string",
          "name": "newuri",
          "type": "string"
        }
      ],
      "name": "setURI",
      "outputs": [],
      "stateMutability": "nonpayable",
      "type": "function"
    },
    {
      "inputs": [
        {
          "internalType": "bytes4",
          "name": "interfaceId",
          "type": "bytes4"
        }
      ],
      "name": "supportsInterface",
      "outputs": [
        {
          "internalType": "bool",
          "name": "",
          "type": "bool"
        }
      ],
      "stateMutability": "view",
      "type": "function"
    },
    {
      "inputs": [],
      "name": "token_id",
      "outputs": [
        {
          "internalType": "uint256",
          "name": "",
          "type": "uint256"
        }
      ],
      "stateMutability": "view",
      "type": "function"
    },
    {
      "inputs": [],
      "name": "totalPrice",
      "outputs": [
        {
          "internalType": "uint256",
          "name": "",
          "type": "uint256"
        }
      ],
      "stateMutability": "view",
      "type": "function"
    },
    {
      "inputs": [],
      "name": "totalSupply",
      "outputs": [
        {
          "internalType": "uint256",
          "name": "",
          "type": "uint256"
        }
      ],
      "stateMutability": "view",
      "type": "function"
    },
    {
      "inputs": [
        {
          "internalType": "uint256",
          "name": "id",
          "type": "uint256"
        }
      ],
      "name": "totalSupply",
      "outputs": [
        {
          "internalType": "uint256",
          "name": "",
          "type": "uint256"
        }
      ],
      "stateMutability": "view",
      "type": "function"
    },
    {
      "inputs": [
        {
          "internalType": "uint256",
          "name": "tokenId",
          "type": "uint256"
        }
      ],
      "name": "uri",
      "outputs": [
        {
          "internalType": "string",
          "name": "",
          "type": "string"
        }
      ],
      "stateMutability": "view",
      "type": "function"
    },
    {
      "inputs": [
        {
          "internalType": "string",
          "name": "tokenURI",
          "type": "string"
        },
        {
          "internalType": "address",
          "name": "_to",
          "type": "address"
        }
      ],
      "name": "uri_set_mint",
      "outputs": [],
      "stateMutability": "nonpayable",
      "type": "function"
    },
    {
      "inputs": [
        {
          "internalType": "address",
          "name": "",
          "type": "address"
        }
      ],
      "name": "userOrderIPFS",
      "outputs": [
        {
          "internalType": "string",
          "name": "",
          "type": "string"
        }
      ],
      "stateMutability": "view",
      "type": "function"
    }
  ],
  "bytecode": "0x60806040526040518060200160405280600081525060069081620000249190620004ed565b5060016008556103e860095560c8600a55610190600b55610708600c553480156200004e57600080fd5b506040516200497f3803806200497f83398181016040528101906200007491906200063e565b604051806020016040528060008152506200009581620000e760201b60201c565b50620000ab6000801b83620000fc60201b60201c565b50620000de7f9f2df0fed2c77648de5860a4cc508cd0818c85b8b8a1ab4ceeef8d981c8956a682620000fc60201b60201c565b50505062000685565b8060029081620000f89190620004ed565b5050565b60006200011083836200020060201b60201c565b620001f55760016005600085815260200190815260200160002060000160008473ffffffffffffffffffffffffffffffffffffffff1673ffffffffffffffffffffffffffffffffffffffff16815260200190815260200160002060006101000a81548160ff021916908315150217905550620001916200026b60201b60201c565b73ffffffffffffffffffffffffffffffffffffffff168273ffffffffffffffffffffffffffffffffffffffff16847f2f8788117e7eff1d82e926ec794901d17c78024a50270940304540a733656f0d60405160405180910390a460019050620001fa565b600090505b92915050565b60006005600084815260200190815260200160002060000160008373ffffffffffffffffffffffffffffffffffffffff1673ffffffffffffffffffffffffffffffffffffffff16815260200190815260200160002060009054906101000a900460ff16905092915050565b600033905090565b600081519050919050565b7f4e487b7100000000000000000000000000000000000000000000000000000000600052604160045260246000fd5b7f4e487b7100000000000000000000000000000000000000000000000000000000600052602260045260246000fd5b60006002820490506001821680620002f557607f821691505b6020821081036200030b576200030a620002ad565b5b50919050565b60008190508160005260206000209050919050565b60006020601f8301049050919050565b600082821b905092915050565b600060088302620003757fffffffffffffffffffffffffffffffffffffffffffffffffffffffffffffffff8262000336565b62000381868362000336565b95508019841693508086168417925050509392505050565b6000819050919050565b6000819050919050565b6000620003ce620003c8620003c28462000399565b620003a3565b62000399565b9050919050565b6000819050919050565b620003ea83620003ad565b62000402620003f982620003d5565b84845462000343565b825550505050565b600090565b620004196200040a565b62000426818484620003df565b505050565b5b818110156200044e57620004426000826200040f565b6001810190506200042c565b5050565b601f8211156200049d57620004678162000311565b620004728462000326565b8101602085101562000482578190505b6200049a620004918562000326565b8301826200042b565b50505b505050565b600082821c905092915050565b6000620004c260001984600802620004a2565b1980831691505092915050565b6000620004dd8383620004af565b9150826002028217905092915050565b620004f88262000273565b67ffffffffffffffff8111156200051457620005136200027e565b5b620005208254620002dc565b6200052d82828562000452565b600060209050601f83116001811462000565576000841562000550578287015190505b6200055c8582620004cf565b865550620005cc565b601f198416620005758662000311565b60005b828110156200059f5784890151825560018201915060208501945060208101905062000578565b86831015620005bf5784890151620005bb601f891682620004af565b8355505b6001600288020188555050505b505050505050565b600080fd5b600073ffffffffffffffffffffffffffffffffffffffff82169050919050565b60006200060682620005d9565b9050919050565b6200061881620005f9565b81146200062457600080fd5b50565b60008151905062000638816200060d565b92915050565b60008060408385031215620006585762000657620005d4565b5b6000620006688582860162000627565b92505060206200067b8582860162000627565b9150509250929050565b6142ea80620006956000396000f3fe60806040526004361061020e5760003560e01c8063731133e911610118578063ab0d92dd116100a0578063d56681311161006f578063d5668131146107d7578063e985e9c514610802578063f242432a1461083f578063f4f68bfd14610868578063f5298aca146108915761020e565b8063ab0d92dd1461071b578063bd85b03914610746578063d539139314610783578063d547741f146107ae5761020e565b80638caa1fda116100e75780638caa1fda1461062257806391d148541461065f578063a217fddf1461069c578063a22cb465146106c7578063a86a58af146106f05761020e565b8063731133e91461057857806375b238fc146105a15780637aced3fe146105cc5780637f345710146105f75761020e565b80632b9c305b1161019b5780634e1273f41161016a5780634e1273f4146104815780634f558e79146104be57806353f0e846146104fb57806366edd1ee146105265780636b20c4541461054f5761020e565b80632b9c305b146103ea5780632eb2c2d6146104065780632f2ff15d1461042f57806336568abe146104585761020e565b80630e89341c116101e25780630e89341c146102df57806311ecc8b51461031c57806318160ddd146103595780631f7fdffa14610384578063248a9ca3146103ad5761020e565b8062fdd58e1461021357806301c705e01461025057806301ffc9a71461027957806302fe5305146102b6575b600080fd5b34801561021f57600080fd5b5061023a60048036038101906102359190612cc3565b6108ba565b6040516102479190612d12565b60405180910390f35b34801561025c57600080fd5b5061027760048036038101906102729190612e73565b610914565b005b34801561028557600080fd5b506102a0600480360381019061029b9190612f14565b61096f565b6040516102ad9190612f5c565b60405180910390f35b3480156102c257600080fd5b506102dd60048036038101906102d89190612e73565b610981565b005b3480156102eb57600080fd5b5061030660048036038101906103019190612f77565b6109b8565b6040516103139190613023565b60405180910390f35b34801561032857600080fd5b50610343600480360381019061033e9190613045565b6109ca565b6040516103509190612f5c565b60405180910390f35b34801561036557600080fd5b5061036e6109ea565b60405161037b9190612d12565b60405180910390f35b34801561039057600080fd5b506103ab60048036038101906103a691906131db565b6109f4565b005b3480156103b957600080fd5b506103d460048036038101906103cf91906132cc565b610a31565b6040516103e19190613308565b60405180910390f35b61040460048036038101906103ff9190612e73565b610a51565b005b34801561041257600080fd5b5061042d60048036038101906104289190613323565b610c7a565b005b34801561043b57600080fd5b50610456600480360381019061045191906133f2565b610d22565b005b34801561046457600080fd5b5061047f600480360381019061047a91906133f2565b610d44565b005b34801561048d57600080fd5b506104a860048036038101906104a391906134f5565b610dbf565b6040516104b5919061362b565b60405180910390f35b3480156104ca57600080fd5b506104e560048036038101906104e09190612f77565b610ec8565b6040516104f29190612f5c565b60405180910390f35b34801561050757600080fd5b50610510610edc565b60405161051d9190612d12565b60405180910390f35b34801561053257600080fd5b5061054d6004803603810190610548919061364d565b610ee2565b005b34801561055b57600080fd5b50610576600480360381019061057191906136a9565b610f53565b005b34801561058457600080fd5b5061059f600480360381019061059a9190613734565b610fff565b005b3480156105ad57600080fd5b506105b661103c565b6040516105c39190613308565b60405180910390f35b3480156105d857600080fd5b506105e1611060565b6040516105ee9190612d12565b60405180910390f35b34801561060357600080fd5b5061060c611066565b6040516106199190613308565b60405180910390f35b34801561062e57600080fd5b5061064960048036038101906106449190613045565b61108a565b6040516106569190613023565b60405180910390f35b34801561066b57600080fd5b50610686600480360381019061068191906133f2565b61112a565b6040516106939190612f5c565b60405180910390f35b3480156106a857600080fd5b506106b1611195565b6040516106be9190613308565b60405180910390f35b3480156106d357600080fd5b506106ee60048036038101906106e991906137e3565b61119c565b005b3480156106fc57600080fd5b506107056111b2565b6040516107129190612d12565b60405180910390f35b34801561072757600080fd5b506107306111b8565b60405161073d9190612d12565b60405180910390f35b34801561075257600080fd5b5061076d60048036038101906107689190612f77565b6111be565b60405161077a9190612d12565b60405180910390f35b34801561078f57600080fd5b506107986111db565b6040516107a59190613308565b60405180910390f35b3480156107ba57600080fd5b506107d560048036038101906107d091906133f2565b6111ff565b005b3480156107e357600080fd5b506107ec611221565b6040516107f99190612d12565b60405180910390f35b34801561080e57600080fd5b5061082960048036038101906108249190613823565b611227565b6040516108369190612f5c565b60405180910390f35b34801561084b57600080fd5b5061086660048036038101906108619190613863565b6112bb565b005b34801561087457600080fd5b5061088f600480360381019061088a91906138fa565b611363565b005b34801561089d57600080fd5b506108b860048036038101906108b39190613956565b6114ad565b005b600080600083815260200190815260200160002060008473ffffffffffffffffffffffffffffffffffffffff1673ffffffffffffffffffffffffffffffffffffffff16815260200190815260200160002054905092915050565b6000601260003373ffffffffffffffffffffffffffffffffffffffff1673ffffffffffffffffffffffffffffffffffffffff16815260200190815260200160002060006101000a81548160ff02191690831515021790555050565b600061097a82611559565b9050919050565b7f7804d923f43a17d325d77e781528e0793b2edd9890ab45fc64efd7b4b427744c6109ab816115d3565b6109b4826115e7565b5050565b60606109c3826115fa565b9050919050565b60126020528060005260406000206000915054906101000a900460ff1681565b6000600454905090565b7f9f2df0fed2c77648de5860a4cc508cd0818c85b8b8a1ab4ceeef8d981c8956a6610a1e816115d3565b610a2a858585856116df565b5050505050565b600060056000838152602001908152602001600020600101549050919050565b601260003373ffffffffffffffffffffffffffffffffffffffff1673ffffffffffffffffffffffffffffffffffffffff16815260200190815260200160002060009054906101000a900460ff1615610ade576040517f08c379a0000000000000000000000000000000000000000000000000000000008152600401610ad5906139f5565b60405180910390fd5b600c543414610b22576040517f08c379a0000000000000000000000000000000000000000000000000000000008152600401610b1990613a61565b60405180910390fd5b80601360003373ffffffffffffffffffffffffffffffffffffffff1673ffffffffffffffffffffffffffffffffffffffff1681526020019081526020016000209081610b6e9190613c8d565b506001600d60003373ffffffffffffffffffffffffffffffffffffffff1673ffffffffffffffffffffffffffffffffffffffff16815260200190815260200160002060006101000a81548160ff0219169083151502179055506001600e60003373ffffffffffffffffffffffffffffffffffffffff1673ffffffffffffffffffffffffffffffffffffffff16815260200190815260200160002060006101000a81548160ff0219169083151502179055506001600f60003373ffffffffffffffffffffffffffffffffffffffff1673ffffffffffffffffffffffffffffffffffffffff16815260200190815260200160002060006101000a81548160ff02191690831515021790555050565b6000610c84611765565b90508073ffffffffffffffffffffffffffffffffffffffff168673ffffffffffffffffffffffffffffffffffffffff1614158015610cc95750610cc78682611227565b155b15610d0d5780866040517fe237d922000000000000000000000000000000000000000000000000000000008152600401610d04929190613d6e565b60405180910390fd5b610d1a868686868661176d565b505050505050565b610d2b82610a31565b610d34816115d3565b610d3e8383611865565b50505050565b610d4c611765565b73ffffffffffffffffffffffffffffffffffffffff168173ffffffffffffffffffffffffffffffffffffffff1614610db0576040517f6697b23200000000000000000000000000000000000000000000000000000000815260040160405180910390fd5b610dba8282611957565b505050565b60608151835114610e0b57815183516040517f5b059991000000000000000000000000000000000000000000000000000000008152600401610e02929190613d97565b60405180910390fd5b6000835167ffffffffffffffff811115610e2857610e27612d48565b5b604051908082528060200260200182016040528015610e565781602001602082028036833780820191505090505b50905060005b8451811015610ebd57610e93610e7b8287611a4a90919063ffffffff16565b610e8e8387611a5e90919063ffffffff16565b6108ba565b828281518110610ea657610ea5613dc0565b5b602002602001018181525050806001019050610e5c565b508091505092915050565b600080610ed4836111be565b119050919050565b60095481565b7f9f2df0fed2c77648de5860a4cc508cd0818c85b8b8a1ab4ceeef8d981c8956a6610f0c816115d3565b610f1860085484611a72565b610f3682600854600160405180602001604052806000815250611ad7565b60086000815480929190610f4990613e1e565b9190505550505050565b610f5b611765565b73ffffffffffffffffffffffffffffffffffffffff168373ffffffffffffffffffffffffffffffffffffffff1614158015610fa45750610fa283610f9d611765565b611227565b155b15610fef57610fb1611765565b836040517fe237d922000000000000000000000000000000000000000000000000000000008152600401610fe6929190613d6e565b60405180910390fd5b610ffa838383611b70565b505050565b7f9f2df0fed2c77648de5860a4cc508cd0818c85b8b8a1ab4ceeef8d981c8956a6611029816115d3565b61103585858585611ad7565b5050505050565b7fa49807205ce4d355092ef5a8a18f56e8913cf4a201fbe287825b095693c2177581565b600b5481565b7f7804d923f43a17d325d77e781528e0793b2edd9890ab45fc64efd7b4b427744c81565b601360205280600052604060002060009150905080546110a990613ab0565b80601f01602080910402602001604051908101604052809291908181526020018280546110d590613ab0565b80156111225780601f106110f757610100808354040283529160200191611122565b820191906000526020600020905b81548152906001019060200180831161110557829003601f168201915b505050505081565b60006005600084815260200190815260200160002060000160008373ffffffffffffffffffffffffffffffffffffffff1673ffffffffffffffffffffffffffffffffffffffff16815260200190815260200160002060009054906101000a900460ff16905092915050565b6000801b81565b6111ae6111a7611765565b8383611c04565b5050565b600a5481565b600c5481565b600060036000838152602001908152602001600020549050919050565b7f9f2df0fed2c77648de5860a4cc508cd0818c85b8b8a1ab4ceeef8d981c8956a681565b61120882610a31565b611211816115d3565b61121b8383611957565b50505050565b60085481565b6000600160008473ffffffffffffffffffffffffffffffffffffffff1673ffffffffffffffffffffffffffffffffffffffff16815260200190815260200160002060008373ffffffffffffffffffffffffffffffffffffffff1673ffffffffffffffffffffffffffffffffffffffff16815260200190815260200160002060009054906101000a900460ff16905092915050565b60006112c5611765565b90508073ffffffffffffffffffffffffffffffffffffffff168673ffffffffffffffffffffffffffffffffffffffff161415801561130a57506113088682611227565b155b1561134e5780866040517fe237d922000000000000000000000000000000000000000000000000000000008152600401611345929190613d6e565b60405180910390fd5b61135b8686868686611d74565b505050505050565b600d60008373ffffffffffffffffffffffffffffffffffffffff1673ffffffffffffffffffffffffffffffffffffffff16815260200190815260200160002060009054906101000a900460ff166113ef576040517f08c379a00000000000000000000000000000000000000000000000000000000081526004016113e690613eb2565b60405180910390fd5b6113fb33600954611e7f565b506000600d60008473ffffffffffffffffffffffffffffffffffffffff1673ffffffffffffffffffffffffffffffffffffffff16815260200190815260200160002060006101000a81548160ff021916908315150217905550601360008373ffffffffffffffffffffffffffffffffffffffff1673ffffffffffffffffffffffffffffffffffffffff168152602001908152602001600020600061149f9190612bbe565b6114a98183610ee2565b5050565b6114b5611765565b73ffffffffffffffffffffffffffffffffffffffff168373ffffffffffffffffffffffffffffffffffffffff16141580156114fe57506114fc836114f7611765565b611227565b155b156115495761150b611765565b836040517fe237d922000000000000000000000000000000000000000000000000000000008152600401611540929190613d6e565b60405180910390fd5b611554838383611f37565b505050565b60007f7965db0b000000000000000000000000000000000000000000000000000000007bffffffffffffffffffffffffffffffffffffffffffffffffffffffff1916827bffffffffffffffffffffffffffffffffffffffffffffffffffffffff191614806115cc57506115cb82611fde565b5b9050919050565b6115e4816115df611765565b6120c0565b50565b80600290816115f69190613c8d565b5050565b6060600060076000848152602001908152602001600020805461161c90613ab0565b80601f016020809104026020016040519081016040528092919081815260200182805461164890613ab0565b80156116955780601f1061166a57610100808354040283529160200191611695565b820191906000526020600020905b81548152906001019060200180831161167857829003601f168201915b5050505050905060008151116116b3576116ae83612111565b6116d7565b6006816040516020016116c7929190613f91565b6040516020818303038152906040525b915050919050565b600073ffffffffffffffffffffffffffffffffffffffff168473ffffffffffffffffffffffffffffffffffffffff16036117515760006040517f57f447ce0000000000000000000000000000000000000000000000000000000081526004016117489190613fb5565b60405180910390fd5b61175f6000858585856121a5565b50505050565b600033905090565b600073ffffffffffffffffffffffffffffffffffffffff168473ffffffffffffffffffffffffffffffffffffffff16036117df5760006040517f57f447ce0000000000000000000000000000000000000000000000000000000081526004016117d69190613fb5565b60405180910390fd5b600073ffffffffffffffffffffffffffffffffffffffff168573ffffffffffffffffffffffffffffffffffffffff16036118515760006040517f01a835140000000000000000000000000000000000000000000000000000000081526004016118489190613fb5565b60405180910390fd5b61185e85858585856121a5565b5050505050565b6000611871838361112a565b61194c5760016005600085815260200190815260200160002060000160008473ffffffffffffffffffffffffffffffffffffffff1673ffffffffffffffffffffffffffffffffffffffff16815260200190815260200160002060006101000a81548160ff0219169083151502179055506118e9611765565b73ffffffffffffffffffffffffffffffffffffffff168273ffffffffffffffffffffffffffffffffffffffff16847f2f8788117e7eff1d82e926ec794901d17c78024a50270940304540a733656f0d60405160405180910390a460019050611951565b600090505b92915050565b6000611963838361112a565b15611a3f5760006005600085815260200190815260200160002060000160008473ffffffffffffffffffffffffffffffffffffffff1673ffffffffffffffffffffffffffffffffffffffff16815260200190815260200160002060006101000a81548160ff0219169083151502179055506119dc611765565b73ffffffffffffffffffffffffffffffffffffffff168273ffffffffffffffffffffffffffffffffffffffff16847ff6391f5c32d9c69d2a47ea670b442974b53935d1edc7fd64eb21e047a839171b60405160405180910390a460019050611a44565b600090505b92915050565b600060208202602084010151905092915050565b600060208202602084010151905092915050565b80600760008481526020019081526020016000209081611a929190613c8d565b50817f6bb7ff708619ba0610cba295a58592e0451dee2622938c8755667688daf3529b611abe846109b8565b604051611acb9190613023565b60405180910390a25050565b600073ffffffffffffffffffffffffffffffffffffffff168473ffffffffffffffffffffffffffffffffffffffff1603611b495760006040517f57f447ce000000000000000000000000000000000000000000000000000000008152600401611b409190613fb5565b60405180910390fd5b600080611b568585612257565b91509150611b686000878484876121a5565b505050505050565b600073ffffffffffffffffffffffffffffffffffffffff168373ffffffffffffffffffffffffffffffffffffffff1603611be25760006040517f01a83514000000000000000000000000000000000000000000000000000000008152600401611bd99190613fb5565b60405180910390fd5b611bff8360008484604051806020016040528060008152506121a5565b505050565b600073ffffffffffffffffffffffffffffffffffffffff168273ffffffffffffffffffffffffffffffffffffffff1603611c765760006040517fced3e100000000000000000000000000000000000000000000000000000000008152600401611c6d9190613fb5565b60405180910390fd5b80600160008573ffffffffffffffffffffffffffffffffffffffff1673ffffffffffffffffffffffffffffffffffffffff16815260200190815260200160002060008473ffffffffffffffffffffffffffffffffffffffff1673ffffffffffffffffffffffffffffffffffffffff16815260200190815260200160002060006101000a81548160ff0219169083151502179055508173ffffffffffffffffffffffffffffffffffffffff168373ffffffffffffffffffffffffffffffffffffffff167f17307eab39ab6107e8899845ad3d59bd9653f200f220920489ca2b5937696c3183604051611d679190612f5c565b60405180910390a3505050565b600073ffffffffffffffffffffffffffffffffffffffff168473ffffffffffffffffffffffffffffffffffffffff1603611de65760006040517f57f447ce000000000000000000000000000000000000000000000000000000008152600401611ddd9190613fb5565b60405180910390fd5b600073ffffffffffffffffffffffffffffffffffffffff168573ffffffffffffffffffffffffffffffffffffffff1603611e585760006040517f01a83514000000000000000000000000000000000000000000000000000000008152600401611e4f9190613fb5565b60405180910390fd5b600080611e658585612257565b91509150611e7687878484876121a5565b50505050505050565b6000808373ffffffffffffffffffffffffffffffffffffffff1683604051611ea690614001565b60006040518083038185875af1925050503d8060008114611ee3576040519150601f19603f3d011682016040523d82523d6000602084013e611ee8565b606091505b5050905080611f2c576040517f08c379a0000000000000000000000000000000000000000000000000000000008152600401611f2390614062565b60405180910390fd5b600191505092915050565b600073ffffffffffffffffffffffffffffffffffffffff168373ffffffffffffffffffffffffffffffffffffffff1603611fa95760006040517f01a83514000000000000000000000000000000000000000000000000000000008152600401611fa09190613fb5565b60405180910390fd5b600080611fb68484612257565b91509150611fd78560008484604051806020016040528060008152506121a5565b5050505050565b60007fd9b67a26000000000000000000000000000000000000000000000000000000007bffffffffffffffffffffffffffffffffffffffffffffffffffffffff1916827bffffffffffffffffffffffffffffffffffffffffffffffffffffffff191614806120a957507f0e89341c000000000000000000000000000000000000000000000000000000007bffffffffffffffffffffffffffffffffffffffffffffffffffffffff1916827bffffffffffffffffffffffffffffffffffffffffffffffffffffffff1916145b806120b957506120b882612287565b5b9050919050565b6120ca828261112a565b61210d5780826040517fe2517d3f000000000000000000000000000000000000000000000000000000008152600401612104929190614082565b60405180910390fd5b5050565b60606002805461212090613ab0565b80601f016020809104026020016040519081016040528092919081815260200182805461214c90613ab0565b80156121995780601f1061216e57610100808354040283529160200191612199565b820191906000526020600020905b81548152906001019060200180831161217c57829003601f168201915b50505050509050919050565b6121b1858585856122f1565b600073ffffffffffffffffffffffffffffffffffffffff168473ffffffffffffffffffffffffffffffffffffffff16146122505760006121ef611765565b9050600184510361223f576000612210600086611a5e90919063ffffffff16565b90506000612228600086611a5e90919063ffffffff16565b9050612238838989858589612303565b505061224e565b61224d8187878787876124b7565b5b505b5050505050565b60608060405191506001825283602083015260408201905060018152826020820152604081016040529250929050565b60007f01ffc9a7000000000000000000000000000000000000000000000000000000007bffffffffffffffffffffffffffffffffffffffffffffffffffffffff1916827bffffffffffffffffffffffffffffffffffffffffffffffffffffffff1916149050919050565b6122fd8484848461266b565b50505050565b60008473ffffffffffffffffffffffffffffffffffffffff163b11156124af578373ffffffffffffffffffffffffffffffffffffffff1663f23a6e6187878686866040518663ffffffff1660e01b8152600401612364959493929190614100565b6020604051808303816000875af19250505080156123a057506040513d601f19601f8201168201806040525081019061239d919061416f565b60015b612424573d80600081146123d0576040519150601f19603f3d011682016040523d82523d6000602084013e6123d5565b606091505b50600081510361241c57846040517f57f447ce0000000000000000000000000000000000000000000000000000000081526004016124139190613fb5565b60405180910390fd5b805181602001fd5b63f23a6e6160e01b7bffffffffffffffffffffffffffffffffffffffffffffffffffffffff1916817bffffffffffffffffffffffffffffffffffffffffffffffffffffffff1916146124ad57846040517f57f447ce0000000000000000000000000000000000000000000000000000000081526004016124a49190613fb5565b60405180910390fd5b505b505050505050565b60008473ffffffffffffffffffffffffffffffffffffffff163b1115612663578373ffffffffffffffffffffffffffffffffffffffff1663bc197c8187878686866040518663ffffffff1660e01b815260040161251895949392919061419c565b6020604051808303816000875af192505050801561255457506040513d601f19601f82011682018060405250810190612551919061416f565b60015b6125d8573d8060008114612584576040519150601f19603f3d011682016040523d82523d6000602084013e612589565b606091505b5060008151036125d057846040517f57f447ce0000000000000000000000000000000000000000000000000000000081526004016125c79190613fb5565b60405180910390fd5b805181602001fd5b63bc197c8160e01b7bffffffffffffffffffffffffffffffffffffffffffffffffffffffff1916817bffffffffffffffffffffffffffffffffffffffffffffffffffffffff19161461266157846040517f57f447ce0000000000000000000000000000000000000000000000000000000081526004016126589190613fb5565b60405180910390fd5b505b505050505050565b61267784848484612816565b600073ffffffffffffffffffffffffffffffffffffffff168473ffffffffffffffffffffffffffffffffffffffff1603612751576000805b83518110156127355760008382815181106126cd576126cc613dc0565b5b6020026020010151905080600360008785815181106126ef576126ee613dc0565b5b6020026020010151815260200190815260200160002060008282546127149190614204565b9250508190555080836127279190614204565b9250508060010190506126af565b5080600460008282546127489190614204565b92505081905550505b600073ffffffffffffffffffffffffffffffffffffffff168373ffffffffffffffffffffffffffffffffffffffff1603612810576000805b83518110156127fd5760008382815181106127a7576127a6613dc0565b5b6020026020010151905080600360008785815181106127c9576127c8613dc0565b5b6020026020010151815260200190815260200160002060008282540392505081905550808301925050806001019050612789565b5080600460008282540392505081905550505b50505050565b805182511461286057815181516040517f5b059991000000000000000000000000000000000000000000000000000000008152600401612857929190613d97565b60405180910390fd5b600061286a611765565b905060005b8351811015612a7957600061288d8286611a5e90919063ffffffff16565b905060006128a48386611a5e90919063ffffffff16565b9050600073ffffffffffffffffffffffffffffffffffffffff168873ffffffffffffffffffffffffffffffffffffffff16146129d157600080600084815260200190815260200160002060008a73ffffffffffffffffffffffffffffffffffffffff1673ffffffffffffffffffffffffffffffffffffffff1681526020019081526020016000205490508181101561297957888183856040517f03dee4c50000000000000000000000000000000000000000000000000000000081526004016129709493929190614238565b60405180910390fd5b81810360008085815260200190815260200160002060008b73ffffffffffffffffffffffffffffffffffffffff1673ffffffffffffffffffffffffffffffffffffffff16815260200190815260200160002081905550505b600073ffffffffffffffffffffffffffffffffffffffff168773ffffffffffffffffffffffffffffffffffffffff1614612a6c578060008084815260200190815260200160002060008973ffffffffffffffffffffffffffffffffffffffff1673ffffffffffffffffffffffffffffffffffffffff1681526020019081526020016000206000828254612a649190614204565b925050819055505b505080600101905061286f565b506001835103612b38576000612a99600085611a5e90919063ffffffff16565b90506000612ab1600085611a5e90919063ffffffff16565b90508573ffffffffffffffffffffffffffffffffffffffff168773ffffffffffffffffffffffffffffffffffffffff168473ffffffffffffffffffffffffffffffffffffffff167fc3d58168c5ae7397731d063d5bbf3d657854427343f4c083240f7aacaa2d0f628585604051612b29929190613d97565b60405180910390a45050612bb7565b8373ffffffffffffffffffffffffffffffffffffffff168573ffffffffffffffffffffffffffffffffffffffff168273ffffffffffffffffffffffffffffffffffffffff167f4a39dc06d4c0dbc64b70af90fd698a233a518aa5d07e595d983b8c0526c8f7fb8686604051612bae92919061427d565b60405180910390a45b5050505050565b508054612bca90613ab0565b6000825580601f10612bdc5750612bfb565b601f016020900490600052602060002090810190612bfa9190612bfe565b5b50565b5b80821115612c17576000816000905550600101612bff565b5090565b6000604051905090565b600080fd5b600080fd5b600073ffffffffffffffffffffffffffffffffffffffff82169050919050565b6000612c5a82612c2f565b9050919050565b612c6a81612c4f565b8114612c7557600080fd5b50565b600081359050612c8781612c61565b92915050565b6000819050919050565b612ca081612c8d565b8114612cab57600080fd5b50565b600081359050612cbd81612c97565b92915050565b60008060408385031215612cda57612cd9612c25565b5b6000612ce885828601612c78565b9250506020612cf985828601612cae565b9150509250929050565b612d0c81612c8d565b82525050565b6000602082019050612d276000830184612d03565b92915050565b600080fd5b600080fd5b6000601f19601f8301169050919050565b7f4e487b7100000000000000000000000000000000000000000000000000000000600052604160045260246000fd5b612d8082612d37565b810181811067ffffffffffffffff82111715612d9f57612d9e612d48565b5b80604052505050565b6000612db2612c1b565b9050612dbe8282612d77565b919050565b600067ffffffffffffffff821115612dde57612ddd612d48565b5b612de782612d37565b9050602081019050919050565b82818337600083830152505050565b6000612e16612e1184612dc3565b612da8565b905082815260208101848484011115612e3257612e31612d32565b5b612e3d848285612df4565b509392505050565b600082601f830112612e5a57612e59612d2d565b5b8135612e6a848260208601612e03565b91505092915050565b600060208284031215612e8957612e88612c25565b5b600082013567ffffffffffffffff811115612ea757612ea6612c2a565b5b612eb384828501612e45565b91505092915050565b60007fffffffff0000000000000000000000000000000000000000000000000000000082169050919050565b612ef181612ebc565b8114612efc57600080fd5b50565b600081359050612f0e81612ee8565b92915050565b600060208284031215612f2a57612f29612c25565b5b6000612f3884828501612eff565b91505092915050565b60008115159050919050565b612f5681612f41565b82525050565b6000602082019050612f716000830184612f4d565b92915050565b600060208284031215612f8d57612f8c612c25565b5b6000612f9b84828501612cae565b91505092915050565b600081519050919050565b600082825260208201905092915050565b60005b83811015612fde578082015181840152602081019050612fc3565b60008484015250505050565b6000612ff582612fa4565b612fff8185612faf565b935061300f818560208601612fc0565b61301881612d37565b840191505092915050565b6000602082019050818103600083015261303d8184612fea565b905092915050565b60006020828403121561305b5761305a612c25565b5b600061306984828501612c78565b91505092915050565b600067ffffffffffffffff82111561308d5761308c612d48565b5b602082029050602081019050919050565b600080fd5b60006130b66130b184613072565b612da8565b905080838252602082019050602084028301858111156130d9576130d861309e565b5b835b8181101561310257806130ee8882612cae565b8452602084019350506020810190506130db565b5050509392505050565b600082601f83011261312157613120612d2d565b5b81356131318482602086016130a3565b91505092915050565b600067ffffffffffffffff82111561315557613154612d48565b5b61315e82612d37565b9050602081019050919050565b600061317e6131798461313a565b612da8565b90508281526020810184848401111561319a57613199612d32565b5b6131a5848285612df4565b509392505050565b600082601f8301126131c2576131c1612d2d565b5b81356131d284826020860161316b565b91505092915050565b600080600080608085870312156131f5576131f4612c25565b5b600061320387828801612c78565b945050602085013567ffffffffffffffff81111561322457613223612c2a565b5b6132308782880161310c565b935050604085013567ffffffffffffffff81111561325157613250612c2a565b5b61325d8782880161310c565b925050606085013567ffffffffffffffff81111561327e5761327d612c2a565b5b61328a878288016131ad565b91505092959194509250565b6000819050919050565b6132a981613296565b81146132b457600080fd5b50565b6000813590506132c6816132a0565b92915050565b6000602082840312156132e2576132e1612c25565b5b60006132f0848285016132b7565b91505092915050565b61330281613296565b82525050565b600060208201905061331d60008301846132f9565b92915050565b600080600080600060a0868803121561333f5761333e612c25565b5b600061334d88828901612c78565b955050602061335e88828901612c78565b945050604086013567ffffffffffffffff81111561337f5761337e612c2a565b5b61338b8882890161310c565b935050606086013567ffffffffffffffff8111156133ac576133ab612c2a565b5b6133b88882890161310c565b925050608086013567ffffffffffffffff8111156133d9576133d8612c2a565b5b6133e5888289016131ad565b9150509295509295909350565b6000806040838503121561340957613408612c25565b5b6000613417858286016132b7565b925050602061342885828601612c78565b9150509250929050565b600067ffffffffffffffff82111561344d5761344c612d48565b5b602082029050602081019050919050565b600061347161346c84613432565b612da8565b905080838252602082019050602084028301858111156134945761349361309e565b5b835b818110156134bd57806134a98882612c78565b845260208401935050602081019050613496565b5050509392505050565b600082601f8301126134dc576134db612d2d565b5b81356134ec84826020860161345e565b91505092915050565b6000806040838503121561350c5761350b612c25565b5b600083013567ffffffffffffffff81111561352a57613529612c2a565b5b613536858286016134c7565b925050602083013567ffffffffffffffff81111561355757613556612c2a565b5b6135638582860161310c565b9150509250929050565b600081519050919050565b600082825260208201905092915050565b6000819050602082019050919050565b6135a281612c8d565b82525050565b60006135b48383613599565b60208301905092915050565b6000602082019050919050565b60006135d88261356d565b6135e28185613578565b93506135ed83613589565b8060005b8381101561361e57815161360588826135a8565b9750613610836135c0565b9250506001810190506135f1565b5085935050505092915050565b6000602082019050818103600083015261364581846135cd565b905092915050565b6000806040838503121561366457613663612c25565b5b600083013567ffffffffffffffff81111561368257613681612c2a565b5b61368e85828601612e45565b925050602061369f85828601612c78565b9150509250929050565b6000806000606084860312156136c2576136c1612c25565b5b60006136d086828701612c78565b935050602084013567ffffffffffffffff8111156136f1576136f0612c2a565b5b6136fd8682870161310c565b925050604084013567ffffffffffffffff81111561371e5761371d612c2a565b5b61372a8682870161310c565b9150509250925092565b6000806000806080858703121561374e5761374d612c25565b5b600061375c87828801612c78565b945050602061376d87828801612cae565b935050604061377e87828801612cae565b925050606085013567ffffffffffffffff81111561379f5761379e612c2a565b5b6137ab878288016131ad565b91505092959194509250565b6137c081612f41565b81146137cb57600080fd5b50565b6000813590506137dd816137b7565b92915050565b600080604083850312156137fa576137f9612c25565b5b600061380885828601612c78565b9250506020613819858286016137ce565b9150509250929050565b6000806040838503121561383a57613839612c25565b5b600061384885828601612c78565b925050602061385985828601612c78565b9150509250929050565b600080600080600060a0868803121561387f5761387e612c25565b5b600061388d88828901612c78565b955050602061389e88828901612c78565b94505060406138af88828901612cae565b93505060606138c088828901612cae565b925050608086013567ffffffffffffffff8111156138e1576138e0612c2a565b5b6138ed888289016131ad565b9150509295509295909350565b6000806040838503121561391157613910612c25565b5b600061391f85828601612c78565b925050602083013567ffffffffffffffff8111156139405761393f612c2a565b5b61394c85828601612e45565b9150509250929050565b60008060006060848603121561396f5761396e612c25565b5b600061397d86828701612c78565b935050602061398e86828701612cae565b925050604061399f86828701612cae565b9150509250925092565b7f596f7520616c726561647920706179656420666f7220612062696b652e000000600082015250565b60006139df601d83612faf565b91506139ea826139a9565b602082019050919050565b60006020820190508181036000830152613a0e816139d2565b9050919050565b7f54686520707269636520726563656976656420697320696e76616c6964000000600082015250565b6000613a4b601d83612faf565b9150613a5682613a15565b602082019050919050565b60006020820190508181036000830152613a7a81613a3e565b9050919050565b7f4e487b7100000000000000000000000000000000000000000000000000000000600052602260045260246000fd5b60006002820490506001821680613ac857607f821691505b602082108103613adb57613ada613a81565b5b50919050565b60008190508160005260206000209050919050565b60006020601f8301049050919050565b600082821b905092915050565b600060088302613b437fffffffffffffffffffffffffffffffffffffffffffffffffffffffffffffffff82613b06565b613b4d8683613b06565b95508019841693508086168417925050509392505050565b6000819050919050565b6000613b8a613b85613b8084612c8d565b613b65565b612c8d565b9050919050565b6000819050919050565b613ba483613b6f565b613bb8613bb082613b91565b848454613b13565b825550505050565b600090565b613bcd613bc0565b613bd8818484613b9b565b505050565b5b81811015613bfc57613bf1600082613bc5565b600181019050613bde565b5050565b601f821115613c4157613c1281613ae1565b613c1b84613af6565b81016020851015613c2a578190505b613c3e613c3685613af6565b830182613bdd565b50505b505050565b600082821c905092915050565b6000613c6460001984600802613c46565b1980831691505092915050565b6000613c7d8383613c53565b9150826002028217905092915050565b613c9682612fa4565b67ffffffffffffffff811115613caf57613cae612d48565b5b613cb98254613ab0565b613cc4828285613c00565b600060209050601f831160018114613cf75760008415613ce5578287015190505b613cef8582613c71565b865550613d57565b601f198416613d0586613ae1565b60005b82811015613d2d57848901518255600182019150602085019450602081019050613d08565b86831015613d4a5784890151613d46601f891682613c53565b8355505b6001600288020188555050505b505050505050565b613d6881612c4f565b82525050565b6000604082019050613d836000830185613d5f565b613d906020830184613d5f565b9392505050565b6000604082019050613dac6000830185612d03565b613db96020830184612d03565b9392505050565b7f4e487b7100000000000000000000000000000000000000000000000000000000600052603260045260246000fd5b7f4e487b7100000000000000000000000000000000000000000000000000000000600052601160045260246000fd5b6000613e2982612c8d565b91507fffffffffffffffffffffffffffffffffffffffffffffffffffffffffffffffff8203613e5b57613e5a613def565b5b600182019050919050565b7f4e6f2076616c6964205061796d656e7400000000000000000000000000000000600082015250565b6000613e9c601083612faf565b9150613ea782613e66565b602082019050919050565b60006020820190508181036000830152613ecb81613e8f565b9050919050565b600081905092915050565b60008154613eea81613ab0565b613ef48186613ed2565b94506001821660008114613f0f5760018114613f2457613f57565b60ff1983168652811515820286019350613f57565b613f2d85613ae1565b60005b83811015613f4f57815481890152600182019150602081019050613f30565b838801955050505b50505092915050565b6000613f6b82612fa4565b613f758185613ed2565b9350613f85818560208601612fc0565b80840191505092915050565b6000613f9d8285613edd565b9150613fa98284613f60565b91508190509392505050565b6000602082019050613fca6000830184613d5f565b92915050565b600081905092915050565b50565b6000613feb600083613fd0565b9150613ff682613fdb565b600082019050919050565b600061400c82613fde565b9150819050919050565b7f5061796d656e74206661696c6564000000000000000000000000000000000000600082015250565b600061404c600e83612faf565b915061405782614016565b602082019050919050565b6000602082019050818103600083015261407b8161403f565b9050919050565b60006040820190506140976000830185613d5f565b6140a460208301846132f9565b9392505050565b600081519050919050565b600082825260208201905092915050565b60006140d2826140ab565b6140dc81856140b6565b93506140ec818560208601612fc0565b6140f581612d37565b840191505092915050565b600060a0820190506141156000830188613d5f565b6141226020830187613d5f565b61412f6040830186612d03565b61413c6060830185612d03565b818103608083015261414e81846140c7565b90509695505050505050565b60008151905061416981612ee8565b92915050565b60006020828403121561418557614184612c25565b5b60006141938482850161415a565b91505092915050565b600060a0820190506141b16000830188613d5f565b6141be6020830187613d5f565b81810360408301526141d081866135cd565b905081810360608301526141e481856135cd565b905081810360808301526141f881846140c7565b90509695505050505050565b600061420f82612c8d565b915061421a83612c8d565b925082820190508082111561423257614231613def565b5b92915050565b600060808201905061424d6000830187613d5f565b61425a6020830186612d03565b6142676040830185612d03565b6142746060830184612d03565b95945050505050565b6000604082019050818103600083015261429781856135cd565b905081810360208301526142ab81846135cd565b9050939250505056fea2646970667358221220a618eaf0209b33bb85cf1ba605b15b0e607e74dea6caa568802635bc55de097164736f6c63430008160033",
  "linkReferences": {},
  "deployedLinkReferences": {}
}