{
  "_format": "hh-sol-artifact-1",
  "contractName": "DPPContract",
  "sourceName": "contracts/DPP.sol",
  "abi": [
    {
      "inputs": [
        {
          "internalType": "address",
          "name": "defaultAdmin",
          "type": "address"
        },
        {
          "internalType": "address",
          "name": "minter",
          "type": "address"
        },
        {
          "internalType": "address",
          "name": "recycler",
          "type": "address"
        }
      ],
      "stateMutability": "nonpayable",
      "type": "constructor"
    },
    {
      "inputs": [],
      "name": "AccessControlBadConfirmation",
      "type": "error"
    },
    {
      "inputs": [
        {
          "internalType": "address",
          "name": "account",
          "type": "address"
        },
        {
          "internalType": "bytes32",
          "name": "neededRole",
          "type": "bytes32"
        }
      ],
      "name": "AccessControlUnauthorizedAccount",
      "type": "error"
    },
    {
      "inputs": [
        {
          "internalType": "address",
          "name": "sender",
          "type": "address"
        },
        {
          "internalType": "uint256",
          "name": "balance",
          "type": "uint256"
        },
        {
          "internalType": "uint256",
          "name": "needed",
          "type": "uint256"
        },
        {
          "internalType": "uint256",
          "name": "tokenId",
          "type": "uint256"
        }
      ],
      "name": "ERC1155InsufficientBalance",
      "type": "error"
    },
    {
      "inputs": [
        {
          "internalType": "address",
          "name": "approver",
          "type": "address"
        }
      ],
      "name": "ERC1155InvalidApprover",
      "type": "error"
    },
    {
      "inputs": [
        {
          "internalType": "uint256",
          "name": "idsLength",
          "type": "uint256"
        },
        {
          "internalType": "uint256",
          "name": "valuesLength",
          "type": "uint256"
        }
      ],
      "name": "ERC1155InvalidArrayLength",
      "type": "error"
    },
    {
      "inputs": [
        {
          "internalType": "address",
          "name": "operator",
          "type": "address"
        }
      ],
      "name": "ERC1155InvalidOperator",
      "type": "error"
    },
    {
      "inputs": [
        {
          "internalType": "address",
          "name": "receiver",
          "type": "address"
        }
      ],
      "name": "ERC1155InvalidReceiver",
      "type": "error"
    },
    {
      "inputs": [
        {
          "internalType": "address",
          "name": "sender",
          "type": "address"
        }
      ],
      "name": "ERC1155InvalidSender",
      "type": "error"
    },
    {
      "inputs": [
        {
          "internalType": "address",
          "name": "operator",
          "type": "address"
        },
        {
          "internalType": "address",
          "name": "owner",
          "type": "address"
        }
      ],
      "name": "ERC1155MissingApprovalForAll",
      "type": "error"
    },
    {
      "anonymous": false,
      "inputs": [
        {
          "indexed": true,
          "internalType": "address",
          "name": "account",
          "type": "address"
        },
        {
          "indexed": true,
          "internalType": "address",
          "name": "operator",
          "type": "address"
        },
        {
          "indexed": false,
          "internalType": "bool",
          "name": "approved",
          "type": "bool"
        }
      ],
      "name": "ApprovalForAll",
      "type": "event"
    },
    {
      "anonymous": false,
      "inputs": [
        {
          "indexed": true,
          "internalType": "bytes32",
          "name": "role",
          "type": "bytes32"
        },
        {
          "indexed": true,
          "internalType": "bytes32",
          "name": "previousAdminRole",
          "type": "bytes32"
        },
        {
          "indexed": true,
          "internalType": "bytes32",
          "name": "newAdminRole",
          "type": "bytes32"
        }
      ],
      "name": "RoleAdminChanged",
      "type": "event"
    },
    {
      "anonymous": false,
      "inputs": [
        {
          "indexed": true,
          "internalType": "bytes32",
          "name": "role",
          "type": "bytes32"
        },
        {
          "indexed": true,
          "internalType": "address",
          "name": "account",
          "type": "address"
        },
        {
          "indexed": true,
          "internalType": "address",
          "name": "sender",
          "type": "address"
        }
      ],
      "name": "RoleGranted",
      "type": "event"
    },
    {
      "anonymous": false,
      "inputs": [
        {
          "indexed": true,
          "internalType": "bytes32",
          "name": "role",
          "type": "bytes32"
        },
        {
          "indexed": true,
          "internalType": "address",
          "name": "account",
          "type": "address"
        },
        {
          "indexed": true,
          "internalType": "address",
          "name": "sender",
          "type": "address"
        }
      ],
      "name": "RoleRevoked",
      "type": "event"
    },
    {
      "anonymous": false,
      "inputs": [
        {
          "indexed": true,
          "internalType": "address",
          "name": "operator",
          "type": "address"
        },
        {
          "indexed": true,
          "internalType": "address",
          "name": "from",
          "type": "address"
        },
        {
          "indexed": true,
          "internalType": "address",
          "name": "to",
          "type": "address"
        },
        {
          "indexed": false,
          "internalType": "uint256[]",
          "name": "ids",
          "type": "uint256[]"
        },
        {
          "indexed": false,
          "internalType": "uint256[]",
          "name": "values",
          "type": "uint256[]"
        }
      ],
      "name": "TransferBatch",
      "type": "event"
    },
    {
      "anonymous": false,
      "inputs": [
        {
          "indexed": true,
          "internalType": "address",
          "name": "operator",
          "type": "address"
        },
        {
          "indexed": true,
          "internalType": "address",
          "name": "from",
          "type": "address"
        },
        {
          "indexed": true,
          "internalType": "address",
          "name": "to",
          "type": "address"
        },
        {
          "indexed": false,
          "internalType": "uint256",
          "name": "id",
          "type": "uint256"
        },
        {
          "indexed": false,
          "internalType": "uint256",
          "name": "value",
          "type": "uint256"
        }
      ],
      "name": "TransferSingle",
      "type": "event"
    },
    {
      "anonymous": false,
      "inputs": [
        {
          "indexed": false,
          "internalType": "string",
          "name": "value",
          "type": "string"
        },
        {
          "indexed": true,
          "internalType": "uint256",
          "name": "id",
          "type": "uint256"
        }
      ],
      "name": "URI",
      "type": "event"
    },
    {
      "inputs": [],
      "name": "ADMIN_ROLE",
      "outputs": [
        {
          "internalType": "bytes32",
          "name": "",
          "type": "bytes32"
        }
      ],
      "stateMutability": "view",
      "type": "function"
    },
    {
      "inputs": [
        {
          "internalType": "address",
          "name": "",
          "type": "address"
        }
      ],
      "name": "BikePayment",
      "outputs": [
        {
          "internalType": "bool",
          "name": "",
          "type": "bool"
        }
      ],
      "stateMutability": "view",
      "type": "function"
    },
    {
      "inputs": [],
      "name": "DEFAULT_ADMIN_ROLE",
      "outputs": [
        {
          "internalType": "bytes32",
          "name": "",
          "type": "bytes32"
        }
      ],
      "stateMutability": "view",
      "type": "function"
    },
    {
      "inputs": [
        {
          "internalType": "uint256",
          "name": "",
          "type": "uint256"
        }
      ],
      "name": "DPP_IDtoaddress",
      "outputs": [
        {
          "internalType": "address",
          "name": "",
          "type": "address"
        }
      ],
      "stateMutability": "view",
      "type": "function"
    },
    {
      "inputs": [
        {
          "internalType": "address",
          "name": "",
          "type": "address"
        },
        {
          "internalType": "uint256",
          "name": "",
          "type": "uint256"
        }
      ],
      "name": "DPP_User",
      "outputs": [
        {
          "internalType": "bool",
          "name": "",
          "type": "bool"
        }
      ],
      "stateMutability": "view",
      "type": "function"
    },
    {
      "inputs": [
        {
          "internalType": "uint256",
          "name": "",
          "type": "uint256"
        }
      ],
      "name": "DPP_User_Recycling",
      "outputs": [
        {
          "internalType": "address",
          "name": "",
          "type": "address"
        }
      ],
      "stateMutability": "view",
      "type": "function"
    },
    {
      "inputs": [],
      "name": "MINTER_ROLE",
      "outputs": [
        {
          "internalType": "bytes32",
          "name": "",
          "type": "bytes32"
        }
      ],
      "stateMutability": "view",
      "type": "function"
    },
    {
      "inputs": [
        {
          "internalType": "uint256",
          "name": "_token_id",
          "type": "uint256"
        },
        {
          "internalType": "string",
          "name": "tokenURI",
          "type": "string"
        }
      ],
      "name": "MaintainBike",
      "outputs": [],
      "stateMutability": "nonpayable",
      "type": "function"
    },
    {
      "inputs": [
        {
          "internalType": "address",
          "name": "",
          "type": "address"
        }
      ],
      "name": "PayedDepositFrame",
      "outputs": [
        {
          "internalType": "bool",
          "name": "",
          "type": "bool"
        }
      ],
      "stateMutability": "view",
      "type": "function"
    },
    {
      "inputs": [
        {
          "internalType": "address",
          "name": "",
          "type": "address"
        }
      ],
      "name": "PayedDepositWheel",
      "outputs": [
        {
          "internalType": "bool",
          "name": "",
          "type": "bool"
        }
      ],
      "stateMutability": "view",
      "type": "function"
    },
    {
      "inputs": [
        {
          "internalType": "uint256",
          "name": "_tokenID",
          "type": "uint256"
        }
      ],
      "name": "Recycle",
      "outputs": [
        {
          "internalType": "bool",
          "name": "",
          "type": "bool"
        }
      ],
      "stateMutability": "payable",
      "type": "function"
    },
    {
      "inputs": [],
      "name": "URI_SETTER_ROLE",
      "outputs": [
        {
          "internalType": "bytes32",
          "name": "",
          "type": "bytes32"
        }
      ],
      "stateMutability": "view",
      "type": "function"
    },
    {
      "inputs": [
        {
          "internalType": "address",
          "name": "",
          "type": "address"
        }
      ],
      "name": "addressToDPP_ID",
      "outputs": [
        {
          "internalType": "uint256",
          "name": "",
          "type": "uint256"
        }
      ],
      "stateMutability": "view",
      "type": "function"
    },
    {
      "inputs": [
        {
          "internalType": "address",
          "name": "_user",
          "type": "address"
        },
        {
          "internalType": "string",
          "name": "_dpp_ipfs_link",
          "type": "string"
        }
      ],
      "name": "approvePurchase",
      "outputs": [],
      "stateMutability": "nonpayable",
      "type": "function"
    },
    {
      "inputs": [
        {
          "internalType": "address",
          "name": "account",
          "type": "address"
        },
        {
          "internalType": "uint256",
          "name": "id",
          "type": "uint256"
        }
      ],
      "name": "balanceOf",
      "outputs": [
        {
          "internalType": "uint256",
          "name": "",
          "type": "uint256"
        }
      ],
      "stateMutability": "view",
      "type": "function"
    },
    {
      "inputs": [
        {
          "internalType": "address[]",
          "name": "accounts",
          "type": "address[]"
        },
        {
          "internalType": "uint256[]",
          "name": "ids",
          "type": "uint256[]"
        }
      ],
      "name": "balanceOfBatch",
      "outputs": [
        {
          "internalType": "uint256[]",
          "name": "",
          "type": "uint256[]"
        }
      ],
      "stateMutability": "view",
      "type": "function"
    },
    {
      "inputs": [],
      "name": "bikePrice",
      "outputs": [
        {
          "internalType": "uint256",
          "name": "",
          "type": "uint256"
        }
      ],
      "stateMutability": "view",
      "type": "function"
    },
    {
      "inputs": [
        {
          "internalType": "address",
          "name": "account",
          "type": "address"
        },
        {
          "internalType": "uint256",
          "name": "id",
          "type": "uint256"
        },
        {
          "internalType": "uint256",
          "name": "value",
          "type": "uint256"
        }
      ],
      "name": "burn",
      "outputs": [],
      "stateMutability": "nonpayable",
      "type": "function"
    },
    {
      "inputs": [
        {
          "internalType": "address",
          "name": "account",
          "type": "address"
        },
        {
          "internalType": "uint256[]",
          "name": "ids",
          "type": "uint256[]"
        },
        {
          "internalType": "uint256[]",
          "name": "values",
          "type": "uint256[]"
        }
      ],
      "name": "burnBatch",
      "outputs": [],
      "stateMutability": "nonpayable",
      "type": "function"
    },
    {
      "inputs": [
        {
          "internalType": "address",
          "name": "_user",
          "type": "address"
        }
      ],
      "name": "cancelPurchase_Distributor",
      "outputs": [],
      "stateMutability": "nonpayable",
      "type": "function"
    },
    {
      "inputs": [],
      "name": "cancelPurchase_User",
      "outputs": [],
      "stateMutability": "nonpayable",
      "type": "function"
    },
    {
      "inputs": [],
      "name": "depositFrame",
      "outputs": [
        {
          "internalType": "uint256",
          "name": "",
          "type": "uint256"
        }
      ],
      "stateMutability": "view",
      "type": "function"
    },
    {
      "inputs": [],
      "name": "depositWheel",
      "outputs": [
        {
          "internalType": "uint256",
          "name": "",
          "type": "uint256"
        }
      ],
      "stateMutability": "view",
      "type": "function"
    },
    {
      "inputs": [
        {
          "internalType": "uint256",
          "name": "id",
          "type": "uint256"
        }
      ],
      "name": "exists",
      "outputs": [
        {
          "internalType": "bool",
          "name": "",
          "type": "bool"
        }
      ],
      "stateMutability": "view",
      "type": "function"
    },
    {
      "inputs": [
        {
          "internalType": "bytes32",
          "name": "role",
          "type": "bytes32"
        }
      ],
      "name": "getRoleAdmin",
      "outputs": [
        {
          "internalType": "bytes32",
          "name": "",
          "type": "bytes32"
        }
      ],
      "stateMutability": "view",
      "type": "function"
    },
    {
      "inputs": [
        {
          "internalType": "bytes32",
          "name": "role",
          "type": "bytes32"
        },
        {
          "internalType": "address",
          "name": "account",
          "type": "address"
        }
      ],
      "name": "grantRole",
      "outputs": [],
      "stateMutability": "nonpayable",
      "type": "function"
    },
    {
      "inputs": [
        {
          "internalType": "bytes32",
          "name": "role",
          "type": "bytes32"
        },
        {
          "internalType": "address",
          "name": "account",
          "type": "address"
        }
      ],
      "name": "hasRole",
      "outputs": [
        {
          "internalType": "bool",
          "name": "",
          "type": "bool"
        }
      ],
      "stateMutability": "view",
      "type": "function"
    },
    {
      "inputs": [
        {
          "internalType": "address",
          "name": "account",
          "type": "address"
        },
        {
          "internalType": "address",
          "name": "operator",
          "type": "address"
        }
      ],
      "name": "isApprovedForAll",
      "outputs": [
        {
          "internalType": "bool",
          "name": "",
          "type": "bool"
        }
      ],
      "stateMutability": "view",
      "type": "function"
    },
    {
      "inputs": [
        {
          "internalType": "string",
          "name": "_ipfsLink",
          "type": "string"
        }
      ],
      "name": "makePurchase",
      "outputs": [],
      "stateMutability": "payable",
      "type": "function"
    },
    {
      "inputs": [
        {
          "internalType": "uint256",
          "name": "_tokenID",
          "type": "uint256"
        }
      ],
      "name": "markForRecycle",
      "outputs": [],
      "stateMutability": "nonpayable",
      "type": "function"
    },
    {
      "inputs": [
        {
          "internalType": "address",
          "name": "account",
          "type": "address"
        },
        {
          "internalType": "uint256",
          "name": "id",
          "type": "uint256"
        },
        {
          "internalType": "uint256",
          "name": "amount",
          "type": "uint256"
        },
        {
          "internalType": "bytes",
          "name": "data",
          "type": "bytes"
        }
      ],
      "name": "mint",
      "outputs": [],
      "stateMutability": "nonpayable",
      "type": "function"
    },
    {
      "inputs": [
        {
          "internalType": "address",
          "name": "to",
          "type": "address"
        },
        {
          "internalType": "uint256[]",
          "name": "ids",
          "type": "uint256[]"
        },
        {
          "internalType": "uint256[]",
          "name": "amounts",
          "type": "uint256[]"
        },
        {
          "internalType": "bytes",
          "name": "data",
          "type": "bytes"
        }
      ],
      "name": "mintBatch",
      "outputs": [],
      "stateMutability": "nonpayable",
      "type": "function"
    },
    {
      "inputs": [
        {
          "internalType": "address",
          "name": "",
          "type": "address"
        }
      ],
      "name": "orderMade",
      "outputs": [
        {
          "internalType": "bool",
          "name": "",
          "type": "bool"
        }
      ],
      "stateMutability": "view",
      "type": "function"
    },
    {
      "inputs": [],
      "name": "recycler_address",
      "outputs": [
        {
          "internalType": "address",
          "name": "",
          "type": "address"
        }
      ],
      "stateMutability": "view",
      "type": "function"
    },
    {
      "inputs": [
        {
          "internalType": "bytes32",
          "name": "role",
          "type": "bytes32"
        },
        {
          "internalType": "address",
          "name": "callerConfirmation",
          "type": "address"
        }
      ],
      "name": "renounceRole",
      "outputs": [],
      "stateMutability": "nonpayable",
      "type": "function"
    },
    {
      "inputs": [
        {
          "internalType": "bytes32",
          "name": "role",
          "type": "bytes32"
        },
        {
          "internalType": "address",
          "name": "account",
          "type": "address"
        }
      ],
      "name": "revokeRole",
      "outputs": [],
      "stateMutability": "nonpayable",
      "type": "function"
    },
    {
      "inputs": [
        {
          "internalType": "address",
          "name": "from",
          "type": "address"
        },
        {
          "internalType": "address",
          "name": "to",
          "type": "address"
        },
        {
          "internalType": "uint256[]",
          "name": "ids",
          "type": "uint256[]"
        },
        {
          "internalType": "uint256[]",
          "name": "values",
          "type": "uint256[]"
        },
        {
          "internalType": "bytes",
          "name": "data",
          "type": "bytes"
        }
      ],
      "name": "safeBatchTransferFrom",
      "outputs": [],
      "stateMutability": "nonpayable",
      "type": "function"
    },
    {
      "inputs": [
        {
          "internalType": "address",
          "name": "from",
          "type": "address"
        },
        {
          "internalType": "address",
          "name": "to",
          "type": "address"
        },
        {
          "internalType": "uint256",
          "name": "id",
          "type": "uint256"
        },
        {
          "internalType": "uint256",
          "name": "value",
          "type": "uint256"
        },
        {
          "internalType": "bytes",
          "name": "data",
          "type": "bytes"
        }
      ],
      "name": "safeTransferFrom",
      "outputs": [],
      "stateMutability": "nonpayable",
      "type": "function"
    },
    {
      "inputs": [
        {
          "internalType": "address",
          "name": "operator",
          "type": "address"
        },
        {
          "internalType": "bool",
          "name": "approved",
          "type": "bool"
        }
      ],
      "name": "setApprovalForAll",
      "outputs": [],
      "stateMutability": "nonpayable",
      "type": "function"
    },
    {
      "inputs": [
        {
          "internalType": "string",
          "name": "newuri",
          "type": "string"
        }
      ],
      "name": "setURI",
      "outputs": [],
      "stateMutability": "nonpayable",
      "type": "function"
    },
    {
      "inputs": [
        {
          "internalType": "bytes4",
          "name": "interfaceId",
          "type": "bytes4"
        }
      ],
      "name": "supportsInterface",
      "outputs": [
        {
          "internalType": "bool",
          "name": "",
          "type": "bool"
        }
      ],
      "stateMutability": "view",
      "type": "function"
    },
    {
      "inputs": [],
      "name": "token_RECYCLE_FRAME",
      "outputs": [
        {
          "internalType": "uint256",
          "name": "",
          "type": "uint256"
        }
      ],
      "stateMutability": "view",
      "type": "function"
    },
    {
      "inputs": [],
      "name": "token_RECYCLE_WHEEL",
      "outputs": [
        {
          "internalType": "uint256",
          "name": "",
          "type": "uint256"
        }
      ],
      "stateMutability": "view",
      "type": "function"
    },
    {
      "inputs": [],
      "name": "token_id",
      "outputs": [
        {
          "internalType": "uint256",
          "name": "",
          "type": "uint256"
        }
      ],
      "stateMutability": "view",
      "type": "function"
    },
    {
      "inputs": [],
      "name": "totalPrice",
      "outputs": [
        {
          "internalType": "uint256",
          "name": "",
          "type": "uint256"
        }
      ],
      "stateMutability": "view",
      "type": "function"
    },
    {
      "inputs": [],
      "name": "totalSupply",
      "outputs": [
        {
          "internalType": "uint256",
          "name": "",
          "type": "uint256"
        }
      ],
      "stateMutability": "view",
      "type": "function"
    },
    {
      "inputs": [
        {
          "internalType": "uint256",
          "name": "id",
          "type": "uint256"
        }
      ],
      "name": "totalSupply",
      "outputs": [
        {
          "internalType": "uint256",
          "name": "",
          "type": "uint256"
        }
      ],
      "stateMutability": "view",
      "type": "function"
    },
    {
      "inputs": [
        {
          "internalType": "uint256",
          "name": "tokenId",
          "type": "uint256"
        }
      ],
      "name": "uri",
      "outputs": [
        {
          "internalType": "string",
          "name": "",
          "type": "string"
        }
      ],
      "stateMutability": "view",
      "type": "function"
    },
    {
      "inputs": [
        {
          "internalType": "string",
          "name": "tokenURI",
          "type": "string"
        },
        {
          "internalType": "address",
          "name": "_to",
          "type": "address"
        }
      ],
      "name": "uri_set_mint",
      "outputs": [
        {
          "internalType": "uint256",
          "name": "",
          "type": "uint256"
        }
      ],
      "stateMutability": "nonpayable",
      "type": "function"
    },
    {
      "inputs": [
        {
          "internalType": "address",
          "name": "",
          "type": "address"
        }
      ],
      "name": "userOrderIPFS",
      "outputs": [
        {
          "internalType": "string",
          "name": "",
          "type": "string"
        }
      ],
      "stateMutability": "view",
      "type": "function"
    }
  ],
  "bytecode": "0x6080604052604051806020016040528060008152506006908162000024919062000580565b50600360085560026009556001600a556103e8600b5560c8600c55610190600d55610708600e557354ba6afb89bfa3701d07b044e1b638174ead588e600f60006101000a81548173ffffffffffffffffffffffffffffffffffffffff021916908373ffffffffffffffffffffffffffffffffffffffff160217905550348015620000ad57600080fd5b5060405162005dfd38038062005dfd8339818101604052810190620000d39190620006d1565b60405180602001604052806000815250620000f4816200017a60201b60201c565b506200010a6000801b846200018f60201b60201c565b506200013d7f9f2df0fed2c77648de5860a4cc508cd0818c85b8b8a1ab4ceeef8d981c8956a6836200018f60201b60201c565b50620001707f9f2df0fed2c77648de5860a4cc508cd0818c85b8b8a1ab4ceeef8d981c8956a6826200018f60201b60201c565b505050506200072d565b80600290816200018b919062000580565b5050565b6000620001a383836200029360201b60201c565b620002885760016005600085815260200190815260200160002060000160008473ffffffffffffffffffffffffffffffffffffffff1673ffffffffffffffffffffffffffffffffffffffff16815260200190815260200160002060006101000a81548160ff02191690831515021790555062000224620002fe60201b60201c565b73ffffffffffffffffffffffffffffffffffffffff168273ffffffffffffffffffffffffffffffffffffffff16847f2f8788117e7eff1d82e926ec794901d17c78024a50270940304540a733656f0d60405160405180910390a4600190506200028d565b600090505b92915050565b60006005600084815260200190815260200160002060000160008373ffffffffffffffffffffffffffffffffffffffff1673ffffffffffffffffffffffffffffffffffffffff16815260200190815260200160002060009054906101000a900460ff16905092915050565b600033905090565b600081519050919050565b7f4e487b7100000000000000000000000000000000000000000000000000000000600052604160045260246000fd5b7f4e487b7100000000000000000000000000000000000000000000000000000000600052602260045260246000fd5b600060028204905060018216806200038857607f821691505b6020821081036200039e576200039d62000340565b5b50919050565b60008190508160005260206000209050919050565b60006020601f8301049050919050565b600082821b905092915050565b600060088302620004087fffffffffffffffffffffffffffffffffffffffffffffffffffffffffffffffff82620003c9565b620004148683620003c9565b95508019841693508086168417925050509392505050565b6000819050919050565b6000819050919050565b6000620004616200045b62000455846200042c565b62000436565b6200042c565b9050919050565b6000819050919050565b6200047d8362000440565b620004956200048c8262000468565b848454620003d6565b825550505050565b600090565b620004ac6200049d565b620004b981848462000472565b505050565b5b81811015620004e157620004d5600082620004a2565b600181019050620004bf565b5050565b601f8211156200053057620004fa81620003a4565b6200050584620003b9565b8101602085101562000515578190505b6200052d6200052485620003b9565b830182620004be565b50505b505050565b600082821c905092915050565b6000620005556000198460080262000535565b1980831691505092915050565b600062000570838362000542565b9150826002028217905092915050565b6200058b8262000306565b67ffffffffffffffff811115620005a757620005a662000311565b5b620005b382546200036f565b620005c0828285620004e5565b600060209050601f831160018114620005f85760008415620005e3578287015190505b620005ef858262000562565b8655506200065f565b601f1984166200060886620003a4565b60005b8281101562000632578489015182556001820191506020850194506020810190506200060b565b868310156200065257848901516200064e601f89168262000542565b8355505b6001600288020188555050505b505050505050565b600080fd5b600073ffffffffffffffffffffffffffffffffffffffff82169050919050565b600062000699826200066c565b9050919050565b620006ab816200068c565b8114620006b757600080fd5b50565b600081519050620006cb81620006a0565b92915050565b600080600060608486031215620006ed57620006ec62000667565b5b6000620006fd86828701620006ba565b93505060206200071086828701620006ba565b92505060406200072386828701620006ba565b9150509250925092565b6156c0806200073d6000396000f3fe6080604052600436106102c85760003560e01c80638caa1fda11610175578063d5391393116100dc578063e985e9c511610095578063f242432a1161006f578063f242432a14610b95578063f4f68bfd14610bbe578063f5298aca14610be7578063f7e9660614610c10576102c8565b8063e985e9c514610ade578063eb748bc914610b1b578063f092d67214610b58576102c8565b8063d5391393146109d0578063d547741f146109fb578063d566813114610a24578063de81e03814610a4f578063e1e6743b14610a78578063e8b5a99f14610aa1576102c8565b8063a22cb4651161012e578063a22cb465146108ae578063a371139f146108d7578063a86a58af14610914578063ab0d92dd1461093f578063bd85b0391461096a578063c962f60f146109a7576102c8565b80638caa1fda14610776578063900de331146107b357806391d14854146107f0578063931f60a71461082d57806396bead9b14610858578063a217fddf14610883576102c8565b80632eb2c2d611610234578063580159d7116101ed578063731133e9116101c7578063731133e9146106cc57806375b238fc146106f55780637aced3fe146107205780637f3457101461074b576102c8565b8063580159d71461063657806366edd1ee146106665780636b20c454146106a3576102c8565b80632eb2c2d6146105165780632f2ff15d1461053f57806336568abe146105685780634e1273f4146105915780634f558e79146105ce57806353f0e8461461060b576102c8565b806318160ddd1161028657806318160ddd146104275780631f7fdffa1461045257806323ca74aa1461047b578063248a9ca31461049257806324ea2173146104cf5780632b9c305b146104fa576102c8565b8062fdd58e146102cd57806301ffc9a71461030a57806302fe5305146103475780630d58853b146103705780630e89341c146103ad57806311ecc8b5146103ea575b600080fd5b3480156102d957600080fd5b506102f460048036038101906102ef9190613d25565b610c4d565b6040516103019190613d74565b60405180910390f35b34801561031657600080fd5b50610331600480360381019061032c9190613de7565b610ca7565b60405161033e9190613e2f565b60405180910390f35b34801561035357600080fd5b5061036e60048036038101906103699190613f90565b610cb9565b005b34801561037c57600080fd5b5061039760048036038101906103929190613fd9565b610cf0565b6040516103a49190614015565b60405180910390f35b3480156103b957600080fd5b506103d460048036038101906103cf9190613fd9565b610d23565b6040516103e191906140af565b60405180910390f35b3480156103f657600080fd5b50610411600480360381019061040c91906140d1565b610d35565b60405161041e9190613e2f565b60405180910390f35b34801561043357600080fd5b5061043c610d55565b6040516104499190613d74565b60405180910390f35b34801561045e57600080fd5b5061047960048036038101906104749190614267565b610d5f565b005b34801561048757600080fd5b50610490610d9c565b005b34801561049e57600080fd5b506104b960048036038101906104b49190614358565b610fbe565b6040516104c69190614394565b60405180910390f35b3480156104db57600080fd5b506104e4610fde565b6040516104f19190614015565b60405180910390f35b610514600480360381019061050f9190613f90565b611004565b005b34801561052257600080fd5b5061053d600480360381019061053891906143af565b611312565b005b34801561054b57600080fd5b506105666004803603810190610561919061447e565b6113ba565b005b34801561057457600080fd5b5061058f600480360381019061058a919061447e565b6113dc565b005b34801561059d57600080fd5b506105b860048036038101906105b39190614581565b611457565b6040516105c591906146b7565b60405180910390f35b3480156105da57600080fd5b506105f560048036038101906105f09190613fd9565b611566565b6040516106029190613e2f565b60405180910390f35b34801561061757600080fd5b5061062061157a565b60405161062d9190613d74565b60405180910390f35b610650600480360381019061064b9190613fd9565b611580565b60405161065d9190613e2f565b60405180910390f35b34801561067257600080fd5b5061068d600480360381019061068891906146d9565b61181d565b60405161069a9190613d74565b60405180910390f35b3480156106af57600080fd5b506106ca60048036038101906106c59190614735565b611902565b005b3480156106d857600080fd5b506106f360048036038101906106ee91906147c0565b6119ae565b005b34801561070157600080fd5b5061070a6119eb565b6040516107179190614394565b60405180910390f35b34801561072c57600080fd5b50610735611a0f565b6040516107429190613d74565b60405180910390f35b34801561075757600080fd5b50610760611a15565b60405161076d9190614394565b60405180910390f35b34801561078257600080fd5b5061079d600480360381019061079891906140d1565b611a39565b6040516107aa91906140af565b60405180910390f35b3480156107bf57600080fd5b506107da60048036038101906107d591906140d1565b611ad9565b6040516107e79190613d74565b60405180910390f35b3480156107fc57600080fd5b506108176004803603810190610812919061447e565b611af1565b6040516108249190613e2f565b60405180910390f35b34801561083957600080fd5b50610842611b5c565b60405161084f9190613d74565b60405180910390f35b34801561086457600080fd5b5061086d611b62565b60405161087a9190613d74565b60405180910390f35b34801561088f57600080fd5b50610898611b68565b6040516108a59190614394565b60405180910390f35b3480156108ba57600080fd5b506108d560048036038101906108d0919061486f565b611b6f565b005b3480156108e357600080fd5b506108fe60048036038101906108f991906140d1565b611b85565b60405161090b9190613e2f565b60405180910390f35b34801561092057600080fd5b50610929611ba5565b6040516109369190613d74565b60405180910390f35b34801561094b57600080fd5b50610954611bab565b6040516109619190613d74565b60405180910390f35b34801561097657600080fd5b50610991600480360381019061098c9190613fd9565b611bb1565b60405161099e9190613d74565b60405180910390f35b3480156109b357600080fd5b506109ce60048036038101906109c991906148af565b611bce565b005b3480156109dc57600080fd5b506109e5611c79565b6040516109f29190614394565b60405180910390f35b348015610a0757600080fd5b50610a226004803603810190610a1d919061447e565b611c9d565b005b348015610a3057600080fd5b50610a39611cbf565b604051610a469190613d74565b60405180910390f35b348015610a5b57600080fd5b50610a766004803603810190610a719190613fd9565b611cc5565b005b348015610a8457600080fd5b50610a9f6004803603810190610a9a91906140d1565b611e5f565b005b348015610aad57600080fd5b50610ac86004803603810190610ac391906140d1565b612082565b604051610ad59190613e2f565b60405180910390f35b348015610aea57600080fd5b50610b056004803603810190610b00919061490b565b6120a2565b604051610b129190613e2f565b60405180910390f35b348015610b2757600080fd5b50610b426004803603810190610b3d9190613fd9565b612136565b604051610b4f9190614015565b60405180910390f35b348015610b6457600080fd5b50610b7f6004803603810190610b7a91906140d1565b612169565b604051610b8c9190613e2f565b60405180910390f35b348015610ba157600080fd5b50610bbc6004803603810190610bb7919061494b565b612189565b005b348015610bca57600080fd5b50610be56004803603810190610be091906149e2565b612231565b005b348015610bf357600080fd5b50610c0e6004803603810190610c099190614a3e565b6124ce565b005b348015610c1c57600080fd5b50610c376004803603810190610c329190613d25565b61257a565b604051610c449190613e2f565b60405180910390f35b600080600083815260200190815260200160002060008473ffffffffffffffffffffffffffffffffffffffff1673ffffffffffffffffffffffffffffffffffffffff16815260200190815260200160002054905092915050565b6000610cb2826125a9565b9050919050565b7f7804d923f43a17d325d77e781528e0793b2edd9890ab45fc64efd7b4b427744c610ce381612623565b610cec82612637565b5050565b60186020528060005260406000206000915054906101000a900473ffffffffffffffffffffffffffffffffffffffff1681565b6060610d2e8261264a565b9050919050565b60156020528060005260406000206000915054906101000a900460ff1681565b6000600454905090565b7f9f2df0fed2c77648de5860a4cc508cd0818c85b8b8a1ab4ceeef8d981c8956a6610d8981612623565b610d958585858561272f565b5050505050565b601060003373ffffffffffffffffffffffffffffffffffffffff1673ffffffffffffffffffffffffffffffffffffffff16815260200190815260200160002060009054906101000a900460ff16610e28576040517f08c379a0000000000000000000000000000000000000000000000000000000008152600401610e1f90614b03565b60405180910390fd5b610e3433600e546127b5565b50601060003373ffffffffffffffffffffffffffffffffffffffff1673ffffffffffffffffffffffffffffffffffffffff16815260200190815260200160002060006101000a81549060ff0219169055601560003373ffffffffffffffffffffffffffffffffffffffff1673ffffffffffffffffffffffffffffffffffffffff16815260200190815260200160002060006101000a81549060ff0219169055601160003373ffffffffffffffffffffffffffffffffffffffff1673ffffffffffffffffffffffffffffffffffffffff16815260200190815260200160002060006101000a81549060ff0219169055601260003373ffffffffffffffffffffffffffffffffffffffff1673ffffffffffffffffffffffffffffffffffffffff16815260200190815260200160002060006101000a81549060ff0219169055601660003373ffffffffffffffffffffffffffffffffffffffff1673ffffffffffffffffffffffffffffffffffffffff1681526020019081526020016000206000610fbc9190613c20565b565b600060056000838152602001908152602001600020600101549050919050565b600f60009054906101000a900473ffffffffffffffffffffffffffffffffffffffff1681565b601560003373ffffffffffffffffffffffffffffffffffffffff1673ffffffffffffffffffffffffffffffffffffffff16815260200190815260200160002060009054906101000a900460ff1615611091576040517f08c379a000000000000000000000000000000000000000000000000000000000815260040161108890614b6f565b60405180910390fd5b600e5434146110d5576040517f08c379a00000000000000000000000000000000000000000000000000000000081526004016110cc90614bdb565b60405180910390fd5b601560003373ffffffffffffffffffffffffffffffffffffffff1673ffffffffffffffffffffffffffffffffffffffff16815260200190815260200160002060009054906101000a900460ff1615611162576040517f08c379a000000000000000000000000000000000000000000000000000000000815260040161115990614c47565b60405180910390fd5b6001601560003373ffffffffffffffffffffffffffffffffffffffff1673ffffffffffffffffffffffffffffffffffffffff16815260200190815260200160002060006101000a81548160ff02191690831515021790555080601660003373ffffffffffffffffffffffffffffffffffffffff1673ffffffffffffffffffffffffffffffffffffffff16815260200190815260200160002090816112069190614e73565b506001601060003373ffffffffffffffffffffffffffffffffffffffff1673ffffffffffffffffffffffffffffffffffffffff16815260200190815260200160002060006101000a81548160ff0219169083151502179055506001601160003373ffffffffffffffffffffffffffffffffffffffff1673ffffffffffffffffffffffffffffffffffffffff16815260200190815260200160002060006101000a81548160ff0219169083151502179055506001601260003373ffffffffffffffffffffffffffffffffffffffff1673ffffffffffffffffffffffffffffffffffffffff16815260200190815260200160002060006101000a81548160ff02191690831515021790555050565b600061131c61286d565b90508073ffffffffffffffffffffffffffffffffffffffff168673ffffffffffffffffffffffffffffffffffffffff1614158015611361575061135f86826120a2565b155b156113a55780866040517fe237d92200000000000000000000000000000000000000000000000000000000815260040161139c929190614f45565b60405180910390fd5b6113b28686868686612875565b505050505050565b6113c382610fbe565b6113cc81612623565b6113d6838361296d565b50505050565b6113e461286d565b73ffffffffffffffffffffffffffffffffffffffff168173ffffffffffffffffffffffffffffffffffffffff1614611448576040517f6697b23200000000000000000000000000000000000000000000000000000000815260040160405180910390fd5b6114528282612a5f565b505050565b606081518351146114a357815183516040517f5b05999100000000000000000000000000000000000000000000000000000000815260040161149a929190614f6e565b60405180910390fd5b6000835167ffffffffffffffff8111156114c0576114bf613e65565b5b6040519080825280602002602001820160405280156114ee5781602001602082028036833780820191505090505b50905060005b845181101561155b5761152b6115138287612b5290919063ffffffff16565b6115268387612b6690919063ffffffff16565b610c4d565b82828151811061153e5761153d614f97565b5b6020026020010181815250508061155490614ff5565b90506114f4565b508091505092915050565b60008061157283611bb1565b119050919050565b600b5481565b6000600f60009054906101000a900473ffffffffffffffffffffffffffffffffffffffff1673ffffffffffffffffffffffffffffffffffffffff163373ffffffffffffffffffffffffffffffffffffffff1614611612576040517f08c379a000000000000000000000000000000000000000000000000000000000815260040161160990615089565b60405180910390fd5b600161161e3384610c4d565b1461165e576040517f08c379a0000000000000000000000000000000000000000000000000000000008152600401611655906150f5565b60405180910390fd5b60006018600084815260200190815260200160002060009054906101000a900473ffffffffffffffffffffffffffffffffffffffff1690506000600b54600e546116a89190615115565b9050600060646046836116bb9190615149565b6116c591906151ba565b905060006064601e846116d89190615149565b6116e291906151ba565b9050611722600f60009054906101000a900473ffffffffffffffffffffffffffffffffffffffff1660018060405180602001604052806000815250612b7a565b611761600f60009054906101000a900473ffffffffffffffffffffffffffffffffffffffff166002600160405180602001604052806000815250612b7a565b61178d600f60009054906101000a900473ffffffffffffffffffffffffffffffffffffffff16826127b5565b5061179884836127b5565b506117a5848760016124ce565b6000601760008673ffffffffffffffffffffffffffffffffffffffff1673ffffffffffffffffffffffffffffffffffffffff1681526020019081526020016000206000600854815260200190815260200160002060006101000a81548160ff0219169083151502179055506001945050505050919050565b60007f9f2df0fed2c77648de5860a4cc508cd0818c85b8b8a1ab4ceeef8d981c8956a661184981612623565b61185560085485612c13565b61187383600854600160405180602001604052806000815250612b7a565b6001601760008573ffffffffffffffffffffffffffffffffffffffff1673ffffffffffffffffffffffffffffffffffffffff1681526020019081526020016000206000600854815260200190815260200160002060006101000a81548160ff021916908315150217905550600860008154809291906118f190614ff5565b919050555060085491505092915050565b61190a61286d565b73ffffffffffffffffffffffffffffffffffffffff168373ffffffffffffffffffffffffffffffffffffffff161415801561195357506119518361194c61286d565b6120a2565b155b1561199e5761196061286d565b836040517fe237d922000000000000000000000000000000000000000000000000000000008152600401611995929190614f45565b60405180910390fd5b6119a9838383612c78565b505050565b7f9f2df0fed2c77648de5860a4cc508cd0818c85b8b8a1ab4ceeef8d981c8956a66119d881612623565b6119e485858585612b7a565b5050505050565b7fa49807205ce4d355092ef5a8a18f56e8913cf4a201fbe287825b095693c2177581565b600d5481565b7f7804d923f43a17d325d77e781528e0793b2edd9890ab45fc64efd7b4b427744c81565b60166020528060005260406000206000915090508054611a5890614c96565b80601f0160208091040260200160405190810160405280929190818152602001828054611a8490614c96565b8015611ad15780601f10611aa657610100808354040283529160200191611ad1565b820191906000526020600020905b815481529060010190602001808311611ab457829003601f168201915b505050505081565b60136020528060005260406000206000915090505481565b60006005600084815260200190815260200160002060000160008373ffffffffffffffffffffffffffffffffffffffff1673ffffffffffffffffffffffffffffffffffffffff16815260200190815260200160002060009054906101000a900460ff16905092915050565b600a5481565b60095481565b6000801b81565b611b81611b7a61286d565b8383612d0c565b5050565b60106020528060005260406000206000915054906101000a900460ff1681565b600c5481565b600e5481565b600060036000838152602001908152602001600020549050919050565b601760003373ffffffffffffffffffffffffffffffffffffffff1673ffffffffffffffffffffffffffffffffffffffff168152602001908152602001600020600083815260200190815260200160002060009054906101000a900460ff16611c6b576040517f08c379a0000000000000000000000000000000000000000000000000000000008152600401611c6290615237565b60405180910390fd5b611c758282612c13565b5050565b7f9f2df0fed2c77648de5860a4cc508cd0818c85b8b8a1ab4ceeef8d981c8956a681565b611ca682610fbe565b611caf81612623565b611cb98383612a5f565b50505050565b60085481565b601760003373ffffffffffffffffffffffffffffffffffffffff1673ffffffffffffffffffffffffffffffffffffffff168152602001908152602001600020600082815260200190815260200160002060009054906101000a900460ff16611d62576040517f08c379a0000000000000000000000000000000000000000000000000000000008152600401611d5990615237565b60405180910390fd5b611da133600f60009054906101000a900473ffffffffffffffffffffffffffffffffffffffff1683600160405180602001604052806000815250612189565b336018600083815260200190815260200160002060006101000a81548173ffffffffffffffffffffffffffffffffffffffff021916908373ffffffffffffffffffffffffffffffffffffffff1602179055506000601760003373ffffffffffffffffffffffffffffffffffffffff1673ffffffffffffffffffffffffffffffffffffffff168152602001908152602001600020600083815260200190815260200160002060006101000a81548160ff02191690831515021790555050565b601060008273ffffffffffffffffffffffffffffffffffffffff1673ffffffffffffffffffffffffffffffffffffffff16815260200190815260200160002060009054906101000a900460ff16611eeb576040517f08c379a0000000000000000000000000000000000000000000000000000000008152600401611ee290614b03565b60405180910390fd5b611ef781600e546127b5565b50601560003373ffffffffffffffffffffffffffffffffffffffff1673ffffffffffffffffffffffffffffffffffffffff16815260200190815260200160002060006101000a81549060ff0219169055601060008273ffffffffffffffffffffffffffffffffffffffff1673ffffffffffffffffffffffffffffffffffffffff16815260200190815260200160002060006101000a81549060ff0219169055601160008273ffffffffffffffffffffffffffffffffffffffff1673ffffffffffffffffffffffffffffffffffffffff16815260200190815260200160002060006101000a81549060ff0219169055601260008273ffffffffffffffffffffffffffffffffffffffff1673ffffffffffffffffffffffffffffffffffffffff16815260200190815260200160002060006101000a81549060ff0219169055601660008273ffffffffffffffffffffffffffffffffffffffff1673ffffffffffffffffffffffffffffffffffffffff168152602001908152602001600020600061207f9190613c20565b50565b60126020528060005260406000206000915054906101000a900460ff1681565b6000600160008473ffffffffffffffffffffffffffffffffffffffff1673ffffffffffffffffffffffffffffffffffffffff16815260200190815260200160002060008373ffffffffffffffffffffffffffffffffffffffff1673ffffffffffffffffffffffffffffffffffffffff16815260200190815260200160002060009054906101000a900460ff16905092915050565b60146020528060005260406000206000915054906101000a900473ffffffffffffffffffffffffffffffffffffffff1681565b60116020528060005260406000206000915054906101000a900460ff1681565b600061219361286d565b90508073ffffffffffffffffffffffffffffffffffffffff168673ffffffffffffffffffffffffffffffffffffffff16141580156121d857506121d686826120a2565b155b1561221c5780866040517fe237d922000000000000000000000000000000000000000000000000000000008152600401612213929190614f45565b60405180910390fd5b6122298686868686612e7c565b505050505050565b601060008373ffffffffffffffffffffffffffffffffffffffff1673ffffffffffffffffffffffffffffffffffffffff16815260200190815260200160002060009054906101000a900460ff166122bd576040517f08c379a00000000000000000000000000000000000000000000000000000000081526004016122b4906152a3565b60405180910390fd5b6122c982600b546127b5565b506000601060008473ffffffffffffffffffffffffffffffffffffffff1673ffffffffffffffffffffffffffffffffffffffff16815260200190815260200160002060006101000a81548160ff021916908315150217905550601560008373ffffffffffffffffffffffffffffffffffffffff1673ffffffffffffffffffffffffffffffffffffffff16815260200190815260200160002060006101000a81549060ff0219169055601660008373ffffffffffffffffffffffffffffffffffffffff1673ffffffffffffffffffffffffffffffffffffffff16815260200190815260200160002060006123bc9190613c20565b60006123c8828461181d565b905080601360008573ffffffffffffffffffffffffffffffffffffffff1673ffffffffffffffffffffffffffffffffffffffff16815260200190815260200160002081905550826014600083815260200190815260200160002060006101000a81548173ffffffffffffffffffffffffffffffffffffffff021916908373ffffffffffffffffffffffffffffffffffffffff1602179055506001601760008573ffffffffffffffffffffffffffffffffffffffff1673ffffffffffffffffffffffffffffffffffffffff168152602001908152602001600020600083815260200190815260200160002060006101000a81548160ff021916908315150217905550505050565b6124d661286d565b73ffffffffffffffffffffffffffffffffffffffff168373ffffffffffffffffffffffffffffffffffffffff161415801561251f575061251d8361251861286d565b6120a2565b155b1561256a5761252c61286d565b836040517fe237d922000000000000000000000000000000000000000000000000000000008152600401612561929190614f45565b60405180910390fd5b612575838383612f87565b505050565b60176020528160005260406000206020528060005260406000206000915091509054906101000a900460ff1681565b60007f7965db0b000000000000000000000000000000000000000000000000000000007bffffffffffffffffffffffffffffffffffffffffffffffffffffffff1916827bffffffffffffffffffffffffffffffffffffffffffffffffffffffff1916148061261c575061261b8261302e565b5b9050919050565b6126348161262f61286d565b613110565b50565b80600290816126469190614e73565b5050565b6060600060076000848152602001908152602001600020805461266c90614c96565b80601f016020809104026020016040519081016040528092919081815260200182805461269890614c96565b80156126e55780601f106126ba576101008083540402835291602001916126e5565b820191906000526020600020905b8154815290600101906020018083116126c857829003601f168201915b505050505090506000815111612703576126fe83613161565b612727565b600681604051602001612717929190615382565b6040516020818303038152906040525b915050919050565b600073ffffffffffffffffffffffffffffffffffffffff168473ffffffffffffffffffffffffffffffffffffffff16036127a15760006040517f57f447ce0000000000000000000000000000000000000000000000000000000081526004016127989190614015565b60405180910390fd5b6127af6000858585856131f5565b50505050565b6000808373ffffffffffffffffffffffffffffffffffffffff16836040516127dc906153d7565b60006040518083038185875af1925050503d8060008114612819576040519150601f19603f3d011682016040523d82523d6000602084013e61281e565b606091505b5050905080612862576040517f08c379a000000000000000000000000000000000000000000000000000000000815260040161285990615438565b60405180910390fd5b600191505092915050565b600033905090565b600073ffffffffffffffffffffffffffffffffffffffff168473ffffffffffffffffffffffffffffffffffffffff16036128e75760006040517f57f447ce0000000000000000000000000000000000000000000000000000000081526004016128de9190614015565b60405180910390fd5b600073ffffffffffffffffffffffffffffffffffffffff168573ffffffffffffffffffffffffffffffffffffffff16036129595760006040517f01a835140000000000000000000000000000000000000000000000000000000081526004016129509190614015565b60405180910390fd5b61296685858585856131f5565b5050505050565b60006129798383611af1565b612a545760016005600085815260200190815260200160002060000160008473ffffffffffffffffffffffffffffffffffffffff1673ffffffffffffffffffffffffffffffffffffffff16815260200190815260200160002060006101000a81548160ff0219169083151502179055506129f161286d565b73ffffffffffffffffffffffffffffffffffffffff168273ffffffffffffffffffffffffffffffffffffffff16847f2f8788117e7eff1d82e926ec794901d17c78024a50270940304540a733656f0d60405160405180910390a460019050612a59565b600090505b92915050565b6000612a6b8383611af1565b15612b475760006005600085815260200190815260200160002060000160008473ffffffffffffffffffffffffffffffffffffffff1673ffffffffffffffffffffffffffffffffffffffff16815260200190815260200160002060006101000a81548160ff021916908315150217905550612ae461286d565b73ffffffffffffffffffffffffffffffffffffffff168273ffffffffffffffffffffffffffffffffffffffff16847ff6391f5c32d9c69d2a47ea670b442974b53935d1edc7fd64eb21e047a839171b60405160405180910390a460019050612b4c565b600090505b92915050565b600060208202602084010151905092915050565b600060208202602084010151905092915050565b600073ffffffffffffffffffffffffffffffffffffffff168473ffffffffffffffffffffffffffffffffffffffff1603612bec5760006040517f57f447ce000000000000000000000000000000000000000000000000000000008152600401612be39190614015565b60405180910390fd5b600080612bf985856132a7565b91509150612c0b6000878484876131f5565b505050505050565b80600760008481526020019081526020016000209081612c339190614e73565b50817f6bb7ff708619ba0610cba295a58592e0451dee2622938c8755667688daf3529b612c5f84610d23565b604051612c6c91906140af565b60405180910390a25050565b600073ffffffffffffffffffffffffffffffffffffffff168373ffffffffffffffffffffffffffffffffffffffff1603612cea5760006040517f01a83514000000000000000000000000000000000000000000000000000000008152600401612ce19190614015565b60405180910390fd5b612d078360008484604051806020016040528060008152506131f5565b505050565b600073ffffffffffffffffffffffffffffffffffffffff168273ffffffffffffffffffffffffffffffffffffffff1603612d7e5760006040517fced3e100000000000000000000000000000000000000000000000000000000008152600401612d759190614015565b60405180910390fd5b80600160008573ffffffffffffffffffffffffffffffffffffffff1673ffffffffffffffffffffffffffffffffffffffff16815260200190815260200160002060008473ffffffffffffffffffffffffffffffffffffffff1673ffffffffffffffffffffffffffffffffffffffff16815260200190815260200160002060006101000a81548160ff0219169083151502179055508173ffffffffffffffffffffffffffffffffffffffff168373ffffffffffffffffffffffffffffffffffffffff167f17307eab39ab6107e8899845ad3d59bd9653f200f220920489ca2b5937696c3183604051612e6f9190613e2f565b60405180910390a3505050565b600073ffffffffffffffffffffffffffffffffffffffff168473ffffffffffffffffffffffffffffffffffffffff1603612eee5760006040517f57f447ce000000000000000000000000000000000000000000000000000000008152600401612ee59190614015565b60405180910390fd5b600073ffffffffffffffffffffffffffffffffffffffff168573ffffffffffffffffffffffffffffffffffffffff1603612f605760006040517f01a83514000000000000000000000000000000000000000000000000000000008152600401612f579190614015565b60405180910390fd5b600080612f6d85856132a7565b91509150612f7e87878484876131f5565b50505050505050565b600073ffffffffffffffffffffffffffffffffffffffff168373ffffffffffffffffffffffffffffffffffffffff1603612ff95760006040517f01a83514000000000000000000000000000000000000000000000000000000008152600401612ff09190614015565b60405180910390fd5b60008061300684846132a7565b915091506130278560008484604051806020016040528060008152506131f5565b5050505050565b60007fd9b67a26000000000000000000000000000000000000000000000000000000007bffffffffffffffffffffffffffffffffffffffffffffffffffffffff1916827bffffffffffffffffffffffffffffffffffffffffffffffffffffffff191614806130f957507f0e89341c000000000000000000000000000000000000000000000000000000007bffffffffffffffffffffffffffffffffffffffffffffffffffffffff1916827bffffffffffffffffffffffffffffffffffffffffffffffffffffffff1916145b806131095750613108826132d7565b5b9050919050565b61311a8282611af1565b61315d5780826040517fe2517d3f000000000000000000000000000000000000000000000000000000008152600401613154929190615458565b60405180910390fd5b5050565b60606002805461317090614c96565b80601f016020809104026020016040519081016040528092919081815260200182805461319c90614c96565b80156131e95780601f106131be576101008083540402835291602001916131e9565b820191906000526020600020905b8154815290600101906020018083116131cc57829003601f168201915b50505050509050919050565b61320185858585613341565b600073ffffffffffffffffffffffffffffffffffffffff168473ffffffffffffffffffffffffffffffffffffffff16146132a057600061323f61286d565b9050600184510361328f576000613260600086612b6690919063ffffffff16565b90506000613278600086612b6690919063ffffffff16565b9050613288838989858589613353565b505061329e565b61329d818787878787613507565b5b505b5050505050565b60608060405191506001825283602083015260408201905060018152826020820152604081016040529250929050565b60007f01ffc9a7000000000000000000000000000000000000000000000000000000007bffffffffffffffffffffffffffffffffffffffffffffffffffffffff1916827bffffffffffffffffffffffffffffffffffffffffffffffffffffffff1916149050919050565b61334d848484846136bb565b50505050565b60008473ffffffffffffffffffffffffffffffffffffffff163b11156134ff578373ffffffffffffffffffffffffffffffffffffffff1663f23a6e6187878686866040518663ffffffff1660e01b81526004016133b49594939291906154d6565b6020604051808303816000875af19250505080156133f057506040513d601f19601f820116820180604052508101906133ed9190615545565b60015b613474573d8060008114613420576040519150601f19603f3d011682016040523d82523d6000602084013e613425565b606091505b50600081510361346c57846040517f57f447ce0000000000000000000000000000000000000000000000000000000081526004016134639190614015565b60405180910390fd5b805181602001fd5b63f23a6e6160e01b7bffffffffffffffffffffffffffffffffffffffffffffffffffffffff1916817bffffffffffffffffffffffffffffffffffffffffffffffffffffffff1916146134fd57846040517f57f447ce0000000000000000000000000000000000000000000000000000000081526004016134f49190614015565b60405180910390fd5b505b505050505050565b60008473ffffffffffffffffffffffffffffffffffffffff163b11156136b3578373ffffffffffffffffffffffffffffffffffffffff1663bc197c8187878686866040518663ffffffff1660e01b8152600401613568959493929190615572565b6020604051808303816000875af19250505080156135a457506040513d601f19601f820116820180604052508101906135a19190615545565b60015b613628573d80600081146135d4576040519150601f19603f3d011682016040523d82523d6000602084013e6135d9565b606091505b50600081510361362057846040517f57f447ce0000000000000000000000000000000000000000000000000000000081526004016136179190614015565b60405180910390fd5b805181602001fd5b63bc197c8160e01b7bffffffffffffffffffffffffffffffffffffffffffffffffffffffff1916817bffffffffffffffffffffffffffffffffffffffffffffffffffffffff1916146136b157846040517f57f447ce0000000000000000000000000000000000000000000000000000000081526004016136a89190614015565b60405180910390fd5b505b505050505050565b6136c784848484613872565b600073ffffffffffffffffffffffffffffffffffffffff168473ffffffffffffffffffffffffffffffffffffffff16036137a7576000805b835181101561378b57600083828151811061371d5761371c614f97565b5b60200260200101519050806003600087858151811061373f5761373e614f97565b5b60200260200101518152602001908152602001600020600082825461376491906155da565b92505081905550808361377791906155da565b9250508061378490614ff5565b90506136ff565b50806004600082825461379e91906155da565b92505081905550505b600073ffffffffffffffffffffffffffffffffffffffff168373ffffffffffffffffffffffffffffffffffffffff160361386c576000805b83518110156138595760008382815181106137fd576137fc614f97565b5b60200260200101519050806003600087858151811061381f5761381e614f97565b5b60200260200101518152602001908152602001600020600082825403925050819055508083019250508061385290614ff5565b90506137df565b5080600460008282540392505081905550505b50505050565b80518251146138bc57815181516040517f5b0599910000000000000000000000000000000000000000000000000000000081526004016138b3929190614f6e565b60405180910390fd5b60006138c661286d565b905060005b8351811015613adb5760006138e98286612b6690919063ffffffff16565b905060006139008386612b6690919063ffffffff16565b9050600073ffffffffffffffffffffffffffffffffffffffff168873ffffffffffffffffffffffffffffffffffffffff1614613a2d57600080600084815260200190815260200160002060008a73ffffffffffffffffffffffffffffffffffffffff1673ffffffffffffffffffffffffffffffffffffffff168152602001908152602001600020549050818110156139d557888183856040517f03dee4c50000000000000000000000000000000000000000000000000000000081526004016139cc949392919061560e565b60405180910390fd5b81810360008085815260200190815260200160002060008b73ffffffffffffffffffffffffffffffffffffffff1673ffffffffffffffffffffffffffffffffffffffff16815260200190815260200160002081905550505b600073ffffffffffffffffffffffffffffffffffffffff168773ffffffffffffffffffffffffffffffffffffffff1614613ac8578060008084815260200190815260200160002060008973ffffffffffffffffffffffffffffffffffffffff1673ffffffffffffffffffffffffffffffffffffffff1681526020019081526020016000206000828254613ac091906155da565b925050819055505b505080613ad490614ff5565b90506138cb565b506001835103613b9a576000613afb600085612b6690919063ffffffff16565b90506000613b13600085612b6690919063ffffffff16565b90508573ffffffffffffffffffffffffffffffffffffffff168773ffffffffffffffffffffffffffffffffffffffff168473ffffffffffffffffffffffffffffffffffffffff167fc3d58168c5ae7397731d063d5bbf3d657854427343f4c083240f7aacaa2d0f628585604051613b8b929190614f6e565b60405180910390a45050613c19565b8373ffffffffffffffffffffffffffffffffffffffff168573ffffffffffffffffffffffffffffffffffffffff168273ffffffffffffffffffffffffffffffffffffffff167f4a39dc06d4c0dbc64b70af90fd698a233a518aa5d07e595d983b8c0526c8f7fb8686604051613c10929190615653565b60405180910390a45b5050505050565b508054613c2c90614c96565b6000825580601f10613c3e5750613c5d565b601f016020900490600052602060002090810190613c5c9190613c60565b5b50565b5b80821115613c79576000816000905550600101613c61565b5090565b6000604051905090565b600080fd5b600080fd5b600073ffffffffffffffffffffffffffffffffffffffff82169050919050565b6000613cbc82613c91565b9050919050565b613ccc81613cb1565b8114613cd757600080fd5b50565b600081359050613ce981613cc3565b92915050565b6000819050919050565b613d0281613cef565b8114613d0d57600080fd5b50565b600081359050613d1f81613cf9565b92915050565b60008060408385031215613d3c57613d3b613c87565b5b6000613d4a85828601613cda565b9250506020613d5b85828601613d10565b9150509250929050565b613d6e81613cef565b82525050565b6000602082019050613d896000830184613d65565b92915050565b60007fffffffff0000000000000000000000000000000000000000000000000000000082169050919050565b613dc481613d8f565b8114613dcf57600080fd5b50565b600081359050613de181613dbb565b92915050565b600060208284031215613dfd57613dfc613c87565b5b6000613e0b84828501613dd2565b91505092915050565b60008115159050919050565b613e2981613e14565b82525050565b6000602082019050613e446000830184613e20565b92915050565b600080fd5b600080fd5b6000601f19601f8301169050919050565b7f4e487b7100000000000000000000000000000000000000000000000000000000600052604160045260246000fd5b613e9d82613e54565b810181811067ffffffffffffffff82111715613ebc57613ebb613e65565b5b80604052505050565b6000613ecf613c7d565b9050613edb8282613e94565b919050565b600067ffffffffffffffff821115613efb57613efa613e65565b5b613f0482613e54565b9050602081019050919050565b82818337600083830152505050565b6000613f33613f2e84613ee0565b613ec5565b905082815260208101848484011115613f4f57613f4e613e4f565b5b613f5a848285613f11565b509392505050565b600082601f830112613f7757613f76613e4a565b5b8135613f87848260208601613f20565b91505092915050565b600060208284031215613fa657613fa5613c87565b5b600082013567ffffffffffffffff811115613fc457613fc3613c8c565b5b613fd084828501613f62565b91505092915050565b600060208284031215613fef57613fee613c87565b5b6000613ffd84828501613d10565b91505092915050565b61400f81613cb1565b82525050565b600060208201905061402a6000830184614006565b92915050565b600081519050919050565b600082825260208201905092915050565b60005b8381101561406a57808201518184015260208101905061404f565b60008484015250505050565b600061408182614030565b61408b818561403b565b935061409b81856020860161404c565b6140a481613e54565b840191505092915050565b600060208201905081810360008301526140c98184614076565b905092915050565b6000602082840312156140e7576140e6613c87565b5b60006140f584828501613cda565b91505092915050565b600067ffffffffffffffff82111561411957614118613e65565b5b602082029050602081019050919050565b600080fd5b600061414261413d846140fe565b613ec5565b905080838252602082019050602084028301858111156141655761416461412a565b5b835b8181101561418e578061417a8882613d10565b845260208401935050602081019050614167565b5050509392505050565b600082601f8301126141ad576141ac613e4a565b5b81356141bd84826020860161412f565b91505092915050565b600067ffffffffffffffff8211156141e1576141e0613e65565b5b6141ea82613e54565b9050602081019050919050565b600061420a614205846141c6565b613ec5565b90508281526020810184848401111561422657614225613e4f565b5b614231848285613f11565b509392505050565b600082601f83011261424e5761424d613e4a565b5b813561425e8482602086016141f7565b91505092915050565b6000806000806080858703121561428157614280613c87565b5b600061428f87828801613cda565b945050602085013567ffffffffffffffff8111156142b0576142af613c8c565b5b6142bc87828801614198565b935050604085013567ffffffffffffffff8111156142dd576142dc613c8c565b5b6142e987828801614198565b925050606085013567ffffffffffffffff81111561430a57614309613c8c565b5b61431687828801614239565b91505092959194509250565b6000819050919050565b61433581614322565b811461434057600080fd5b50565b6000813590506143528161432c565b92915050565b60006020828403121561436e5761436d613c87565b5b600061437c84828501614343565b91505092915050565b61438e81614322565b82525050565b60006020820190506143a96000830184614385565b92915050565b600080600080600060a086880312156143cb576143ca613c87565b5b60006143d988828901613cda565b95505060206143ea88828901613cda565b945050604086013567ffffffffffffffff81111561440b5761440a613c8c565b5b61441788828901614198565b935050606086013567ffffffffffffffff81111561443857614437613c8c565b5b61444488828901614198565b925050608086013567ffffffffffffffff81111561446557614464613c8c565b5b61447188828901614239565b9150509295509295909350565b6000806040838503121561449557614494613c87565b5b60006144a385828601614343565b92505060206144b485828601613cda565b9150509250929050565b600067ffffffffffffffff8211156144d9576144d8613e65565b5b602082029050602081019050919050565b60006144fd6144f8846144be565b613ec5565b905080838252602082019050602084028301858111156145205761451f61412a565b5b835b8181101561454957806145358882613cda565b845260208401935050602081019050614522565b5050509392505050565b600082601f83011261456857614567613e4a565b5b81356145788482602086016144ea565b91505092915050565b6000806040838503121561459857614597613c87565b5b600083013567ffffffffffffffff8111156145b6576145b5613c8c565b5b6145c285828601614553565b925050602083013567ffffffffffffffff8111156145e3576145e2613c8c565b5b6145ef85828601614198565b9150509250929050565b600081519050919050565b600082825260208201905092915050565b6000819050602082019050919050565b61462e81613cef565b82525050565b60006146408383614625565b60208301905092915050565b6000602082019050919050565b6000614664826145f9565b61466e8185614604565b935061467983614615565b8060005b838110156146aa5781516146918882614634565b975061469c8361464c565b92505060018101905061467d565b5085935050505092915050565b600060208201905081810360008301526146d18184614659565b905092915050565b600080604083850312156146f0576146ef613c87565b5b600083013567ffffffffffffffff81111561470e5761470d613c8c565b5b61471a85828601613f62565b925050602061472b85828601613cda565b9150509250929050565b60008060006060848603121561474e5761474d613c87565b5b600061475c86828701613cda565b935050602084013567ffffffffffffffff81111561477d5761477c613c8c565b5b61478986828701614198565b925050604084013567ffffffffffffffff8111156147aa576147a9613c8c565b5b6147b686828701614198565b9150509250925092565b600080600080608085870312156147da576147d9613c87565b5b60006147e887828801613cda565b94505060206147f987828801613d10565b935050604061480a87828801613d10565b925050606085013567ffffffffffffffff81111561482b5761482a613c8c565b5b61483787828801614239565b91505092959194509250565b61484c81613e14565b811461485757600080fd5b50565b60008135905061486981614843565b92915050565b6000806040838503121561488657614885613c87565b5b600061489485828601613cda565b92505060206148a58582860161485a565b9150509250929050565b600080604083850312156148c6576148c5613c87565b5b60006148d485828601613d10565b925050602083013567ffffffffffffffff8111156148f5576148f4613c8c565b5b61490185828601613f62565b9150509250929050565b6000806040838503121561492257614921613c87565b5b600061493085828601613cda565b925050602061494185828601613cda565b9150509250929050565b600080600080600060a0868803121561496757614966613c87565b5b600061497588828901613cda565b955050602061498688828901613cda565b945050604061499788828901613d10565b93505060606149a888828901613d10565b925050608086013567ffffffffffffffff8111156149c9576149c8613c8c565b5b6149d588828901614239565b9150509295509295909350565b600080604083850312156149f9576149f8613c87565b5b6000614a0785828601613cda565b925050602083013567ffffffffffffffff811115614a2857614a27613c8c565b5b614a3485828601613f62565b9150509250929050565b600080600060608486031215614a5757614a56613c87565b5b6000614a6586828701613cda565b9350506020614a7686828701613d10565b9250506040614a8786828701613d10565b9150509250925092565b7f4e6f20707572636861736520686173206265656e206d61646520746f2063616e60008201527f63656c0000000000000000000000000000000000000000000000000000000000602082015250565b6000614aed60238361403b565b9150614af882614a91565b604082019050919050565b60006020820190508181036000830152614b1c81614ae0565b9050919050565b7f596f7520616c726561647920706179656420666f7220612062696b652e000000600082015250565b6000614b59601d8361403b565b9150614b6482614b23565b602082019050919050565b60006020820190508181036000830152614b8881614b4c565b9050919050565b7f54686520707269636520726563656976656420697320696e76616c6964000000600082015250565b6000614bc5601d8361403b565b9150614bd082614b8f565b602082019050919050565b60006020820190508181036000830152614bf481614bb8565b9050919050565b7f416c7265616479206d61646520616e206f726465720000000000000000000000600082015250565b6000614c3160158361403b565b9150614c3c82614bfb565b602082019050919050565b60006020820190508181036000830152614c6081614c24565b9050919050565b7f4e487b7100000000000000000000000000000000000000000000000000000000600052602260045260246000fd5b60006002820490506001821680614cae57607f821691505b602082108103614cc157614cc0614c67565b5b50919050565b60008190508160005260206000209050919050565b60006020601f8301049050919050565b600082821b905092915050565b600060088302614d297fffffffffffffffffffffffffffffffffffffffffffffffffffffffffffffffff82614cec565b614d338683614cec565b95508019841693508086168417925050509392505050565b6000819050919050565b6000614d70614d6b614d6684613cef565b614d4b565b613cef565b9050919050565b6000819050919050565b614d8a83614d55565b614d9e614d9682614d77565b848454614cf9565b825550505050565b600090565b614db3614da6565b614dbe818484614d81565b505050565b5b81811015614de257614dd7600082614dab565b600181019050614dc4565b5050565b601f821115614e2757614df881614cc7565b614e0184614cdc565b81016020851015614e10578190505b614e24614e1c85614cdc565b830182614dc3565b50505b505050565b600082821c905092915050565b6000614e4a60001984600802614e2c565b1980831691505092915050565b6000614e638383614e39565b9150826002028217905092915050565b614e7c82614030565b67ffffffffffffffff811115614e9557614e94613e65565b5b614e9f8254614c96565b614eaa828285614de6565b600060209050601f831160018114614edd5760008415614ecb578287015190505b614ed58582614e57565b865550614f3d565b601f198416614eeb86614cc7565b60005b82811015614f1357848901518255600182019150602085019450602081019050614eee565b86831015614f305784890151614f2c601f891682614e39565b8355505b6001600288020188555050505b505050505050565b6000604082019050614f5a6000830185614006565b614f676020830184614006565b9392505050565b6000604082019050614f836000830185613d65565b614f906020830184613d65565b9392505050565b7f4e487b7100000000000000000000000000000000000000000000000000000000600052603260045260246000fd5b7f4e487b7100000000000000000000000000000000000000000000000000000000600052601160045260246000fd5b600061500082613cef565b91507fffffffffffffffffffffffffffffffffffffffffffffffffffffffffffffffff820361503257615031614fc6565b5b600182019050919050565b7f596f7520617265206e6f7420612072656379636c657221000000000000000000600082015250565b600061507360178361403b565b915061507e8261503d565b602082019050919050565b600060208201905081810360008301526150a281615066565b9050919050565b7f596f7520646f206e6f74206f776e2074686520746f6b656e7300000000000000600082015250565b60006150df60198361403b565b91506150ea826150a9565b602082019050919050565b6000602082019050818103600083015261510e816150d2565b9050919050565b600061512082613cef565b915061512b83613cef565b925082820390508181111561514357615142614fc6565b5b92915050565b600061515482613cef565b915061515f83613cef565b925082820261516d81613cef565b9150828204841483151761518457615183614fc6565b5b5092915050565b7f4e487b7100000000000000000000000000000000000000000000000000000000600052601260045260246000fd5b60006151c582613cef565b91506151d083613cef565b9250826151e0576151df61518b565b5b828204905092915050565b7f596f7520646f206e6f74206f776e206120445050000000000000000000000000600082015250565b600061522160148361403b565b915061522c826151eb565b602082019050919050565b6000602082019050818103600083015261525081615214565b9050919050565b7f4e6f2076616c6964205061796d656e7400000000000000000000000000000000600082015250565b600061528d60108361403b565b915061529882615257565b602082019050919050565b600060208201905081810360008301526152bc81615280565b9050919050565b600081905092915050565b600081546152db81614c96565b6152e581866152c3565b94506001821660008114615300576001811461531557615348565b60ff1983168652811515820286019350615348565b61531e85614cc7565b60005b8381101561534057815481890152600182019150602081019050615321565b838801955050505b50505092915050565b600061535c82614030565b61536681856152c3565b935061537681856020860161404c565b80840191505092915050565b600061538e82856152ce565b915061539a8284615351565b91508190509392505050565b600081905092915050565b50565b60006153c16000836153a6565b91506153cc826153b1565b600082019050919050565b60006153e2826153b4565b9150819050919050565b7f5061796d656e74206661696c6564000000000000000000000000000000000000600082015250565b6000615422600e8361403b565b915061542d826153ec565b602082019050919050565b6000602082019050818103600083015261545181615415565b9050919050565b600060408201905061546d6000830185614006565b61547a6020830184614385565b9392505050565b600081519050919050565b600082825260208201905092915050565b60006154a882615481565b6154b2818561548c565b93506154c281856020860161404c565b6154cb81613e54565b840191505092915050565b600060a0820190506154eb6000830188614006565b6154f86020830187614006565b6155056040830186613d65565b6155126060830185613d65565b8181036080830152615524818461549d565b90509695505050505050565b60008151905061553f81613dbb565b92915050565b60006020828403121561555b5761555a613c87565b5b600061556984828501615530565b91505092915050565b600060a0820190506155876000830188614006565b6155946020830187614006565b81810360408301526155a68186614659565b905081810360608301526155ba8185614659565b905081810360808301526155ce818461549d565b90509695505050505050565b60006155e582613cef565b91506155f083613cef565b925082820190508082111561560857615607614fc6565b5b92915050565b60006080820190506156236000830187614006565b6156306020830186613d65565b61563d6040830185613d65565b61564a6060830184613d65565b95945050505050565b6000604082019050818103600083015261566d8185614659565b905081810360208301526156818184614659565b9050939250505056fea26469706673582212208f80482d3ab5dc6e238ad492c5a825568249e210c4e0088661105aa41314c85f64736f6c63430008140033",
  "linkReferences": {},
  "deployedLinkReferences": {}
}